:10100000FFFFFFFFFFFFFFFFFFFFFFFFFFFFFFFFF0
:2010100028420020E1A0000081D4000081D4000081D4000081D4000081D4000081D40000B7
:1C10300081D4000081D4000081D4000081D4000081D4000081D400006BDA000061
:20104C002DE9FE43B04C0F460646F80B80F03781B80880F0C9806069B90F69D2A07A0028DE
:20106C004AD138094AD3002501266570A74826720DF048FBA6492A4604F14C000DF018FD51
:20108C00607901281FD1A079E8B9DFF88882266AD4F81490D8F8000070B10DF085F8A0EBC1
:2010AC0009004346000B8619E0611868B6EBC01F28BF256208D2266204F1C8004FF000518A
:2010CC000CF0B8FF31E0667104F1380140F60900088094F8450000F0F00040F0010084F816
:2010EC004500658794F8440000F0F00084F84400E563894E316018E0380914D2B80BC0F001
:20110C00FB8004F128000DF0F2FC061C08D0706830B17568F068B6F91C1082A20CCAA84794
:20112C0027F40057E8E00020A07227F00807E3E0D8B104200CF0BEFAB8B10DF035F8A06159
:20114C006169814226BF401A401E401A000BF060F06840F6C41100F58D708142F06003D366
:20116C0040F2EE22824200D9F1600025D6F818C06561BCF1000F0FD094F8450010F00F0F18
:20118C000AD1708C40F60901814205D167A20CCA30466FF48071E047604904F14C002A4669
:2011AC000DF086FCA07950B10220ADF8000068460CF080F8A571BDF80800A4F8A000012071
:2011CC0060702079A846401C2071192084F807800DF0A4F9756925B156A20CCA304641466A
:2011EC00A84727F0005787E004F1300948460DF07EFC061C5AD00AF016F84FF00008B26936
:20120C00C6F818807068B8B1F07F42F00202002300F00700401E07D0401E03D0801E06D191
:20122C0046A002E047A000E048A090E80C007568F068B6F91C10A8470DF0FAFA0546B4F9BF
:20124C003600401C6FF31F30E086206B1F30017801F07F01017048460CF0D8FD28460DF0DA
:20126C0024FCF068B0F99410B4F9362091421DD1217801291AD090F8965095B9056885B1CD
:20128C00E1680968B1F1FF3F10D0254909687030B5FBF1F10DF051FCF06870300CF03CFF3E
:2012AC0004E080F89680404607F000FA48460DF01EFC27F0020708B147F002071CE00DF082
:2012CC00B7FA014604F12C000DF011FC0646B56908460DF0EAFBA8080CD25EB1B069A843A4
:2012EC00B061706830B12A46F068B6F91C1075680023A84727F4804727B104F1C800394690
:20130C000CF098FEBDE8FE8310140020D17B0000F9CF0000F83400200010044005310000DB
:20132C0068F60000000000002000000000000000000000020000000000000004000000001D
:20134C0000000010000000000000004000000000000000202DE9FE430646DFF8DC82DFF862
:20136C00DC92B2780024101C00F03581801E00F00D81401E012840F2E180801E00F0A880E7
:20138C00401E7BD0401E59D0083800F04681801E40F046814546B08895F83E70ADF80000E2
:2013AC00052F45D001208DF80A0005F1CC000DF0A2FB95F83E0001281BD0042819D00328AD
:2013CC0006D0022804D0F28831897089B38907E0B5F84020B5F84210B5F84400B5F84630BD
:2013EC00ADF80220ADF80410ADF80600ADF8083020E0B5F84000F1888842D8BF081CADF849
:20140C0002003189B5F842008842D8BF081CADF804007189B5F844008842D8BF081CADF8D2
:20142C000600B5F84630B0898342D8BF031CDDE78DF80A4068460DF07DF9F1E0454605F1BD
:20144C00F0000DF058FB7078002840F0E980F088E882308928837089688305F1CC000DF0AE
:20146C002DF8002840F0DC80AB6A002B00F0D8801B68E88A298B6A8B9847D1E0B0880BF09E
:20148C0001FD45462146062205F1380005F0A6FCEC822C836C83B079687305F1CC000DF094
:2014AC002AFB05F1F0000DF026FB01244FF6FF706F79A8824FB9B079082814BF042005208F
:2014CC00A87020460CF01AFDAAE00320A870A7E0707858BB311D0A68454605F1380002604D
:2014EC00898881800627AF707089A882F089E882308A2883708A6883F0784446287394F819
:20150C003E00012818BF02280AD11F2009F034F94FF47A71024604F1CC00514309F018FD3E
:20152C00F0787289311D09F04FFC7BE0707831286FD14D4604202870204623E07778002FF8
:20154C0067D14546698AA878032A13D02A796F7921B9012A14BF6C712C7106E0174304D0A8
:20156C0005F1A80009F0F4FCA878072814BF0420062007E0062807D02879002808BF0324C9
:20158C00DAD00220A8704DE00724D5E77078751C00283ED14246F7789078D1799FB90228CC
:2015AC0016D0072814D0062802D1517901290FD103280DD002F1A8000CF080FF40B9012019
:2015CC000CF09CFC04E08732204607F0ADFE28702878F0B924E07078D8B94546022010218A
:2015EC0005F148020AF05CF80320102105F158020AF056F8F61C05F12C00B7883168878052
:20160C0005F1680201600120A979A87007F08CFE40B108204D46287004E0B0880DF07EF84E
:20162C00012C06D14546686A18B1016809B1A8788847BDE8FE83C046D8080020DA08002034
:20164C00F8B5A0F2013517460E46022D40F20C818649874C874A884B2D1F0F2D04D9143D6E
:20166C004AD0AD1E1CD011E0DFE815F0BA00B500EB00DB00AE00A700FE009F009800100001
:20168C001000900086007A006F006200282880F2EB80022E40F0E880398809F0F9FDF8BD73
:2016AC00012E40F0E1800A469078012800F0DC80D1783878D07081B9002800F0D580107829
:2016CC00012800F0A080042800F09D80062800F09A80052800F09780F8BD3878002840F063
:2016EC00C3801078032800F09980072800F09680052800F09380F8BD012E40F0B580387881
:20170C00012840F0B180254605F1F0000CF0D6FE002840F0A98004F13E01002005F04CFC00
:20172C00002840F0A18004F1CC000DF0E4F9F8BD022E40F0998038880A28C0F29580B0F5FD
:20174C00486F00F39180114614E0022E40F08C803888B0F5FA7F80F2878011460880F8BD20
:20176C00022E40F08180388806287DDBB0F5486F7ADC1946891CF1E7022E75D138880628C4
:20178C0072DBB0F5486F6FDC1946E7E7012E6BD13878062868DA1146891F0CE0012E63D143
:2017AC003878042860DA093105E0012E5CD13878082859DA08310870F8BD012E54D138780F
:2017CC00042851DAC91DF6E7012E4DD1387804284ADC891DEFE7022E46D138881031BDE72C
:2017EC00012E41D10A46D07801283DD091783878907061B9002837D01078012803D004281C
:20180C0018BF052830D101200CF078FBF8BD387850BB1078022818BF052825D10CF0E6FD2C
:20182C00F8BD254600211F2205F18704204605F0D5FA39463246204604F06AFA0020EE713B
:20184C000EE0254600211F2205F16804204605F0C5FA39463246204604F05AFA0120AE7160
:20186C003146224607F060FDF8BDC046DA080020D80800201C090020180900202DE9F04F91
:20188C000128ADF1140D40F0F280DFF81492D9F8DC00012840F0E9800220C9F8DC000CF00B
:2018AC007DFE0290012008F04DFA20B101210646C9F8DC10D5E00CF059FE03906E484FF033
:2018CC000008C0F8008001200BF0F4FE012818BFCDF8008004D1404607F034FB0120009037
:2018EC0066486E4CC0F800801934D4F8FF0F11200CF05CFF00280CBF4646012610200CF0BB
:20190C0055FF08B146F002060F200CF04FFF08B146F004060B200CF049FF30B158480068A6
:20192C005849006B0246088890470A200CF03EFF0028404618BF01204FF0805B0BF5DC756C
:20194C0028B128685049006B0246088890474F480127076028688069014646F02000884754
:20196C004B4807600CF01CFF00F001010191400815D248480CF06AFE8246BAF1040FF8D055
:20198C00BAF1010F06D1DBF8D801406802464148032190474049086820F00300086040468F
:2019AC0000F080F82868D4F8FF1F806B8047019801280ED0BAF1010F06D1DBF8D801406801
:2019CC0002463448394690473349086840F0030008602A48076028684069014630468847BC
:2019EC000B200CF0E3FE28B128682649C06A0246088890470A200CF0D9FE28B12868224951
:201A0C00C06A024608889047204807600322C9F8DC201F4BC3F800802868406B0146304693
:201A2C0088470128F8D1042008F08CF9124807601A48D4F8FF1F01688909FCD300980128A0
:201A4C0002D1384607F07EFA0CF0A4FE082008F079F906460398C9F8DC7009F0A3FE06F006
:201A6C00E3FC02980BF0C2F902E0042600E00126304605B0BDE8F08F0C40094000022243CD
:201A8C00B801001026ED000022ED0000282008608001044300400340242208401410094059
:201AAC00341900202DE9F84FDFF8E8B10746ABF13500DFF8D4910068800880F0D6800AF0D6
:201ACC00B5FF064677480830D0F8008000254FEA28725FEA985002F101020AD2C6F13E00CB
:201AEC0016F10A0F4FEAE000D8BF08208242B8BF021C624BD3F87C01C0F304600CF09FFDE5
:201B0C0004461868C0F304400CF099FD12198246162A05DA12F10A0FB8BF6FF0090200E077
:201B2C001522574B574802F01F0141F4F8511980006810F0030F18BF0125C00828BF45F09D
:201B4C0002050FB145F00405494691F90700301A052804DA8879A84208BF888865D0DFF831
:201B6C002CE10F2EA6F10F0C25DB0CEB0610A0F1F00C4FEA2C27072F88BF07273C46062CD8
:201B8C0088BF06245EF82400042303EB84037446E3581B1A03F0FF04E80824BFC3F30720E2
:201BAC000444A80824BFC3F307400444680828BF04EB136401E0002427465EF827E0E8087D
:201BCC000EF0FF0324BFCEF307200344A80824BFCEF307400344680828BF03EB1E63A4B2E9
:201BEC00ACEB0727BAEB020004FB07F404F1800403EB1423D8BF0120342208F0FF07424344
:201C0C007A43B2FBF3F04FF6FF72824238BF101C802E80B2888005DA16F1800FB8BF6FF09B
:201C2C007F0600E07F26CE718D71194A12681F280A604FF0000208D340F2FF11814206D2CA
:201C4C004008521C8142FBD301E01F208880124F0F38000942EAC00247EA0200CBF8FB0F6A
:201C6C000026CBF8FF6FBDE8F88F0D4F0B4E494608203760891D0870BDE8F88F3C110050EB
:201C8C006E62084024220840FC3400209C130050082009403500094000E7A48030100940C0
:201CAC00FDFDA400AC3F00502DE9F0411C4615468C4208BF854282BF00230022E5E0002C68
:201CCC0008BF002D0AD100290EBF00286FF000006FF0000100F0E1F8BDE8F0815FF0000816
:201CEC005FF0000E002C08BF8D429CBF2C1C0025070C47EA01470E0CB44208BFBD429EBF32
:201D0C005FEA044444EA15445FEA0545070A47EA01670E0AB44208BFBD429EBF5FEA0424C0
:201D2C0044EA15645FEA0525470847EAC1774E08B44208BFBD4200F29380870847EA8177F6
:201D4C008E08B44208BFBD427CD8C70847EA4177CE08B44208BFBD4266D8070947EA017790
:201D6C000E09B44208BFBD4250D8470947EAC1674E09B44208BFBD423AD8870947EA8167E5
:201D8C008E09B44208BFBD4224D8C70947EA4167CE09B44208BFBD420DD8E60146EA5566F5
:201DAC00EF01B14208BFB84201D3C01BB14158EB08085EEB0E0EA60146EA95664FEA851773
:201DCC00B14208BFB84201D3C01BB14158EB08084EEB0E0E660146EAD5666F01B14208BFFE
:201DEC00B84201D3C01BB14158EB08084EEB0E0E260146EA15762F01B14208BFB84201D3FA
:201E0C00C01BB14158EB08085EEB0E0EE60046EA5576EF00B14208BFB84201D3C01BB1410C
:201E2C0058EB08084EEB0E0EA60046EA9576AF00B14208BFB84201D3C01BB14158EB0808B6
:201E4C004EEB0E0E660046EAD5766F00B14208BFB84201D3C01BB14158EB08085EEB0E0EC4
:201E6C00A14208BFA84201D3401BA14158EB08085EEB0E0EA34208BFAA423EBF2D0A45EAFE
:201E8C000465240A89D3734642461E4617460B46024631463846BDE8F08170472DE9F0419F
:201EAC00ADF1200D06F0A6FF744C04F1280004F16C0103F0C9FFDFF8C881E06041460CF0D3
:201ECC00B5FD0AF027FD04F134000CF0DBFB04264FF47A7200236B49206104F18800009667
:201EEC0007F0BCFC1F20012109F0D2F94FF44870ADF80A0001278DF804700025ADF8065017
:201F0C008DF808703946ADF80E604FF44860ADF80C0001AAADF8100040F20530FFF790FB42
:201F2C0040F2063002210DF10602FFF789FB04F14E024FF442701B21FFF782FB04F140026A
:201F4C0040F207300E21FFF77BFB4FF44470394602AAFFF775FB40F2113002210DF10A0249
:201F6C00FFF76EFB40F21230022103AAFFF768FB40F2133002210DF10E02FFF761FB4FF41E
:201F8C004570022104AAFFF75BFB0CF0D9FB0620A02109F07DF90720A02109F079F90820C2
:201FAC00A02109F075F90920A02109F071F905958DF818708DF8195003208DF81B70314661
:201FCC0005AA8DF81A004FF4816009F047F94FF48060394606AA09F041F940F202403946D2
:201FEC000DF1190209F03AF940F2034039460DF11A0209F033F940F2064039460DF11B024B
:20200C0009F02CF90CF003FD0CF067FD0CF0A4F807F0FEFB0AF084FA04F092FFA0707F28FE
:20202C0014BF0A200F20052108F010F803F0E6F830B900F085FD18B9A07800F0BF00A0706E
:20204C000AF020FE0AF082FA0AF054FA06F0FCFE07F0B8FB0AF0EEFD0BF08CF90CF026FA83
:20206C000AF0FCFD0BF03AFD0AF04AF8E06841460CF0DCFC08B0BDE8F081C0462005002037
:20208C0079DE000091DE00002DE9F84381460CF07BFB002100B901216B4E30680028FCD0A3
:2020AC006C4D01242D1DEF6A346009B10CF072FBDFF89881C7F3072008F1BC0108600CF0F1
:2020CC0063FB002100B9214630680028FCD02F68346009B10CF05EFBC7F38440C8F8C00091
:2020EC000CF052FB0146002001B92046014630680028FCD0ED69346009B10CF04BFBC5F393
:20210C008120C8F8D000B9F5C061C8F8B81000F0968098F8D80068B9C8F8D410D8F8C00068
:20212C00C8F8C800D8F8BC70C8F8C470D8F8D060C8F8CC60D8F8D410D8F8BC60002954BF53
:20214C0002206FF00100454605F1C8031A6801EB41014018411000EB917002EBA0021A6057
:20216C00D5F8C810C5F8C46000291CDD1E293DDDD5F8CC0030B93429B4BF15391E21C5F8AE
:20218C00C81025E02A29BABFD5F8C8000B381E20C5F8C800D5F8C4003F28B4BF401C3F20C9
:2021AC00C5F8C4001FE0D5F8CC00032812D011F10B0FC6BFD5F8C8000B30201CC5F8C800BB
:2021CC00D5F8C4000028CCBF401E0020C5F8C400032009E011F1150FC6BFD5F8C80015301F
:2021EC00201CC5F8C8000020C5F8CC00B5F8C400174E30214FF47F4208230090304607F016
:20220C00C9FC009404214FF400321123304607F0C1FCB5F8C80004214FF4F80212230090C5
:20222C00304607F0B7FCB5F8CC0020214FF440620A230090304607F0ADFCBDE8F8830020C0
:20224C0088F8D800BDE8F88300800C403419002000A00C4000A00C402DE9F04FADF1840D65
:20226C0000F032FE07F072FC0026012804D10BF019FD022808BF012658490868C0F38150EB
:20228C00012806D151F80C0C0127010E07FA01F00643534800780AF0F1FB524D2C462860CD
:2022AC0038B1FF2204F1400107467F1E01F8012BFBD14D4909684FF0000901F0FF02FE2A8E
:2022CC001BD0DFF824C101F0FF074A460123FF2F0CD0B8427FD903FA07F73E427BD101F08C
:2022EC00FF0147EA0909611881F840205CF8041F521C01F0FF07FE2FE9D1092001F06EFFF3
:20230C003948002124220823606001A80CF0C6FA4FF0010804F1240001AA8DF81C804146C5
:20232C0009F062FD236843B3002794354FF0040BBA4608FA07F0064219D119EA000F04BF7A
:20234C0007F0FF0141F4C04105D0E019264990F8400051F82010254802F0F6FEF8B24FF08A
:20236C00FF310BF0D1F92368C5F800A001E0C5F800B07F1C2D1D9F42DBD30AA8002130228D
:20238C0008230CF04FFA0025FF2010210AAB1290174A009504F1080008F0BEFC16A8282248
:2023AC00082329460CF080FA04F1600016AA1C9510491D952B4608F0C7FE0F4951F80D0C48
:2023CC0020F4F85040F4005041F80D0C4746C1F8FF7F0A4E376021B0BDE8F08FB43F0050D4
:2023EC00093500205830002044EC0000007FC76731D700008D9F00000D30094008000940E3
:20240C002DE9F843674C04F124000CF070FB15460E4600900CF00CFA05F001078146B6F180
:20242C00FF3F0CD1A06A20B9B4F93600401C06B202E0A06AB0F91C60002084F8A3003046D5
:20244C000AF0C6F80326002800F09B80A16ADFF84081814269D0009FB8422ED03FB100999D
:20246C000A68904209D0096800290091F7D1832E41D048460CF019FB3DE004F1A4000BF02F
:20248C0039F800980168AA0802D20A6802600846002202600091009818B948460CF005FB4E
:2024AC0028E0C17F41F00401C17768460BF0AEFC0146404609F00AF8EDE704F1A4000BF0D7
:2024CC0019F8A8083ABF606A00680020606248460CF0EBFA0099C87F40F00400C8776846B2
:2024EC000BF094FC0146404608F0F0FF009808B1A808EFD28326E07988B9207A012843D0B6
:20250C0024480CF0FFF8022104F1C8000BF092FD6078012838D020480CF0F4F834E004F184
:20252C00C80002210BF086FD2EE0A90803D3616A009100266662C27F0121B9401143C1775F
:20254C000CF014F80446002F14BF144814480AF0B1FE48460CF0A9FAA80801D3009820B998
:20256C00204609F01FF983260EE0C17F41F00401C17768460BF04AFC0146404608F0A6FF3A
:20258C00ECE748460CF091FA3046BDE8F883C046401400204D100000B146000001000204DC
:2025AC0001000104101400202DE9FC415E4C574D574EDFF860815A4F94F8E410481E0B2805
:2025CC0061D8DFE800F07B2C43062343062343067664042907D001220A2945F8212C14BFA6
:2025EC000220032004E02021012045F8211C024684F8E200002045F8390C0827C5F8FF7F18
:20260C00C5F8F37F45F8392CBDE8FC81052914BF09200620002584F8E400356070E094F875
:20262C00E1700120383D002FC5F81B0004BF0620002102D00021F160032084F8E4000320AC
:20264C0045F8010C31603068800859D294F8E400012503280DD000214046602205230091C8
:20266C0007F098FA94F8E400062814BF0A200720D1E702200090002160220523404607F051
:20268C0089FA0420C7E709F024FDBDE8FC812249002622480E60012505600E2001F034FD59
:2026AC00022009F021FA84F8E45084F8E360BDE8FC81002038600C2578601FE019480068BE
:2026CC0000680146202088472C3D41F61D560F2000214FF4C072072345F8010C4046C5F8A1
:2026EC0003600225009507F055FA404600214FF4C072072307F080FE0120386084F8E45045
:20270C0004F178000BF008FDBDE8FC8139400C4038600C4000A00C402C500C4004800C40F1
:20272C0034600C40A0010010341900202DE9F84F9A4693460E4681460CF07AF8514C0090C3
:20274C00B4F93610B4F934000AAF401A40F6F8710140082980F28780B4F93400401C6FF35D
:20276C001F30A086B4F934800AF044FE054609F170000AF0BFFEAE6085F81EB0C5F804A015
:20278C00A5F81C80C5F80C9097E80C0041A003C8002605F110071040194087E8030004F121
:2027AC002400EE770768002F50D1294608F08EFE002851D0A9F89480E87F40F08000E8775E
:2027CC0089F89660607A40B1607830B10120A07266722779A671781C207100980CF065F919
:2027EC00A06A00284BD1607860BBE079012846D00CF01EF80646207A00BBA86807F07AF8C8
:20280C00224B2149E2681B68086040B930460CF04CF904F1C80004210BF00CFC2FE009688B
:20282C00D26804F1A400891AB1FBF3F10CF085F904F1A4000BF070FC30461EE0144901201A
:20284C000870F9E719200BF069FE18E004F12400294608F03BFE48B9B4F9340000F6FF7081
:20286C006FF31F30A0866FF0010805E0A9F89480E87F40F08000E87700980CF016F94046D4
:20288C00BDE8F88F10140020F834002068F60000F4340020F1EFFF9F20000000B0B545681A
:2028AC0084684F48297BADF1180D012916D0217E627E4C4B2F7E0143009143EA02010191B8
:2028CC00494937F0010718BF081CA27E1043029095F88D000322FF2811D00DE0677E217E73
:2028EC003843A37E019041F00041009143F000403E49029095F88D00014304220391FE20DA
:20290C004DF82200694605F1900003F09DFAC5F89C00002808BF00205FD0287B344951F885
:20292C00200001282BD02068B0F1804F14BF22220A22217ED5F89C0009F058FD2068B0F18D
:20294C00804F14BF21220922617ED5F89C0009F04DFD2068B0F1804F14BF24220C22A17E72
:20296C00D5F89C0009F042FD95F88D10FF2933D02068B0F1804F14BF23220B2228E0206888
:20298C00B0F1804F14BF21220922217ED5F89C0009F02CFD2068B0F1804F14BF22220A2215
:2029AC00617ED5F89C0009F021FD2068B0F1804F14BF24220C22A17ED5F89C0009F016FDD9
:2029CC002068B0F1804F14BF23220B2295F88D10D5F89C0009F00AFD012006B0B0BDC046D1
:2029EC00000480A0004000800004C0A00020008008EE00002DE9F04305466E68AC680F461A
:202A0C00ADF1340D0BF014FF96F8D910241D012903D10CF04AF8002084E04FF0010986F87E
:202A2C00D9900CF042F84FF00008C6F888803869306178697061387E3076387B3073387898
:202A4C003070786886F8A480706078694146092828BF494686F88C10207A01F0BFFB28469C
:202A6C0006F06CF8E07D86F88D002846FFF716FF50B9207A01F048FB0BF0DAFE86F8D9808E
:202A8C000CF013F845464CE001A84146302208230BF0C8FE06956078CDF80080234A099040
:202AAC00217801AB06F11C0008F036F901A84146282208230BF0F8FE05951D49606801AA82
:202ACC004346079006F1380008F03EFB307878B901A84146242208230BF0E0FE8DF81C90E6
:202AEC0006F16C00414601AA09F07EF9114800E0B868B06005F07EFDC6F8A000307B0128BA
:202B0C0008D1D6F89C000C490BF090FFD6F89C0000B18560094A06F1C40004212B4609F0EA
:202B2C00D5FF28460DB0BDE8F083C04669590000EF910000B3E9000065A9000019E800007F
:202B4C002DE9F84F07F0F8FB5FEA000800F08A80464E002435680094B8F1000F4ED0C4F361
:202B6C000C00002700B90127DFF808A1B9460AF1100A48B928460F21012208F073FC28460A
:202B8C0000220A2108F06EFC04F5802005F094FB0025B8F1000F1FD0291950464FF4807284
:202BAC0003F0B6F828194FF48071524600F5802004F09CFB5FEA00080AD0D3464FF48077BD
:202BCC001BF8011B009809F037F87F1E0090F7D105F58075280BDCD03068B9F1000F05469B
:202BEC0008D00F21002208F03DFC284601220A2108F038FC04F58054600CADD0B8F1010F17
:202C0C0004D04FF4F42005F057FB29E028460A21002208F027FC0098002109F00DF800217F
:202C2C0009F00AF804464FF4F42005F045FB104A0027978197804FF6FF70508014804FF4AC
:202C4C000046D6800425957346231372537293721021D372FF274FF4F420D77304F046FB71
:202C6C0008F06AFE4046BDE8F88FC0462C05002068310020683100202DE9F041424C474D04
:202C8C008046C8F38140401E02D0401E2AD025E0284620300168880C20D24FF48040206029
:202CAC003A48D0F802204B0AC1F3033703F0800322F08F02134347EA0302C0F80220D0F812
:202CCC0001300E1266F30303C0F80130026801F0E70722F0E70247EA020102E04FF0004175
:202CEC00204601602A4E06F108000068C0F3C0070FB94020A0624FF4007020640BF0A6FBAB
:202D0C0040F0300084F8C800C8F3815038B3401E03D0401E1ED002211DE001200AF0CAFC0E
:202D2C0007460420394606F027FD04200AF0C2FC8742FAD1366826F07F4008F08DFE1548BA
:202D4C000068036807214FF06022300E98474FF4806020600321042006F00EFD06E0042098
:202D6C00012106F009FD0C4808F076FE284600680B4947F6180700F03F0084F8CB0F094E07
:202D8C000F803068BDE8F08140A00C400A600840A83F0050B4010010BD3786006C130050C7
:202DAC0070B00C402C2009402DE9F04F0C464549CA7AADF12C0D84460592487B09900D7973
:202DCC0000958A7A488B4B8A0E7B91F805A091F802800492B1F846E008904A7A088B0392FB
:202DEC00CD7807900A7AC88A02920F6A0690CA79888A01928A79E146A9F54079B9F11D0F33
:202E0C0010D8DFE809F05B5553514F4D4B494643413F3C3A380F34312E2B2923201E1C0F41
:202E2C0019181716BCF1280F49DA604607F0A4FC21E0099EB246D046CDF814801DE0089838
:202E4C00079007980690DDF818E005E03831086820608888A08032E070460AE0B1F84400C0
:202E6C0009E0B1F8420004E0B1F8400001E091F83E00034612E0208021E005980490049854
:202E8C00039001E03231E2E7039802900298009006E0019A87310DE068310BE01846EAE756
:202EAC00009D0BE02C31D2E7276008E0583100E048311022204602F02BFF00E025700BB033
:202ECC00BDE8F08FD80800202DE9F041444C94F8E700ADF1280D00286FD1394F387B0125DC
:202EEC000021242284F8E7507E6884F8E6000823C4F80C6101A80BF0B9FC002604F10C0090
:202F0C00069601ABADF814602E490796324608F015FC2D4904F1300001AB324608F00EFCEE
:202F2C002A4904F1540001AB324608F007FCB868014628468847DFF89C8025487B7B007838
:202F4C00D8F80410C1F381571BB1032F03D184F8E150032F16D0022F14D0012F26D10320FF
:202F6C001D4C009031464FF040521C23204606F011FE009531464FF400720923204606F011
:202F8C0009FE13E0022008F0C7FD032F0CBF4FF47A7142F21071114800685434B1FBF0F197
:202FAC0020460BF0CAFD20460BF0B6F8D8F80000C00802D2304608F0AFFD0AB0BDE8F08178
:202FCC0098F400005B6E00008D630000656D000009350020B03F005000A00C4068F60000E7
:202FEC00341900202DE9F0430746880FADF1140D75D305F02DFB3F4D00261C352E603948F5
:20300C0045F81C0C38480BF07DFB3848BC68B14640F60A0200F13801468790F844300A80F2
:20302C008046C0F83C9003F0F00380F8443090F845306680241D03F0F00343F0010380F8AF
:20304C00453000E01C1D236813B118888242F9D12160607A00F0F000607208F124000BF034
:20306C0046FD80680088D21F82421DD0521C82421AD007F120000388B3B197F82C2097F862
:20308C002D30C7F8249002F0F00287F82C2003F0F00242F0010287F82D20C8F83C00487B00
:2030AC007E8400F0F000487369460AF013F968460BF0C4F928680028FCD02E6001200AF01F
:2030CC00F9FA012808D0607A00F0F00040F00100607207480BF016FBB86845F81C0C05B09E
:2030EC00BDE8F08301010E044D10000010140020A58F000000100440F8B50AF0EBFD404E52
:20310C003E4F0446A00823D3B96A09B33D4600200B698A69A86204EA0300104340F00200C5
:20312C0006F1080288610B6910689843106001F1100090E80C0030681A1C9043306005F1B5
:20314C00300008F0C3F9022105F1C8000AF072FFB86AA10815D200F110020CCA0021224025
:20316C000B40002B08BF002A0BD0016985690C40F8622C434FF48041846107F1C8000AF0F1
:20318C0059FFB86A002837D107F1240420460BF0AEFC051C30D0F868E968884226D1A868AB
:2031AC0006F0A8FB17490860E0B906F1080128690A6810430860326805F1100393E803002A
:2031CC00081C1043306000233361A86846F80C0C06F1100000680028FAD020460AF016FEEA
:2031EC00BD62F8BD086805F061FAF8BD07F1C8004FF480510AF01EFFF8BDC0461014002090
:20320C000C100440F83400202DE9F04104466768A5680E46ADF1380D0BF00AFB97F8DC10D7
:20322C002D1D012903D10BF040FC00205EE04FF0010887F8DC800BF038FCF168204604F0A0
:20324C00BDFE0028F1D13078387070687860307A002130220823F86001A80BF0E3FA069402
:20326C00287A00260990234A0096696801AB07F1100007F051FD01A82822082331460BF084
:20328C0013FB05941C49E86801AA3346079007F12C0007F059FF01A82422082331460BF00C
:2032AC00FDFA8DF81C8007F16000414601AA08F09BFD387838B907F17C00314601AA08F0A1
:2032CC0093FD0E487860C7F8BC603E72C7F8C060286800F083FF204606F014FC084A07F102
:2032EC00C8000421234609F0F1FB20460EB0BDE8F081C046853E0000578D0000A3E9000014
:20330C00D9E400003EB53C4C0621601C01700AF09BFF18B90BF056FA00203EBD0025012044
:20332C006821657004F054F82220694601228DF80000372009F0B2F808B9052060700BF09F
:20334C0041FA6078002818BF281C54D101200C2104F03EF80220694601220BF08CF90028D2
:20336C003CD09DF80000400836D303200DF1010107220BF080F968B39DF80700000927D2D6
:20338C009DF802109DF80100B4F908501B4B9DF8042040EA012000B268439DF8035001121D
:2033AC00A3F11400B4F90A30018445EA02219DF806509DF8052009B259430912B4F90C309B
:2033CC00418442EA052109B259430912818407E0032004E0042002E0022000E0012060706C
:2033EC0011208DF80000694601220A2009F056F80BF0E8F960783EBD6C22002058210020D2
:20340C002DE9F0413A4E307800286ED0394C208910F07F0F00F07F0865D007F09BFC364F48
:20342C0021783D78A0700DB9022934D12279C30913D2400820D307F053FD07F0E7FAE0782E
:20344C00E188002808BF217816D000254FF47A70E57090FBF1F0217809E0521CD0B20228DA
:20346C00207109D1E0884FF47A72B2FBF0F002B2500000EBC200E060002502293D700AD1E8
:20348C002089C00907D3FFF73DFF052821D008B105F054F82178E76817B901291AD122E0BB
:2034AC00022909D0022020700027277104F010F910B1404608F058F82089000A02D3E0682F
:2034CC00401EE06004F114020020122105F086FA09E0E560002020710127277004F0F8F8ED
:2034EC0008B100F039FD00203070BDE8F081C0460635002044210020073500202DE9F0477C
:20350C00ADF1180D01F0DCFF3A4D4FF0030908274FF6FF78002605F13E0A2C460AF0AEF8DD
:20352C0020BB009601A80DF106016A4608F002FDE0B9BDF80400102814D160789DF80610C7
:20354C0088420FD100980188884509D14088C00B08D3042005F12002014608F0A1F801E08A
:20356C0006F0EEF9009808B10AF03CFB208A41082DD320F0010063792179208253EA010284
:20358C0025D073B9207A637A8DF8070005F132018DF808300A680DF109031A6089889980F5
:2035AC0001E08DF80790A07A8DF80F00E37A8DF810300DF107000BF0ABF838B1636AA770C2
:2035CC0023B11A6812B1196838468847208A810807D320F0020020825146304603F0ECFC4F
:2035EC00208AC1089AD320F00400208208F024F894E7C046D80800202DE9FC4191EA0308BB
:20360C004CBF4FF000484FF000084FEAC32545EA52554FEAC2264FEA43077F0D11BF45F099
:20362C00004500210020BDE8FC815FF4E06E1EF1FF0E774555D04FEAC12343EA50534FEA12
:20364C00C0224FEA4104640D11BF43F0004300210020BDE8FC81744543D0E419A3FB050177
:20366C00A3FB06E7A2FB06631EEB030E57F1000751F10001A2FB05631EEB060E57F1000790
:20368C0051F10001FF1851F10001C01951F100014CBF4FF4806E4FF4007E10EB0E0051F11D
:2036AC00000148BF641C01D4400049415FF44077FF37E41BDEBF00210020BDE8FC8117F58C
:2036CC008067BC420DD24FEAD02040EA41504FEA41014FEA113141EA045141EA0801BDE8E7
:2036EC00FC810020FF21C900C91D090551EA0801BDE8FC8181F000412DE9FC414FEA01247B
:20370C004FEA41052D0E04D1002C18BF0020BDE8FC8144F00044FF2D5ED04FEA94040029FD
:20372C0048BF64424FEA00224FEA40031B0E05D1002A14BF0020081CBDE8FC8142F0004223
:20374C00FF2B4AD04FEA9202002848BF52425E1B41BF171C221C3C1C764248BF2B1C192EFA
:20376C0047BF44FA06F73A444FF0000803E0C6F11C0704FA07F8002A04BF0020BDE8FC814E
:20378C0046BF524201270027A3F101035200FBD512F080040DD002F0200548EA0508803210
:2037AC0028BF5B1C02F0400458EA040808BF22F480729B1CDCBF0020BDE8FC81FF2B0ED2AE
:2037CC0022F0FF024FEA42024FEA522040EAC35040EAC770BDE8FC8108464FEAD0774FEADB
:2037EC00C777FF204FEAC0503843BDE8FC8170472DE9F84F00298346009106DD0246009820
:20380C000021401E42F8041BFBD10098DFF8C880DFF8CC900028C8F800B012DD2F48009C74
:20382C000768002537F8020B38B1D9F80000AE003158002088474BF80600641E05F1010505
:20384C00F0D1284F41460120D7F80080C880B8F1000F22DD4FF0000A00980127002817DD09
:20386C00ABF104050446002655F8040FB0F1FF3F04D0D9F800107158884728600021B0F151
:20388C00FF3F08BF0121361D641E01EA0707EBD137B90AF1010AC245DEDB04A00AF076F8A9
:2038AC000D4900200860BDE8F88FC0467864632E72756E74696D652E537461727475703A20
:2038CC0020276D61785061737365732720657863656564656400C046C4250020B8F60000A5
:2038EC00BCF60000B4F60000F8B5154603784278384CC67842EA03228378120142EA231C97
:20390C000279238842EA06224079B4F90A60120142EA2012C3EB2210D210A2EB4302B4F99F
:20392C000230404353430213B4F904005043801300EBE32000EB8002803212120A60A11DEB
:20394C00B4F908404010A0F57A4082105243531373434443641004EBE3044FF4004303EB3F
:20396C00A4430C885C43E71332D0B1F90830B1F90A40D612584304FB06F2174BB1F9066063
:20398C0040F6354402EB4002300404FB1C3300EBA200021304FB1230C20F19BFB0FBF7F09D
:2039AC0040004000B0FBF7F0B1F91030B1F90E70B1F90C60C20884085243520B5A4307FBDA
:2039CC0004F35B1303EB2233F11800EB21102860F8BDC046B8340020000050C32DE9F0475F
:2039EC0006467468B5680AF023FFD4F88810002963D00BF05AF82968486820F00200486052
:203A0C002968486A20F003004862D4F8A07068692969084379680968C1F8040529684869BA
:203A2C0020F00100486128684FF00108C0F82080304609F087F8D4F88800D0F804900AF0F8
:203A4C00F7FE04F1D8078246387850B119F0704F02D1042008F048F8022008F045F80020AA
:203A6C00387050460BF021F8D4F88810087C042803D003200874D4F888102A696869D4F8CE
:203A8C00A0304746104307FA00F258680068C2622868B0F1804F14BF0A480B480F680068D4
:203AAC0000258204A7EB9250401E08603046A268C4F888509047BDE8F0870AF0F6FFBDE87A
:203ACC00F087C04608050020380400202DE9F0430646ADF11C0D0AF0F9FE07F08DFF4FF0C5
:203AEC0000090546CDF800900AF096FE30F0010002D00098A84202D16FF0040059E07068C7
:203B0C004C4658B1B0F1FF3F05D001A907F05CFF30B107464CE04FF0FF3000E020460190AF
:203B2C0009F0D8FC0199012701EB000800E001936868019900F086FC00282ED003A807F0DE
:203B4C00DBFBD8B99DF8100002A907F0BBFB88B9B368BDF808009DF81210059A984748B1AE
:203B6C009DF81270B773BDF80800B081059B33614F4612E00599684608F0CAFB0198641C2D
:203B8C00B0F1FF3FD4D00028D2D009F0A3FCB8EB000302D001989842C9D2009905F1080017
:203BAC0008F090FE24B1686804F0A4F9641EFAD1384607B0BDE8F083F0B5ADF1340DFFF729
:203BCC0083F9304908682822082340F00200086001A800210AF068FE2B4E2C490524002301
:203BEC0001AA079406F1C80007F0AEFA00213022082301A80AF016FE0025FF271921244ACD
:203C0C00ADF81C5001AB099706F14C00009507F083F82822082301A829460AF045FE1D49C1
:203C2C00079406F1FC0001AA2B4607F08DFA01A82946302208230AF0F5FD0124ADF81C40A9
:203C4C00099706F168001A2101AB134A009507F063F812492A4606F1A400134607F06EFD0D
:203C6C000F480AF04FFD86F8A3507571F57135727572B5727561B4714FF6FF70A6F8A0003C
:203C8C000DB0F0BD0020094010140020B1DF0000F9CF00009D4D0000F98F000059CD000011
:203CAC00B14600002DE9FE4F0CAF3D8883460E4608469846144601A908F00EFD012808BFDE
:203CCC0001205ED0BDF80400DFF8BCA042F6021100274FF0FF09401A40D048F2FF21401AC6
:203CEC002BD0401E13D0401E36D1002D32D1B8F1020F2DD1207806281DDAF06821880180F0
:203D0C002248F168884231D14FF0020931E00DBBB8F1060F1CDA207810280CDCF0682146BA
:203D2C00424601F0F5FFF1685046001D88421DD14FF001091DE0802718E05DB9B8F1100F83
:203D4C0006DCF0682146424601F0E2FFB94610E00D270BE00B2709E00A2707E000955846E8
:203D6C0043463146224605F083FE0746B9F1FF0F06D05046006818B1016809B14846884737
:203D8C003846BDE8FE8FC046241D0020201D0020BFB5384C0746401E3CD0354D401E21D023
:203DAC00801E012833D9801E02D0801E25D05BE028460AF083FB10B928460AF09AFEE068EF
:203DCC000A210022054607F04DFB002228460F2107F048FB00222846152107F043FB03F018
:203DEC0021FE41E028460AF069FB10B928460AF080FE00200AF052F836E008F07FFF04F117
:203E0C000C0000680A21012207F02CFB2CE008F075FF29E00F20052106F018F94FF44170E5
:203E2C006946FEF7C1FF9DF800009DF804308DF808009DF805108DF80E309DF801508DF84F
:203E4C000F109DF803008DF809509DF802308DF80D0002AA8DF80A3000208DF80C00082123
:203E6C008DF80B0002F0D4FA27700090BFBDC046A80500202005002098B535494468096843
:203E8C008068496800688847324A0121916140B1237AFF2B05D0FF214009217253D20421E3
:203EAC0049E0207A00284ED0401E17D0401E02D0FD3848D044E05368D4F8B4000370D4F88D
:203ECC00B400401CC4F8B400D4F8B8707F1EC4F8B8701CD0012F88BF09212CE0D4F8B0705C
:203EEC007F1EC4F8B07014D1D4F8B8707FB10220D4F8A8102072097C012F4FEA410141F09B
:203F0C00010142F8041C94BF03210B2114E004210FE0D4F8AC0000785060D4F8AC00022F45
:203F2C0000F10100C4F8AC0005D2D4F8B87017B9052100202072022011600AF071FD98BD58
:203F4C00FF20207298BD04F12C0006F06DF998BDAC010010042800403348F8B505780AF0B5
:203F6C0073F900284FD00120682103F031FA002859D02E4C0920211D012208700F466B200D
:203F8C0008F08CFA00283ED007202071394601226C2008F083FA002835D001261D203946F6
:203FAC002671324608F07AFA00282CD04020207139463246382008F071FA20B3C02020716F
:203FCC0039463246692008F069FAE0B125711F203946324608F062FAA8B1062020713946BA
:203FEC0032461E2008F05AFA68B129202071394632466B2008F052FA28B1E11C1C20324670
:20400C0008F04CFA10B90AF0DDFBF8BD3A20394632460AF030FB0AF0D5FB002020700449C9
:20402C00606907F049FDF8BD452100206C2200200700068038B50446084603F057FC0146E6
:20404C00182007F0DBF909F051FB80B200902C4840F2FF3200232C2105F09CFD0AF0FEF984
:20406C0001461C2007F0CAF909F032FB0146142007F0C4F909F052FE0146102007F0BEF934
:20408C00204603F0B9FA01460C2007F0B7F9204609F02CFE1B4D400040F02000287020466F
:2040AC0009F030FE40F010002870204609F022F90146282007F0A2F9204609F03BFE400082
:2040CC0040F06000E870204609F040FEC00040F0800005F8080C204609F044FE800040F479
:2040EC007C40A5F89300204608F06AF90146082007F084F94FF48000A5F20911086038BD53
:20410C0000A00C4049A10C402DE9F84304460AF08FFB81462D48021992F8ED10491ECFB28C
:20412C00002F82F8ED704BD12B4D05EB84052E78698836F07F0788461AD1F10911D24FF048
:20414C008054D4F8B801806901464046884704F5DC742068406B0146404688470228F8D16A
:20416C0021E000EB8800D0F80011002088471AE04FF08054D4F8B801006A0146404688475F
:20418C00D4F8B801806A014640468847D4F8B801006B01464046884701210D4A0D4811603D
:2041AC0001688908FCD306F03F003F2801D0FFF7ABFF687800F03F003F2801D0FFF7A4FF3D
:2041CC0048460AF072FCBDE8F883C046341900202820086028200840F8EC00002DE9F041DF
:2041EC0006460AF025FB2D4D8046A91991F8ED00421C002881F8ED204AD1294C04EB8604C0
:20420C00277807F03F003F2801D0FFF7E7FF607800F03F003F2801D0FFF7E0FF668837F080
:20422C007F001AD1F80911D24FF08054D4F8B801406901463046884704F5DC742068406BDB
:20424C000146304688470128F8D121E005EB8605D5F80011012088471AE04FF08054D4F8B1
:20426C00B801C069014630468847D4F8B801406A014630468847D4F8B801C06A014630469D
:20428C0088470121074A0848116001688908FCD340460AF00AFCBDE8F081C0463419002037
:2042AC00F8EC000028200860282008402DE9F84F0D46064628687468D6F80880002855D0C3
:2042CC000AF0B6FAD4F8881021B10AF0EEFB032028744BE001272F74C4F888500AF0E5FBEC
:2042EC0094F8A40038B194F88D202249D4F89C00114307F0E1FBD5F804A00AF099FA04F173
:20430C00D80999F80030834653B91AF0704F02D1042007F001FC022007F0FEFB89F8007063
:20432C0058460AF0C2FBD8F80010486840F0020048603046294600F051F9D8F80010486902
:20434C0040F001004861207830B9616804F16C05284600F077F810B13846BDE8F88F304619
:20436C00FFF73CFB2846002100F06CF80020BDE8F88FC04600000680294A2DE9F0418046C9
:20438C000126284816600768002FFCD0294C2A4FC020443C206007F1080001682348890867
:2043AC0004D20168090C41F0F00100E072211E4D85F85412002111638768384602F048FD81
:2043CC0040463946FFF736FE1C48B038816D40F20F226FF31F418A4212D901680068C1F307
:2043EC000363C0F3034003B15B1E072805D006280EBF0720801C00F00F0043EA0010287092
:20440C003846FEF739FC0E4814380068C1680220884740202060064F3E60BDE8F081C046D5
:20442C00101009409402224302600840AC3F00509404604244600C40A83F00506C130050F7
:20444C00B40100102DE9F0410D460646B5F1FF3FADF1380D09D045B12B496B4605A82A46CD
:20446C0008F0B0FC05A9022001E0002103200391264F8DF8100038682024EFF3118837184B
:20448C0084F31188708980BB002D04BF88F31188002036D00AF082F806460AF017FA029045
:2044AC00C0F818D007F098F9384669460AF0F0F99DF810000025022802D1039803F0B6FBB2
:2044CC0088F31188304608F091FCEFF3118384F31188039810B10AF02CFB039502988561A6
:2044EC0083F311889DF810000BE07089401E7081039818B10AF01DFB0020039088F311888C
:20450C0001200EB0BDE8F0818DC6000074F600002DE9F04115460446A869A060686A984630
:20452C000E4608B92A4800686062286A002806BF28480768071C0AF087F9EB69A3B90028EB
:20454C0008BF391C03D03F1841427F1E39400246E161606AE169434603F05CF92062206AF5
:20456C00B8B90120BDE8F081002804BF2362391C0BD01B1841425B1E01EA030020623F1AEF
:20458C00E869C019E061E0690140E1614FF0FF306062A6622869E06268692063A86A6063A4
:2045AC00A88DA087A08F012803D10B49C868401CC8602046414602F011FB0346404609F0AC
:2045CC00BBF9002814BFD81C0020BDE8F081C04688F600008CF6000028220020F8B58C4607
:2045EC0045688468DCF8007095F88C10B8B288401FFA80FE2068B0F1804F14BF244B254B36
:20460C00DCF80820244832B995F88C108E00815905F1A60207E095F88C108E00811951F88B
:20462C00081C7244521E99605A6021683A0143F6F077103A0831174019609A683A439A6041
:20464C002368B3F1804F14BF144A154ADCF804C0BCF1000F04BF805904F10E0605D0801959
:20466C0050F8100C0EEB0C06761E9060166051609068074397602169D5F8A0606069084370
:20468C00716809688862586A40F003005862F8BD000500203004002020EE000010050020BA
:2046AC0040040020042998B54DD1274C04F124000AF01DFA40B994F8A300400838BFE068A6
:2046CC0004D3D4F8880000E0C068E06041681F4A09781160416812680978914206D087691A
:2046EC0027B120A20CCA6FF0FF01B847022007F013FA1120FFF772FD0120E071E068011D4C
:20470C00007C10B16079012804D00E20FFF766FDE168091D08680E49083007680FB947689F
:20472C001FB10020C8610B4F0F600B4A40F2FF7000271060094C8F6109484C6109F0E2FFE1
:20474C00192005F04FFD98BD10140020D021084000100440510007060000046002000040A9
:20476C00F12F000000000000000000021EF0040F14BFEFF3098169468869EFF3118102B4E1
:20478C0000B5DFF89CE0F047284A116801EA000010605DF804EB1EF0080F03D101BC80F31B
:2047AC001188704704BC1EF0040F14BFEFF309816946A1F1200114BF81F309888D464A60C6
:2047CC004FF08070C8611A488861184B1868086040F201101860704702B401B4EFF314818B
:2047EC0000291CBF002282F3148802B402B4DFF834E0F04701BC01BC00281CBF022181F3D4
:20480C00148801BCDFF820E0F04704484FF08051016001BC80F3118800BF00BF04ED00E050
:20482C00F590000003EA0000B1EA0000C0220020E54700002DE9F8430646B0680D4600F138
:20484C00080874686868002710B9E868002850D02078012814D109F0EBFFD4F8BC1049B1ED
:20486C00D4F8C0108D61C4F8C0500AF01EF90120BDE8F883C4F8BC50C4F8C0500AF015F9E8
:20488C00022007F049F904F160004FF0FF318146FFF7D8FDD8F8000005F082FC3046294633
:2048AC0001F0DEFC0546D8F8000005F09BFC207888B9B5F1FF3F08D004F17C004FF0FF3105
:2048CC00FFF7C0FD207A48B110E003202072022007F00AF90AE0B5F1FF3F01D0012705E019
:2048EC000320207204F12C0005F09EFC484603F001FB3846BDE8F8831CB52E4C401E02D0B1
:20490C00401E44D01CBD09F075FF400931D32089FF2831D00120694607F086F8BDF80000BB
:20492C0010F07F0F18D0BDF800002081022003F015F909F089FCA8B11F48006841F28831EA
:20494C00B1FBF0F002F07CFD06F07EF8BDF8001041EA0020208105E0BDF8000020810020DC
:20496C0003F0FCF804F108020120022104F036F807E0FF20083420800120FF21022208F0A0
:20498C0049FD00201222014608F044FD1CBD02200DF1020107F048F89DF802104FF47A70EA
:2049AC002346484381B203F12800D98004F076FA1CBDC0464421002068F600002DE9FE4FC6
:2049CC000CAF3C8881460D4608469846164601A907F082FE012808BF01204CD0BDF80400A3
:2049EC00DFF898A042F6021100274FF0FF0B401A2DD048F2FF01401A31D0401E13D0401E56
:204A0C0023D104BBB8F1010F1BD1307848B1E9680870E9685646701C884220D14FF0020B48
:204A2C0020E080271BE074B9B8F1010F09D13078E9680870E96856468E4210D14FF0010BAE
:204A4C0010E00D270BE00B2709E00A2707E00094484643462946324605F00AF80746BBF186
:204A6C00FF0F07D05046001D006818B1016809B1584688473846BDE8FE8FC046401E00209D
:204A8C002DE9FE4F0CAF3D8881460E4608469846144601A907F020FE012808BF01204CD09A
:204AAC00BDF80400DFF898A042F6021100274FF0FF0B401A2DD048F27F11401A31D0401E8D
:204ACC0012D0401E23D105BBB8F1010F1BD1207840B1F1680870F16855468D4221D14FF0E3
:204AEC00020B21E080271CE07DB9B8F1020F0AD1F06821880180F1685546681C884210D189
:204B0C004FF0010B10E00D270BE00B2709E00A2707E00095484643463146224604F0A8FFD6
:204B2C000746BBF1FF0F07D05046001D006818B1016809B1584688473846BDE8FE8FC04661
:204B4C00501B00202DE9FE4F0CAF3C8881460D4608469846164601A907F0BEFD012808BFEE
:204B6C0001204CD0BDF80400DFF898A042F6021100274FF0FF0B401A2DD048F26F11401AFE
:204B8C0031D0401E13D0401E23D104BBB8F1010F1BD1307848B1E9680870E9685646701C2E
:204BAC00884220D14FF0020B20E080271BE074B9B8F1010F09D13078E9680870E968564622
:204BCC008E4210D14FF0010B10E00D270BE00B2709E00A2707E000944846434629463246F9
:204BEC0004F046FF0746BBF1FF0F07D05046001D006818B1016809B1584688473846BDE8FB
:204C0C00FE8FC046D01E00202DE9FE4F0CAF3C8881460D4608469846164601A907F05CFD69
:204C2C00012808BF01204CD0BDF80400DFF898A042F6021100274FF0FF0B401A2DD048F227
:204C4C003F11401A31D0401E13D0801E23D104BBB8F1010F1BD1307848B1E9680870E968AB
:204C6C005646701C884220D14FF0020B20E080271BE074B9B8F1010F09D13078E968087026
:204C8C00E96856468E4210D14FF0010B10E00D270BE00B2709E00A2707E000944846434632
:204CAC002946324604F0E4FE0746BBF1FF0F07D05046001D006818B1016809B158468847D9
:204CCC003846BDE8FE8FC0468C1C00202DE9FE4F0CAF3C8881460D4608469846164601A91C
:204CEC0007F0FAFC012808BF01204CD0BDF80400DFF898A042F6021100274FF0FF0B401AB1
:204D0C002DD048F21F11401A31D0401E13D0401E23D104BBB8F1010F1BD1307848B1E968DC
:204D2C000870E9685646701C884220D14FF0020B20E080271BE074B9B8F1010F09D1307865
:204D4C00E9680870E96856468E4210D14FF0010B10E00D270BE00B2709E00A2707E00094BF
:204D6C00484643462946324604F082FE0746BBF1FF0F07D05046001D006818B1016809B1D0
:204D8C00584688473846BDE8FE8FC046B01D0020F8B509F04DFD2A4C0746103CD4F89C0090
:204DAC0010F4602F2BD0D4F89C00400CC5B2680807D2A80803D2E80828BF022502E001255A
:204DCC0000E000256E1D70B204F03AF9D4F89C3005F111010120884023EA00013846C4F81D
:204DEC009C1009F062FE04EB8500D0F88C704FB1D4F8880013A20CCA3146B84702E03846B5
:204E0C0009F053FED4F89C0020B104F1FC00002109F010F994F8A30080080FD3D4F8987082
:204E2C0037B1D4F8880009A20CCA6FF00101B84794F8A30000F0FD0084F8A300F8BDC04653
:204E4C0020140020000000000000000800000000000000802DE9F0412D4C0546A41C207807
:204E6C001F4690460E46ADF1380D012803D0FEF7A3FE012020705EB1B8F1000F6E6007D005
:204E8C00C5F8088009F0D4FC617819B109F00DFE002038E0491CC9B2617009F006FE012446
:204EAC001FB9684609F0B2F96F46386828607868E860387A2874F8686861386900B1A861E5
:204ECC000021782205F1200001F088FF05A800212422082309F0E2FC8DF82C4005F1380048
:204EEC00002105AA06F080FF05A800212422082309F0BCFC05490B9505F17000002205AB4B
:204F0C0006F01CFC28460EB0BDE8F0814BEA0000101400202DE9FC470AAF3F8882460C46C9
:204F2C0008469946154601A907F0D6FB012808BF01204AD0BDF80400DFF8948042F6021151
:204F4C00FF26401A2ED048F26311401A012827D827BBB9F1010F1FD1BDF804104AF666207D
:204F6C000027884202D12978032913DA2978E2681170BDF80410884205D0E168404688423A
:204F8C0018D13E4618E0E1684046401C884211D1012611E080270DE00D270BE00B2709E0E3
:204FAC000A2707E0009750464B4621462A4604F05FFD0746FF2E07D04046001D006818B1C3
:204FCC00016809B1304688473846BDE8FC87C04640200020F8B509F0D7FB09F0E1FB04469A
:204FEC0004F00C000C2845D0E0081ED207F01CFB234E376805460120014608F0D9FA31684F
:20500C006943884211D21F4C8220B0FBF7F0291A204609F092FD204609F07EF80120FCF772
:20502C002DFC204608F066FA25E0200922D21648610939BF016821F00101016841F0010183
:20504C0002460160D2F898004FF0805440F00300C2F89800D4F8B8018069014620208847DD
:20506C00D4F8B801094C806B2168804701202060206800E030BF09F08DFB02F06BFCF8BD88
:20508C0068F60000401900208C2108402C2009402DE9FF4707F052FC2A4C4FF0FF3104F128
:2050AC000C0000F0FBFC2448244D066824484FF47A77B5FBF6F8B0FBF6F938E0012007F09E
:2050CC0069FD404602F0BCF902A805F063FC8246002007F05FFDBAF1000F1CD002A801A9FE
:2050EC006A46FEF701FC9DF805308DF809309DF804208DF808209DF806008DF80A009DF855
:20510C0002108DF80D109DF801308DF80C309DF800208DF80B200020062102AA03F09EF867
:20512C0060887843401BB0FBF6F002F089F960780128C3D04846F8E768F600008038010048
:20514C0040420F00F40B0020F8B50D46EEB2290824BF26494D40264BB400195985EA0102DA
:20516C000240C2F3006C234A00EA05078143FF323A4000F4E0270A43B7F5E02F01D1510EBA
:20518C0015D300F4E0215CEA010710D002F4E027B7F5A02707D0B7F5803704BF22F4003243
:2051AC0042F4A02203E022F4803242F4C0221A51114CC10D04D3A4F18001C5F380528A553C
:2051CC00000E11D309F034FB290E03D201210022B14002E00121B1400A46503423688B4346
:2051EC001A43226009F061FCF8BDC046006000A000100840007F077F802002407FB505F04B
:20520C009BF8041C46D04FF4802010216A4604F03AF8041C38D00098204E410F01D08642B8
:20522C0000D200241E4901981F4D814204D829465639814202D226E0000B24D124B319488E
:20524C0010216A4604F01FF8041C1DD00098410F01D0864200D200240198010B13D02946DB
:20526C00814210D384B103F043FE104D064610214FF4F4202A4604F006F828880024B042BA
:20528C0008BF012404E000244FF4F42003F014F806F052FB204600907FBDC04600500020CD
:2052AC0001F0010010100400FFFF01006831002070B5294C294D012806D028BB214600209B
:2052CC00491C08F05DFF1FE02146012008F058FF0878022811D0491C002006F075F8286830
:2052EC000A210022064606F0BDF8002230460F2106F0B8F807F076FC06E009F07BFA48707B
:20530C00491C002006F060F821460878012822D1286861780546490834BF002201220A2143
:20532C0006F0A0F86078800834BF0022012228460F2106F097F86078C00802D207F052FC5F
:20534C0004E0284605F0BCFB05F0D8FB6078000901D302F09BFB70BD542500202C05002027
:20536C00B0B5294C6078410809D320F0010060700A20014604F06AFE05F0FEF86078234D69
:20538C00810807D320F002002F786070062F01D103F000FC2078A178884232D007F0BEFBF2
:2053AC00A7782078790803D341083CBF0021A180B90803D381083CBF0021E18029780229E4
:2053CC0003D108F06BFDA7782078B90808D3810806D22978062903D003F0DCFBA7782078B5
:2053EC0010F0030F0DD067B904F10800054609F065F828B9284609F07CFB0020E080A08095
:20540C002078A070B0BDC046C4230020200500202DE9F0410E46294990461C4606AF8C464D
:20542C0072680878BB8851783F881278002502EB012242F62321521A29D0521E052A18D903
:20544C00921F0CD0263A34D1072F30D8C7F10700984298BF83B2674407F1080121E0B84244
:20546C0025DBC01B9842D8BF83B22380DCF804000BE0F06808F038FF80B2B84217DBC01BB9
:20548C009842D8BF83B22380F06839180AE0082F0DD8C7F10800984298BF83B207EB0C01E3
:2054AC000F31238040461A4600F032FC03E0072501E025800A252846BDE8F081401600203B
:2054CC002DE9FC4707F012FA274E0024B4704FF6FF70B08205F090FD244F224630700120A3
:2054EC0039461346009006F1A80004F0B7F94FF00208224606F1CC003946CDF80080134664
:20550C0004F0ACF90425224606F1F00039460095134604F0A3F906F1480910224846214602
:20552C00F57001F05BFC06F1580A10225046214601F054FC06F120073C603472072074727C
:20554C001021B0724A46F472404606F08FF803201021524606F08AF828463A46014606F064
:20556C0085F8BDE8FC87C046D808002009DF000038B504464A78284D087800EB0220ADF8EC
:20558C0000006A88BDF8000090423AD1BDF80000891C000108F01CFE6888AB88401C81B25C
:2055AC0069808B4229D103F05FFFE0B12046002102F064FD07F0F6FC29780843287006F010
:2055CC0053FB08F07FFA90B12878410805D3AB692146032000229847287810F0060F06D0D4
:2055EC0008F054FF03E02046012102F047FD00242C7008F0C3FB6C8038BD204602F070FF95
:20560C0038BD00206880287008F0B8FB2046032102F034FD38BDC04614180020FEB5FCF7A4
:20562C003DFC274C002504F1880608F035F800282FD1009501A80DF106016A4606F091FC47
:20564C00D0B9BDF80400102807D160789DF80610884202D1009809F0C7F8009860B108F0DB
:20566C00E5FA09E0206908F0D3F9071C04D008F09FF8384608F086FA206909F02DF80028BE
:20568C00F0D0FFF76DFE02F0D1FBFDF7B9FE08F0EFFDA088C1080FD320F004002778A080EA
:2056AC00022F09D1304609F024FA2078022803D10F20012104F0CAFC04F07EFFB5E7C04692
:2056CC00200500202DE9F84F804608781C4616460AAF022831D02348DFF88C90D1F804B059
:2056EC008569102282464946584607F041FD002740B9002D33D08AF8014001204146324621
:20570C00A8472CE009F110015846102207F030FD10B925B30220F1E709F1200158461022FD
:20572C0007F026FD90B9012C05D13078002818BF8AF80A0013D1802711E048684278007866
:20574C0042F6021500EB0220854201D00A2706E0388832460090404604F08AF907463846A2
:20576C00BDE8F88F14180020B8EC00002DE9FE4307F00CF9254C4FF0FF3104F10C0000F0DD
:20578C008DF923481F4D06681F484FF47A77B5FBF6F8B0FBF6F92FE0012004F02DFF404689
:2057AC0001F04EFE0DF1060001A902F0A3F9002004F022FF0020694607F06CFDBDF8060045
:2057CC00BDF80210401AB8BF4042082808DABDF80010BDF80400401AB8BF4042082804DBB1
:2057EC0001AA0020042102F0C3FD60887843401BB0FBF6F001F024FE60780128CCD048462E
:20580C00F8E7C0463832040040420F005C11002068F60000264838B550380468B4F1FF3F7B
:20582C0008BF002408F0CAFC22481749002510380560012008601549086003F0C5FD1448B7
:20584C00006820B1134800682046FEF795FD124812490560124C0A686FF35B4244EA02003A
:20586C00086010490868C0F30130012806D10A680D48104040F400320A6008600B490868F4
:20588C000028FCD138BDC0465C600C400822044380012843000120438C21084048200340A3
:2058AC000000390104000940FFFFFCFC0C0068426C130050940460422DE9FE4F0CAF3D88BD
:2058CC0081468B4608469846144601A906F004FF012808BF01203DD0BDF80400DFF878A035
:2058EC0042F602110026FF27401A21D04AF2C031401A0BD0401E19D1B5B9B8F1010F11D107
:20590C002078DBF80C10022708701BE065B9B8F1080F07D12168656850460E3001600127EF
:20592C0045600FE00D260BE00B2609E00A2607E00095484643465946224604F099F80646F4
:20594C00FF2F06D05046006818B1016809B1384688473046BDE8FE8FF41B0020B0B501467D
:20596C008B681C68E26948682262520824D2D0F8A01049680A685D69D2F80415294206D050
:20598C001C68616A21F002016162C2F80455D2F8042519690A4230D01A68516A21F00101B1
:2059AC005162D0F8A0205268196912683830C2F8041504F039FCB0BD1C68626922F00102B5
:2059CC006261D0F88870AFB9626822F0020262601C68626A22F003026262D0F8A0005A69D8
:2059EC0040681C6900682243C0F80425084607F0A9F8B0BD0846FDF7F1FFB0BDF0B52048C1
:205A0C000127F84201D003F0C1FF204D204F214EBD4206D203CD0478A4003459401CA047B2
:205A2C00F6E71D48002800D08047164D164FBD4202D210CDA047FAE7F0BD03251BE04168A0
:205A4C0008300A1C2A400BD11A1C2A40AB4305D0046804300C600431043BF9D1131C05D0E5
:205A6C00047801300C700131013BF9D1021C2A4001D0A84304300368002BE0D17047C0463D
:205A8C00FFFFFFFF0000000000000000A4020100D40201009C020100659500002DE9F0479A
:205AAC000F46064608F07AFDEFF311898246202080F31188D6F80880474533D01D481E4B87
:205ACC000468002F05D49C690125BD4004EBC70401E0E4180025307D01281AD1304608F033
:205AEC0002FE306C08F0F8FD18B1F1685868884358601869864204D02046314608F0C8FEF4
:205B0C0004E020685C61314609F01DF8586828435860B760F5603464002F44BF00205861D9
:205B2C000120188189F31188504607F05FF94046BDE8F0877CF60000282200202DE9FF41D1
:205B4C00244D8046681C00780E46082814BF04240024084604F070FC684601F02FFFA4192B
:205B6C000026E178A0786E8000EB01202E7080106946A880204602F085FC18B3204608F081
:205B8C006CFDE861000BE88008F004F9A8B1E888A988C4B200EB2120C7B2A74208DB3F1BA4
:205BAC007F1C204608F03FFF641CE4B27F1EF8D14046314602F094FC08E04046022102F024
:205BCC005DFA03E04046694601F07EF90090BDE8FF81C04614180020B0B5244C2278E18803
:205BEC009308084603D3491C401CE18080B2A18852080F4603D3491C7F1CA180BFB2062F11
:205C0C0011DB06280FDB04F10800054608F056FC58B3284608F06FFF0020A080E08060788B
:205C2C0040F001001CE003280BDA38431DD104F10800044608F042FCB8B1204608F05BFF14
:205C4C00B0BD97B904F10800054608F037FC60B1284608F050FF0020E080607840F00200B8
:205C6C0060700348006802F045F9B0BDC42300202805002010B50020442101F0A9FB00289D
:205C8C0008BF002440D0214C1F200222214608F0F2FC002835D021880806000C40EA212085
:205CAC00782815D11020208021460220024606F0F5FB30B302202146024608F0DCFC00B394
:205CCC0021880806000C40EA2120B0F5805F01D0208016E00020208021460220024606F018
:205CEC00DDFB70B102202146024608F0C4FC40B121880806000C50EA2120208008BF01245B
:205D0C0000D0002408F05EFD204610BDEC340020002A4AD05FEA000C8B071CD1830722D128
:205D2C00102A08D370B4103A78C978C0103AFBD270BC103238D0042A2CD3082A05D30C2A61
:205D4C0024BF08C908C008C908C008C908C092072AD0920F22E00B780370491C401C521E2C
:205D6C0022D08B07F7D1C30714D18307D8D0121F12D308C903801B0C4380001D121FF8D27E
:205D8C000AE008C903701B0A43701B0A83701B0AC370001D121FF4D2121D05D00B78037073
:205DAC00491C401C521EF9D1604670472DE9FE4306F0D8FD234C4FF0FF3104F10C00FFF788
:205DCC006DFE1E4806681E4843F698254FF47A77B5FBF6F8B0FBF6F92BE006F049FB4046E5
:205DEC0001F02EFB01A80DF1060104F0EBF80020694607F0EFF9BDF80400BDF80010401A72
:205E0C00B8BF4042142808DCBDF80210BDF80600401AB8BF4042222804DB01AA002004216F
:205E2C0002F0B0FD60887843401BB0FBF6F001F007FB60780128D0D04846F8E768F60000C9
:205E4C0040420F00A80E00202DE9F843224D884606464FF0FF3105F124008146FEF7F2FAC4
:205E6C0000200CE0FF2909D02A688A4204D905EB8101D1F894700FB1002627E0401CB8F19D
:205E8C00000F03D018F82010FE29EBD10024346074600127B46011E0FF280ED005EB8000C3
:205EAC000B787268C0F8946007FA03F0104370600A680A49304606F0AFFA641CB8F1000FA4
:205ECC0004D008EB84010878FE28E5D1484602F011F83046BDE8F88358300020007FC7679A
:205EEC002DE9F8432020EFF3118780F31188214CA068012108F015FE4FF001094FF000084D
:205F0C0065692168A4F81C906A1A2168A4F81E80461B401A904227D387F311884046451911
:205F2C00361A4846294601F083F8B042F7D92021EFF3118781F31188E18B012903D1404622
:205F4C00294601F075F8B0F1FF3F06D0A169801B814238BF081C411901E0A069291807F0B4
:205F6C0097FCA4F820902560A4F81C8087F31188BDE8F8831C2400201CB50020772101F06C
:205F8C0027FA002808BF00243FD0D0206946012208F071FB002835D09DF80000582831D148
:205FAC00F5206946012208F066FB00282AD09DF8000038BB55208DF8000069460122F4200B
:205FCC0006F06CFAF0B1F4206946012208F053FBC0B19DF80000552814D1B6208DF80000C9
:205FEC0069460122E02006F059FA58B1F4206946012208F040FB28B19DF80000002808BFFB
:20600C00012400D0002408F0DDFB20461CBD70472DE9FE4F8046B8F1000F01920C980291EA
:20602C009B46009005D0081C03D0101C01D0009810B90220BDE8FE8F1948017800252C46F4
:20604C0029E0A00038F800A04FF6FF7708EB000657451CD0B778D7B10198029A594608F0FC
:20606C0088F95FEA000912D0780806D3009B504601214A4601F062FB0543B078800806D304
:20608C003088009B02214A4601F058FB054304480178641CE4B2A142D3DC2846BDE8FE8F55
:2060AC00D8080020F8B50F4601464C688E683846203804F10C0432D0401E2CD0401E27D154
:2060CC0020781578012814BF19491A49FF2D41EA05011BD0D4F8900001F076FE98B93068DC
:2060EC00B0F1804F14BF23220B22D4F89000294606F07CF9D4F8900094F8811002F0C6FC7C
:20610C0084F8815012E04FF0FF30F8BDFF25F1E76FF00100F8BD002084F89800F8BD21787E
:20612C000020012908BF012084F898000020F8BD0004C0A00020008038B5234D401E02D0A7
:20614C00401E30D038BD08F055FBC00823D32C78FF2C22D00120694607F0DCF89DF80000E9
:20616C0068B9A4B105F1080008F0C5FC002005F03DFF00200222014607F0E4FE07E034B95D
:20618C00012005F033FF05F1080008F0B2FC9DF80000287038BDFF2028700120FF210246A5
:2061AC0007F0D0FE38BD0220694607F0B3F89DF800102C464FF47A70484381B204F10800A7
:2061CC00618002F06BFE38BDF0230020FEB5044622481646089FC069618250F821201C48EC
:2061EC0000681D4690420DD01B480068009000220191184E029231888F23384607F0AAFB8B
:20620C000120FEBD084603F0CBFFA66068696060286AB0F1FF3F08BFFF2020740026E6609D
:20622C00288B00280EBF301C0120E0600146A88C10B141F00200E060204602F0D7FC0346DA
:20624C00384607F079FB002814BFD81C301CFEBD54F60000F4F6000040F60000A022002007
:20626C0080B5406800F10802C0F8A8100868C2F8A4004868C2F8A8008868C2F8AC00C86864
:20628C001A49C2F8B000D2F8A87097B9D2F8A000007C400040F0010041F8040C02201070B1
:2062AC000B68DB0917D2D2F8B020022A17D30B2216E0D2F8A000007C0127400041F8040C28
:2062CC00D2F8A4001770431CC2F8A430007848600868C00902D34FF0FF3080BD02200322B0
:2062EC000A6008F09DFB002080BDC0460428004022482DE9FE4F801E028880465FFA92F132
:20630C00100100F47042801A1FFA80FBB8F80200C5B241185FFA81FA0021AA45019124DB95
:20632C00AAEB0506761CA8420CBF04240024AA45D8BFA34513DD284621466A4608F008FB40
:20634C000427E94619F8011B019805F05DFC7F1E0190F7D1241DA4B2B4F5805FE7DBB8F83C
:20636C0002006D1C761EEDB2DDD10198002105F04BFC002105F048FCBDE8FE8F1A180020D1
:20638C002DE9984308F054FA1F4CDFF87880814604F1E000007850B94446A0680146022068
:2063AC0088470746102003F0CDFC2FB320E002F00DF8002820460FD1144909683222B2FBB3
:2063CC00F1F101B9012100F13004204608F0B5FB204607F0A1FE0FE044460022A16880F8A8
:2063EC00E020022088470746102003F0ABFC1FB1A068014603208847484608F056FBBDE8FC
:20640C009883C04698F400003419002068F60000F8B50D461F4C20490728164638D8DFE8C2
:20642C0000F0192C2A2826242104284606F002FF071C2DD0616804F11700884202D060689C
:20644C0007F0C4FB384631462A46FFF761FC67602570F8BD082D1BD130680F342060776856
:20646C006760F8BD0C46153408E00C4606E0643404E04F3402E03A3400E0253420460021CA
:20648C00152200F0ABFC204631462A46FFF740FCF8BDC04640160020B91600202DE9F0413C
:2064AC0007467868051DD0F8BC00A8B308F0C0F91A4E00248046F46004203060022008F07D
:2064CC00AFFA2B68D5F8A410384622469847022005F00AFB09E081692B6822463846C5F809
:2064EC00B8109847022005F0FFFAD5F8B800D5F8BC108142EFD12046C5F8A4002C71C5F817
:20650C00B800C5F8BC00064B346038461C6003F0F9FA404608F0C9FABDE8F08104280040B6
:20652C001004054270B51E4DAC68064607F0AEFB4FF47A71001B4843030C06F077FA296988
:20654C00401A48BF404240F6B8319B19994210D306280EDAE9688C420BD8286848B1114ABF
:20656C00091B51438A0C02EB1141884288BF011C08E00D49486840080ED208687D2100F040
:20658C00FF004143C82905D3B1F57A6F88BF4FF47A6103E0C82101E04FF4FA61084670BDE9
:2065AC00D034002040420F00AC3F00501CB5204C401E02D0401E2ED01CBD08F01BF9000928
:2065CC001DD36078FF281DD00120694606F048FC9DF8000030B19DF80000012817D101218B
:2065EC00617007E0002006226070014607F092FC4FF0FF3104F10C00FFF750FA07E0FF203D
:20660C00641C20700120FF21024607F083FC002006F0C0FA1CBD0220694606F021FC9DF83D
:20662C000010A41C4FF47A70484320801CBDC046F40B00201FB5204C002834D0012822D0A1
:20664C00022837D1022002A904F05AFF21467E209DF80920C8619DF808404A76052C0C76A6
:20666C0014BF022004208876887E01F11C048DF8080021680DF1090302AA01201960052153
:20668C0004F04CF916E00120694604F039FF9DF8000021460DF10102144601F11C0388765D
:2066AC002168196006E021460020203104F028FF03F0D8FB00901FBDD42200202DE9FC4158
:2066CC0008AF38881D4690460E46002818BF0B2033D10846694605F0FFFF012804D100206E
:2066EC0028800120BDE8FC81BDF800004AF601410024401A16D0401E0BD0401E1CBF2C80EA
:20670C000A2419D102202880F06800884146088012E005202880F068026841460A600079B1
:20672C00087109E006F02CFC0548083002782A80F1684046FFF7ECFA2046BDE8FC81C046DB
:20674C00201D002010B58B4201D1824233D052EA000404D143EA01046400002C2BD052EA97
:20676C00430401D18C4226E05C006415641C07D14C006415641C03D1CC0FB4EBD3741AE01F
:20678C0000290CD4002B16D48B4214D192EA000401D482420FE000280DD101240BE0002BD4
:2067AC0009DC994207D192EA000401D4904202E0002A00D10124EFF3008454BF44F000540B
:2067CC0024F0005484F3008810BDFEE7F8B5001D84B214F0030002D0241A241DA4B207F0EF
:2067EC00F0F801461948102C47680160C8BF8768388800221646C30BDD0319D126B98442C0
:20680C000ADD3A46012617E01388C3189BB29C42138011DC174618469FB1001B80B2042842
:20682C00B4BF3C88385344F400443C803F1D08E080F40040002680B2C71938880028DAD18F
:20684C000027084607F03CFC3846F8BD541A0020B0B50446A768ADF1280D27BB0C20FFF732
:20686C00B5FF071C16D0684600212422082307F0FDFF002306976A466168ADF810301448A2
:20688C00059304F045FC386038B907F00EFC384605F04CFC6FF0030018E0E06878602069D7
:2068AC00B860A7600AE007F08CF80546386806F021FE2069B860284607F002FC38686168DB
:2068CC0008F03BF9386807F027FC00200AB0B0BD59E70000B0B514460F4607F0A9FF85B255
:2068EC0019480068007808B906F08CFF87B1384605F01DFF40B114B14FF0FF302070082066
:20690C00FDF702FC002419E038687968BA6803E04FF480700122014605F0B6F80B49012021
:20692C0008600B4908684008FCD30A4800684168022088470CB1002121700446284608F095
:20694C00B4F82046B0BDC046A8F40000A802504208800240CC010010F8B51F4C0546207E26
:20696C00012802D9401F1FD023E0012803D107F06BFC061C0DD0207E617E00F029FD061CA7
:20698C0007D0207FA27E294607F075FE064607F019FF012E0DD0FF210020A27E824208DD0C
:2069AC002954401CC0B2F8E7E169A27E2846FFF7AFF9A67E241D28463246214606F0D8FBB0
:2069CC00002700B1012727B1204629463246FFF79FF93846F8BDC046D4220020F8B50E46A8
:2069EC00044607F0C3FD0546304605F0F1FD071C03D1284604F0D6FE26E0F87F10F0070F26
:206A0C001BD113487968884202D079682166786010A090E8060004F15807284687E8060001
:206A2C0004F0C0FE04F138004FF0FF31FDF70AFD04F1680696E80300F8BD284604F0B2FE56
:206A4C00F87F10F0070FFBD102200021F8BDC046C594000002000000000000701CB51E4CCD
:206A6C00401E02D0401E2BD01CBD07F0C3FE40081AD36078FF281AD00120694606F00AFC06
:206A8C009DF8000038B900200422014607F066FA4FF0FF3100E0012104F10C00FEF7FEFF1C
:206AAC009DF80000607007E0FF20641C20700120FF21024607F052FA002003F09DFD1CBDFD
:206ACC000220694606F0E6FB9DF80010A41C4FF47A70484320801CBD5C11002070B507F0C3
:206AEC00B3FB002832D003F017FB88B301200C2100F06EFC60B3184C0F20211D012208704B
:206B0C000E460A2005F0CAFC1248006842F21071B1FBF0F000F094FC1020032204F10E0154
:206B2C0007F0A9FD06F10A0550B128786B78AA788030208103F18000608102F18000A081C6
:206B4C0001220B203146227105F0A8FC07F03AFE70BDC04668F600006C220020B0B5174905
:206B6C001C481D4A0F68C0691549C2F8080DD2F8083D99420ED06FB1124B1B6800240F2C4A
:206B8C002CBF1D1C0D68091D641C05607F1E00F10400F4D10D48D2F80C7D0B4D0168202441
:206BAC0027F47F4000EB01202918C2F80C1D084B82F8224D1868C2F8140DB0BD44F6000081
:206BCC001010000054F600000000FA0558F600004CF60000A022002000E000E070B50D4696
:206BEC001B4A1A4904462B4605F05CFA2061284606F0A2FE40BB184801220021A56803681F
:206C0C0022751448A161002D18D4A1688A408069A168E26007F030FE206407F0BFFCEFF316
:206C2C0011850646202080F31188204607F00EFA85F31188304606F0D9F805E0E160C01869
:206C4C002146206406F04EFE002070BD29D900009BAD0000282200207CF60000F8B50E4687
:206C6C0005461446A969EA691F462046FFF750F864602FB1EA6920463946082303F016F9EC
:206C8C00E468D6B9E8686969AA68079B07F030FE071C08BF002020D007F01EFE696839609B
:206CAC00696849687960696849680F6069684F6007F07CFC07F1080605E06A693046002138
:206CCC00083A00F08BF82868B0F1FF3F18BF3060286908B1616831503046F8BD1CB51D4C24
:206CEC00401E02D0401E28D01CBD07F083FD80081AD36078FF281AD00120694606F06AFA2A
:206D0C009DF8000038B900200422014607F00EF94FF0FF3100E0012104F10C00FEF7BEFE33
:206D2C009DF8000060701CBDFF20641C20700120FF21024607F0FAF81CBD0220694606F0C8
:206D4C0049FA9DF80010A41C4FF47A70484320801CBDC046A80E00201CB5042006F0AAFCE1
:206D6C00022818D0032816D016480068C0F38150032814BF41F288324FF47A721248144CC6
:206D8C00016854342046B2FBF1F107F0D6FE204607F0C2F91CBD03200C4C009000214FF0DA
:206DAC0040521C23204602F0F5FE012000214FF4007209230090204602F0ECFE022004F0A0
:206DCC0093FE1CBDB43F005068F6000000A00C4034190020002213460A46194671B510F0F3
:206DEC00030F0BD0002A82BF00F8011BB2F1010210F0030FF6D1002A08BF71BD11F0FF017C
:206E0C0041EA0121042A18D341EA0141082A0FD30E46102A08D30C460D46B2F10F0312F0BA
:206E2C000F0272C0103BFCD812F0080F18BF42C012F0040F18BF40F8041B12F0020F18BFC5
:206E4C0020F8021B12F0010F18BF017071BD70470246184808B50068C0F3046007F0EFFBED
:206E6C0000EB2270401C162805DA10F10A0FB8BF6FF0090000E015200F49104B00F01F0040
:206E8C0040F4F85008801868800803D20C490020086001E042F040620A49D00E930E80F031
:206EAC00010000F00100086083F0010000F00100886008BDB81200506E62084000000940DF
:206ECC0094042A4300002043FEB51C4D0C462D1FE968064607F092FA40082CD3304608217E
:206EEC00002206F0A1FB0746019727B32A4602F120001021083207F03CFA08254089ADF85D
:206F0C000250ADF8000022783A702188019809124170A17881706188231D0912C17019681C
:206F2C00051D30462960694606F03EFD18B168461B2106F087FB06F021FFFEBD18180020F8
:206F4C0010B51C4C00202070FEF794FE18B1207840F00100207000F0D1FE18B1207840F04F
:206F6C0002002070FFF708F818B1207840F00800207002F019FB18B1207840F00400207029
:206F8C0001F00AFB18B1207840F01000207003F0D3FA18B1207840F02000207007F0E0F9ED
:206FAC00002808BF207803D0207840F04000207010BDC046083500202DE9FF411B4C0E4692
:206FCC000546F03C7188E08A81420CDCB188814209DBF088218B884205D13089618B88420D
:206FEC0008BF18271DD0052003F0C6FB7788B388ADF80270F288ADF804303189ADF8062090
:20700C008046ADF80810A08AADF80000684607F08BFB071C05D1A57304F1F000414603F077
:20702C0097FF38460090BDE8FF81C046C80900202DE9F04780461A481A4C0068241820469F
:20704C0007F07FFD0E464FF0FF374FF0000A814621E04D46284607F078FD8146A88A012848
:20706C0019D1B8F1010F0ED1E86886420BD12869002808BFA5F814A002D0E9684018E860FA
:20708C00A969E8698847A88A012804D1E868801B874288BF071C4C45DBD13846BDE8F0878D
:2070AC0064F600001C24002038B5054601201A4C68712879B0B906F084FC2178002904BF6D
:2070CC006FF00704051C15D0491EC9B2217039B906F0F6FF606804F0FFFE0020687118E03A
:2070EC00054613E006F06DFC05462078FF2805D16FF00604284606F0E3FF0BE0401CC0B29F
:20710C000128207002D1606804F0FDFE284606F0D7FF0024204638BD4C25002070B5064665
:20712C00B079F5680B28A5F108052CDA30790B2829DA06F046FC154CB27991000C3401EB81
:20714C00C20161184968E1B106F0BAFF30792870B0796870307AA870B179880000EBC10093
:20716C002018F1684068083005F0D2F8B179880000EBC10024186068406800F0BBFE002000
:20718C0070BD06F09DFF6FF0020070BDC01A002038B519491A4C00204822C1F8F30F94F816
:2071AC00E200C1F8FF2F20B3012817D0022807D003281ED151F8310C00F05EF80B2016E00F
:2071CC0051F8315C2846FAF75FFF40F2FF50A84202D8801CA842F1D2082008E051F8310CEC
:2071EC0001F00CF8054800780028E7D0052084F8E400FBF7D9F938BD39400C40A6F400004D
:20720C00341900202DE9FC411A4C4FF0050804F11400002604F11C052860102284F81880DD
:20722C0004F120076676314666610420A0763846FFF7D4FD102130463A4603F06FFBA07EEB
:20724C008DF8000029680DF101006A4601600120414603F063FB207E8DF80000607E6A4652
:20726C008DF801000220014603F058FB05F088FEBDE8FC81D422002038B51A4CA0F5C06012
:20728C00D4F8B810C4F8D4000029B8BF49420028B8BF4042814220DAB4F8BC00124D30219D
:2072AC004FF47F4208230090284602F073FCB4F8C00004214FF4F80212230090284602F041
:2072CC0069FCB4F8D00020214FF440620A230090284602F05FFC012000E0002084F8D800AE
:2072EC0038BDC0463419002000A00C402DE9FC4117460E4605464FF0020802F0CBF918BB0D
:20730C0004F0E8FE00BB05F0FF04C4F58074B44288BF341C8DF800808DF80350280C8DF804
:20732C000100280A8DF8020006F0CAFF6846042104F052FC361B651920B93846214604F032
:20734C004BFC20B106F0B2FF0020BDE8FC8106F0ADFFE719002ED0D10120BDE8FC81FEE787
:20736C001A4898B5D0F8781203680F0F03F0FF03802B28BF002302F0E9FB4FF0FF3478B15C
:20738C00401E07D0401E012802D9801E19D01AE0BFB118E0381C12D0801E14D1143311E070
:2073AC003846401E0BD0801E07D0001F03D0401E09D1163306E0152405E0142403E00A24D5
:2073CC0001E00A335CB2204698BDC046A010005070B50D461549194C134A09680646241F1C
:2073EC0004F11400B2FBF1F1FDF72CF8002808BF002017D00E4805700E4D20682978B14299
:20740C000CD02E7007F08BFA06F08CFB2878012804BF0948206105F047FD2060002100B104
:20742C000121084670BDC04620A1070068F600000535002004350020F2F600002434002064
:20744C0070B5021CADF1380D2ED0184904A86B4605F0B8FC2024EFF3118504A8039084F323
:20746C00118807F09BF8064607F030FA029004F0B3F9039800F0DAFB684607F022FB029882
:20748C00C0F818D085F31188304605F0AFFCEFF3118384F31188039807F04BFB0021039106
:2074AC0083F31188029881610EB070BD85DA00000CB44FF07F4343F460034FEA4102D21A28
:2074CC001BD24FEA105040EA013010F5807024BF400801F580114FEA5020002948BF40F00F
:2074EC0000404FEA4101490DB1F560710CD4FF290DD240EAC1500CBC7047DB431A4002439A
:20750C0005D0D8430CBC704700200CBC704701F00041FF204FEAC05008430CBC7047704736
:20752C00B0B5ADF1400D07F039F8044600213C220823684607F0C4F91148416806918168EF
:20754C0000680490104818380068002205900D480891694602F0ACFE071C0DD006F031FA02
:20756C000546384602F0BCF830B1284606F0A8FD204605F03BFC01E001F08EFD10B0B0BD8A
:20758C0078EB000039E40000601A0020F8B5174A174B184C121D22F003019C4621605E1AD1
:2075AC002068256860606768A660002001E025F8020BAB42FBD84FF6FC75B3102A4001EB5B
:2075CC00830323F8040CACEB0202E82315403B80EC3DA1F8E850E83144F8081CFFF7F6F8E1
:2075EC0044F8040C606844F8080CF8BD0A35002028420020601A002038B504461848174DE8
:20760C00001F02686B68C2F30351C2F303405B0813D22B681D0511EB257103D41029A8BFFB
:20762C000F2100E000211B0410EB237303D4102BA8BF0F2300E00023184640EA011002F420
:20764C007F4102F0FF03222C41EA004143EA010024BF02F08042104338BDC046AC3F005062
:20766C007C13005030B5401E4FF00004ADF12C0D0AD0401E04D0401E20D1FAF795FF1DE0E5
:20768C0001F030FA044619E001A821462422082307F0ECF806940D4DADF81440094907944A
:2076AC00012201AB05F1780004F048F8064A23462C2105F19C00009303F02EFB20460BB0E5
:2076CC0030BDC046E98000009D7100003419002038B5184D1549686904F0EEF9FF20A87034
:2076EC0000242C7068216C700120FFF771FED0B129468020012208716B20091D04F0CEFE36
:20770C0007F060F80C480A490068B1FBF0F0FFF797FE00F041FF041C05D002F075FCFFF76A
:20772C00DDF902F0C9FF204638BDC04607000080A08601006C22002068F60000F0B50E4699
:20774C0015461C460746ADF11C0D4FF6FF7103AA05F06AFF0246059212B300200090BDF883
:20776C000C000DF1120329460190FF2002903846A047041C0FD16889ADF81000700804D3D3
:20778C00384604A906F010F903E0384604A906F025FF041C05D004A81B2105F053FF00E087
:2077AC001524204607B0F0BDF8B506AF38881D4614460E46002818BF0B202AD10846694665
:2077CC0004F08AFF012803D1002028800120F8BDBDF800004AF681210027401A12D0401E2D
:2077EC000AD0401E1CBF2F800A2711D101202880F068007820700BE002202880F0680088EA
:20780C00208005E012222A80F1682046FEF780FA3846F8BD2DE9FF41984607460C4613466C
:20782C00404606F089F8054613B907F067F80346002F12BF381C0F4800681A462146434626
:20784C0007F0A4F8061C10D11DB9404606F074F858B90A48006800900197074D029429883A
:20786C0000223423404606F075F830460090BDE8FF81C046ACF60000FAF6000094F600004D
:20788C002DE9F041054615F8017B90460E461CE0B8F1000F05F101050BD0FF2C09D80220DE
:2078AC0015F8011B401E41EA0424F9D101E0042C02D315F8011B00E0394630462246FFF7D6
:2078CC008DFAA61901E006F8010B15F8010B8742F9D115F8014B002CE9D115F8010B2C78C3
:2078EC0000022418D4D1BDE8F08170470146184880B5983000688A0CC0F38367C0F38F202B
:20790C0022D241F3072100290BD54A420021400805D17F0806BF0127381C4FF6FF70521E4B
