:200000002840002075C8000001CA011001CA011001CA011001CA011001CA011001CA0110F3
:1C00200001CA011001CA011001CA011001CA011001CA011001CA01103FCA011082
:20003C0000B5ADF11C0D04928DF80D108DF80C0000208DF814003BE09DF80D00062815D1D5
:20005C000498224902680A60808888800821FF200091214B1F4901901D4802911B49006897
:20007C00002205F0DDFE8DF814002AE018208DF8140026E09DF80D00012804D1049817495C
:20009C00007808701DE018208DF8140019E09DF80D00012804D1049811490078087010E017
:2000BC0018208DF814000CE002208DF8140008E09DF80C000028BFD0401EDBD0401EE6D04F
:2000DC00F2E79DF8140007B000BDC046830F0020982F00209189000060070020AE0E0020F2
:0400FC00B00E002022
:200100003C000000000000000000000034010000000000000000000001000000000000006D
:1C01200000000000000000000000000001000000000000000800000000000000BA
:20013C00340000000000000000000000680100000000000000000000010000000000000005
:14015C00010000000000000000000000080000000000000086
:2001700030000000000000000000000098010000040000000000000001000000FFFFFFFFA5
:10019000FF00000001000000080000000000000057
:2001A0002C0000000000000000000000C4010000040000000000000001000000FFFFFFFF4D
:0C01C000FFFFFFFF08000000000000002F
:2001CC0034050000E401000099A1011095A70110A5C2011009B2011045B80110000000000B
:0801EC00000000002F000000DC
:2001F400280000000000000000000000140200000000000000000000FFFFFFFF00000000B1
:080214000800000000000000DA
:20021C00300500003002000069C201106DC101101FC2011095BA011000000000000000008E
:04023C002D00000091
:20024000300500005402000075C20110A9B601109DBF011049B601100000000000000000DE
:040260002E0000006C
:200264002400000000000000000000008002000000000000000000000000000008000000CC
:040284000000000076
:20028800240000000000000000000000A40200000000000000000000000000000800000084
:0402A8000000000052
:2002AC00240000000000000000000000C8020000000000000100000000000000080000003B
:0402CC00000000002E
:2002D00000000000180F002004000000000000000000000020000000700100003000000002
:2002F0001C020000200F00200400000000000000000000000C000000300400001800000025
:2003100040020000280F0020040000000000000000000000240000004804000018000000A8
:2003300000000000300F002004000000000000000000000010000000A00100002C0000006D
:20035000CC010000380F0020040000000000000000000000200000006402000024000000AB
:20037000FFFFFFFF400F002004000000000000000000000028000000880200002400000028
:20039000FFFFFFFF480F0020040000000000000000000000580000003C010000340000000D
:2003B000FFFFFFFF500F002004000000000000000000000010000000600400001800000022
:2003D000FFFFFFFF580F00200400000000000000000000001C000000AC0200002400000098
:2003F000FFFFFFFF600F002004000000000000000000000038000000F40100002800000009
:20041000FFFFFFFF680F002004000000000000000000000054000000000100003C000000A4
:1804300018000000000000000000000040040000080000000000000050
:1804480018000000000000000000000058040000080000000000000020
:18046000180000000000000000000000700400000800000000000000F0
:0804780001000000B4060100C0
:040480000068704759
:040484000100000073
:0404880000000E0062
:04048C0000000F005D
:040490003200000036
:040494000100000063
:040498004C0D0020E7
:04049C00000200005A
:0404A0000000000058
:0404A40001CA011078
:0404A8000000000050
:0404AC00000000004C
:0404B0000800000040
:0404B4000000230021
:0404B800780B00209D
:0404BC00010000003B
:0404C000640D0020A7
:0404C400080000002C
:0404C8000000000030
:0404CC00000000002C
:0404D0000000000028
:0404D4000000000024
:0404D8000000000020
:0404DC00010000001B
:0404E000E00B00200D
:0404E400060000000E
:0404E800010000000F
:0404EC00E00A002002
:0404F0000000000008
:0404F4000000000004
:0404F80000020000FE
:0404FC0000000000FC
:02050000704742
:020502002900CE
:020504000100F4
:020506002500CE
:020508002D00C4
:02050A002E00C1
:02050C002F00BE
:02050E000100EA
:0105100001E9
:080514000300000000060100D5
:08051C000000000000000000D7
:0405240000000100D2
:0405280000000300CC
:04052C0087C401106F
:04053000380500008A
:040534003805000086
:0405380000000000BF
:04053C00900000002B
:040540009000000027
:0405440000000000B3
:04054800640D00201E
:04054C0001FB0000AF
:040550002000000087
:04055400B2030100ED
:04055800B8020100E4
:04055C000DC30110BA
:04056000478D0000C3
:04056400B39100004F
:0405680099C801101D
:04056C009BC8011017
:040570000000000087
:04057400B1030100CE
:040578000402010078
:04057C001C0201005C
:04058000EC01010089
:0205840008006D
:0205860009006A
:02058800010070
:02058A0000006F
:01058C00016D
:040590000000000067
:040594000000000063
:04059800000000005F
:04059C00000000005B
:0405A00001FF000057
:0405A400B9D40000C6
:0405A8009DE40000CE
:0405AC00FDDB000073
:0405B00009D8000066
:0405B4002DDC00003A
:0405B8006DA500002D
:0405BC00FFFC000040
:0405C0006DAF00001B
:0405C40011C8011049
:0405C80021C8011035
:0405CC000800000023
:0405D0002400000003
:0405D400180000000B
:0405D80028000000F7
:0405DC0020000000FB
:0405E0003C000000DB
:0405E4000C00000007
:0405E80034000000DB
:2005EC0000B5ADF1140D01928DF80210ADF8000000208DF8080029E29DF80200102805D14F
:20060C000199AD48102207F015FD5FE218208DF808005BE29DF80200102805D10199A94891
:20062C00102207F007FD51E218208DF808004DE29DF80200042804D10198AC490068086064
:20064C0044E218208DF8080040E29DF8020001283ED1A7480078012836D0A64800788DF831
:20066C000C000198A349007808709DF80C0080B1A048007868B9AD480078022804D0AB483C
:20068C000078052840F02282A94800780EF0F0FB1CE29DF80C00002840F01882954800789D
:2006AC00002800F01382A1480078012808D09F480078042804D09D480078052840F006827E
:2006CC0001200EF055FA01E212208DF80800FDE118208DF80800F9E19DF80200012846D1AA
:2006EC008448007801283ED0814800788DF80C0001987F49007808709DF80C00A0B17C489A
:20070C00007888B989480078032808D087480078072804D085480078052840F0D7818448B8
:20072C0000780EF0A5FBD1E19DF80C00002840F0CD816F480078002800F0C8817B480078D3
:20074C0001280CD079480078042808D077480078062804D075480078052840F0B781012027
:20076C000EF006FAB2E112208DF80800AEE118208DF80800AAE19DF80200022804D101980F
:20078C00AF4900880880A1E118208DF808009DE19DF802001F2819DCAA4800211F2208F061
:2007AC00C9FC01999DF80220A64807F043FC9DF80200A54908705E48A349A24B00780A787D
:2007CC00012109F053FA8DF808007FE118208DF808007BE19DF802001F2819DCBD4800219E
:2007EC001F2208F0A7FC01999DF80220B94807F021FC9DF80200B84908704D48B649B54B07
:20080C0000780A78002109F031FA8DF808005DE118208DF8080059E19DF80200012808D12A
:20082C0001980078042804DC0198AC49007808704CE118208DF8080048E19DF80200012836
:20084C0008D101980078032804DC0198A449007808703BE118208DF8080037E19DF8020091
:20086C00062806D101989F4902680A60808888802CE118208DF8080028E19DF80200012867
:20088C0008D101980078072804DC01989649007808701BE118208DF8080017E19DF802009B
:2008AC0001280BD101980078032807DC01988F49007808700AE1C046D42E002018208DF8D7
:2008CC00080003E1E42E00209DF80200012808D101980078062804DA0198854900780870E1
:2008EC00F4E018208DF80800F0E0C046A82E0020170D0020160D002001980088ADF80C002E
:20090C009DF8020002280DD1BDF80C00062809DBBDF80C00B0F5486F04DCBDF80C007549DD
:20092C000880D3E018208DF80800CFE0A42E00209C2E002001980088ADF80C009DF80200B7
:20094C0002280DD1BDF80C00062809DBBDF80C00B0F5486F04DCBDF80C0067490880B5E025
:20096C0018208DF80800B1E001980088ADF80C009DF80200022809D1BDF80C00B0F5FA7FC9
:20098C0004DABDF80C005D4908809FE018208DF808009BE001980088ADF80C009DF8020056
:2009AC0002280DD1BDF80C000A2809DBBDF80C00B0F5486F04DCBDF80C005149088085E007
:2009CC0018208DF8080081E0019800788DF80C009DF80200012819D19DF80C00012815D1E9
:2009EC0048480EF0FBFA68B94149002006F044FB8DF808009DF80800002867D142480EF056
:200A0C00B1FF63E016208DF808005FE018208DF808005BE0BDF8000028280CDA9DF8020053
:200A2C00022808D10199BDF8000009880BF046FB8DF808004AE002208DF8080046E0C046F9
:200A4C00180D0020B80C00201A0D0020BDF80000A0F201301A28DDD801A151F820008746D3
:200A6C0005060000210600003D060000210A000057060000830700009D070000E107000057
:200A8C0025080000470800006908000087080000A9080000210A0000210A0000D5080000EA
:200AAC00050900004109000075090000A1090000210A0000210A0000210A0000210A0000FE
:200ACC00D5090000210A0000E50600009DF8080005B000BDD70C00201B0D0020AC2E0020C2
:200AEC00AD2E0020770F0020AE2E0020AF2E0020900E0020920E0020940E0020960E00204C
:200B0C00980E0020E42C0020C02C002010B5ADF1200D019100907A4803900198C00B28D361
:200B2C000FF080FA049077480FF0D5F8029002988069059004980FF071FA0598800813D257
:200B4C00029888B10299059A8869904388610298406848B102990298029B4C68059AC06847
:200B6C00B3F91C100023A047019820F48040019004E201988008C0F0A380A2480FF0ABF823
:200B8C000028029000F08C80029809F0EDFF029880690490029800218161029840680028F6
:200BAC002DD00498002106AA40F0020082E8030011E095A003C806AA82E8030015E0B3A0CA
:200BCC0003C806AA82E803000FE0B2A003C806AA82E8030009E00298C07F00F00700401EE1
:200BEC00E7D0401EEBD0801EEFD006AA0CCA0298029944680298B1F91C10C068A0470FF0D7
:200C0C0011FA0590A048A049B0F90000401C6FF31F3008807B4800681F30017821F0800194
:200C2C00017078480DF038FD05980FF0F7F90298C0689549B0F99400B1F9001088422FD158
:200C4C00A948007860BB0298C06890F8960018B90298C068006840B90298C068002180F8D5
:200C6C009610002008F0E6F91AE0B54800680068B0F1FF3F14D00298C06870300FF0B0F838
:200C8C00029AB049D26809681268B2FBF1F10FF0C1F90298C06870300FF0A2F80FF0B6F99D
:200CAC00019820F00200019056480FF014F80028029000F06381019840F0020001905DE11B
:200CCC000198800FC0F08F80B148006800283AD004200EF005F9002835D00EF0DBFDAD4975
:200CEC000860AB48AB490068096888420CD2A849A8480A6800680099801A000BC8600DE00A
:200D0C00482D0020542E0020A149A2480A6800680099801A00F1FF30000BC8600099C86893
:200D2C0000F58D70C8600098C06840F6C411814205D30098C06840F2EE21814203D90098EF
:200D4C0040F6C411C16092490020086000988069A0B19148007810F00F0F0FD10098408C73
:200D6C0040F60901814209D1009880690490049C00989FA20CCA6FF48071A04787480FF01D
:200D8C001FF8874900220FF0ACF88648007860B10220ADF8100004A80DF03AFEBDF81800BF
:200DAC00039988837F49002008707F49012008707E490878401C08707D490020087019200D
:200DCC000EF03EFF0098406940B1009840690490049C009888A20CCA0021A047019820F0DC
:200DEC0000500190CAE07348007888B1019800090ED3704900200870019820F008000190DA
:200E0C00BCE0C046582E0020000000000000002001980009C0F09880634900200870664901
:200E2C00012008700020FFF765FB64480EF0ECFC5A480EF0C5FF624900220FF052F86148E2
:200E4C00007810B15748007840B35E49012008705D4940F6090008804F484F49007820F0DF
:200E6C000F0040F0010008705849002008805849087820F00F0008705649002008605248EC
:200E8C005549086057E0C0465E2E0020000000000000004000000000000000104F48006808
:200EAC00002841D00EF0F6FC4D49086038494C480A6800684A49801A000B0860494948484E
:200ECC000A680068801808604448464900680968B1EBC01F0AD244480EF0C4FF4FF0005104
:200EEC000EF0C6FA27E0C046F60C00203D4900200860354940F60900088027482649007850
:200F0C0020F00F0040F0010008703049002008802F49087820F00F0008702E49002008604E
:200F2C0029482D49086006E02F480EF09BFF4FF000510EF09DFA019820F0080001901DE0FD
:200F4C00BC2B0020AC0601000198800B16D327480EF0C1FE0290029860B10298406848B11A
:200F6C0027A20CCA0298029944680298B1F91C10C068A047019820F400500190019828B166
:200F8C0019480EF06FFF01990EF072FA08B010BDCC2B0020D02B0020812E0020E02D0020C1
:200FAC0049390000E12B0020C02B0020C92B0020E22B0020E52B0020E32B0020CD8D000073
:200FCC0039E10000E02B0020742E0020762E0020802E0020782E002000100440DC2B00202B
:200FEC00D42B0020D82B0020542B0020502E00200000000000000002000000000000000460
:20100C00000000002000000000B5ADF11C0D009000208DF8040012E200980290029840787F
:20102C008DF80C009DF80C00E8B99E4A022010210AF0B4FC9C4A032010210AF0AFFC029873
:20104C009A49C01C02680A608088888098490120087098489849994B00780A78012108F0AE
:20106C0005FE8DF80C009DF80C0010B190490820087001208DF8040010E200980290029895
:20108C004078002828D10298C07850B1A6498948A64B0A780078002108F0E8FD029948709C
:2010AC001AE083480078022816D081480078072812D07F480078062803D1A44800780128B7
:2010CC000AD17B480078032806D0A1480DF086FF10B901200DF04CFD02984078002800F0E8
:2010EC00DD8173490820087001208DF80400D5E1009802900298407800283CD10098807889
:20110C00032812D16A480078062803D168490720087033E0A848007818B1654902200870AD
:20112C002CE063490320087028E0AD48008858B1A148007810B98548007880B1A8480188A9
:20114C0083480BF023F90AE09B480078012803D199490020087002E07C490020087054480A
:20116C000078072803D152490620087006E050490420087002E04E490820087001208DF8D5
:20118C0004008BE1009802900298407800283CD10298B549001D02680A60808888800298EF
:2011AC00B249408908804249062008700298B049C08908800298AF49008A08800298AE4915
:2011CC00408A08800298AD49C0780870AC480078012803D0AA48007802280CD11F200AF05F
:2011EC0049FFADF80C00BDF80C004FF47A714143B4480BF0CBF80298029A0299C0785289D9
:20120C000423091D09F040FA0DE002984078312806D169490020087025490420087002E09D
:20122C0023490820087001208DF8040036E100980290029880880CF0AAF98B48002106224E
:20124C0007F078FF8A49002008808A490020088089490020088002989B49807908709948D4
:20126C000EF080FB99480EF07DFB01208DF804007E494FF6FF7008803448007818B10C49D3
:20128C00032008700AE102988079082803D108490520087002E006490420087001200DF04C
:2012AC0067FCFBE0D42E0020E42E0020742F0020A42E00209C2E00201A0D0020B80C0020C6
:2012CC000098029081480EF04DFB02984078002840F0E48002986649C0880880029865495A
:2012EC0000890880029864494089088075480DF075FE002840F0D28075480068002800F025
:20130C00CD8073485B495C4A03685948098812881B6800889847C1E00098029002988088E1
:20132C0005210DF0E5FAB9E01B0D0020D70C00200098029002988088ADF80C00504800782E
:20134C00052807D100208DF8160074E0170D00209C2C002001208DF816005A480EF002FBE8
:20136C0047480078012803D045480078042839D1584802990088C988884202DD5548008841
:20138C0001E00298C088ADF80E005348029900880989884202DD5048008801E002980089AE
:2013AC00ADF810004D48029900884989884205DD4A48008804E0C046160D0020029840898C
:2013CC00ADF812004648029900888989884202DD4348008801E002988089ADF814002AE084
:2013EC00180D002026480078032803D024480078022810D137480088ADF80E003648008809
:20140C00ADF8100035480088ADF8120034480088ADF814000FE00298C088ADF80E00029874
:20142C000089ADF8100002984089ADF8120002988089ADF8140003A80DF0A2FE2EE00098FE
:20144C00807805281EDC05283FF49CAE00283FF4E3AD801E3FF411AE401E3FF449AE401E56
:20146C003FF446AE1AE0C0467D0F00201C0D00201E0D0020200D0020220D0020240D00200C
:20148C00900E0020801F3FF4D2AE401E3FF418AF08383FF441AF801E3FF44AAF9DF8040012
:2014AC0001280DD10F48006850B10E480068006830B10C4800680C4A00680146107888473A
:2014CC0007B000BDC02C0020250D0020E42C00202C0D0020920E0020940E0020960E00205F
:2014EC00980E0020280D0020A42E002000B5ADF1240D8DF80620ADF80410009089480EF08C
:20150C00EAFB0290884803909DF806100020490800D301208DF8100003208DF811000EF089
:20152C0081FD0590BDF90400B0F1FF3F11D17F48006828B17D480068808BADF8040005E043
:20154C007B48B0F90000401CADF8040003980021C177BDF9040008F007FE06900698002807
:20156C0040D072480699006888423BD19DF80600800805D36B48006802906A4900200860D5
:20158C0006999DF81030CA7F012098401043C8770EF038FD07909DF8100008B1654800E042
:2015AC0065480DF035FA05980EF038FD9DF80600800810D3029870B10299C87F40F004009F
:2015CC00C87702A80DF068F801465C4808F0FAFF02980028F0D107980EF010FD83208DF888
:2015EC0011009AE00698002800F094800698029988422AD152480EF0F3FB0DF0FDFA9DF87D
:20160C000600800803D347490020086004E04548006844490068086005980EF0FFFC0299DB
:20162C00C87F40F00400C87702A80DF035F80146424808F0C7FF029818B19DF806008008FB
:20164C00EDD283208DF8110047E0029800283DD0029906980968884232D139480EF0C0FBDF
:20166C000DF0CAFA0298006807909DF80600800805D30298002101600798029008E0079835
:20168C0002990068086007980021016007980290029870B10299C87F40F00400C87702A8C7
:2016AC000CF0FAFF0146254808F08CFF02980028F0D105980EF0B2FC83208DF8110005E008
:2016CC0002980068029002980028C1D19DF81100832802D005980EF0A1FC1A48007830B100
:2016EC0019480EF0BFFB02210DF0C2FE15E01748007890B916480EF087F813480EF0B2FBEF
:20170C0002210DF0B5FE1348007830B912480EF07BF802E005980EF081FC9DF8110009B00A
:20172C0000BDC0464C2E0020482D0020502E00205E2E00200100020401000104582E0020AE
:20174C00E82B0020E22B0020542B0020E32B0020190B0000C02B0020895000000EB50191F3
:20176C00ADF8000000208DF80800A6E07848019900780870E8E001987649102206F05AFC9D
:20178C00E2E001987449102206F054FCDCE07348019900680860D7E0714901980A680260EE
:2017AC0089888180D0E06F48019900780870CBE06D48019900780870C6E06C4801990088B4
:2017CC000880C1E06A4901980A786A4906F032FCBAE0694901980A78684906F02BFCB3E067
:2017EC006748019900780870AEE06648019900780870A9E0644901980A6802608988818029
:20180C00A2E062480199007808709DE0604801990078087098E05F4801990088088093E01B
:20182C005D480199007808808EE05C4801990088088089E05A4801990088088084E05948E7
:20184C000199008808807FE057480199008808807AE0564901980A6802608988818073E05F
:20186C0053480199008808806EE0524801990088088069E0504801990088088064E04F481F
:20188C000199007808705FE04D480199007808705AE04C4801990078087055E0BDF8000012
:2018AC00282806DABDF800000AF0E4FB019908804AE002208DF8080046E0BDF80000A0F5F3
:2018CC0040701D28EAD802A151F820008746C04679170000831700008F1700009B170000E4
:2018EC00A5170000B3170000C7170000D1170000DF170000ED170000F7170000011800006F
:20190C000F1800001918000023180000A91800002D18000037180000411800004B18000017
:20192C00551800005F1800006D1800007718000081180000A918000095180000BD170000C8
:20194C008B1800009F1800009DF808000EBDC046A52E0020D42E0020E42E0020A82E002076
:20196C00742F0020160D0020170D0020180D00201A0D0020B80C00201B0D0020D70C002056
:20198C00AC2E0020AD2E0020770F0020AE2E0020AF2E00201C0D0020900E0020920E0020E0
:2019AC00940E0020960E0020980E00207D0F00201E0D0020200D0020220D0020240D0020EB
:2019CC00A42E0020250D002090B503AFADF11C0D03938DF80820019100900EF023FB0690E2
:2019EC0079497848B1F90010B0F90000401A00F580506FF31F30082811DA72487149B0F9EE
:201A0C000000401C6FF31F3008806E480088ADF81400BDF9140009F021FF049005E0069834
:201A2C000EF0FCFA6FF00100C9E0009870300EF0D7F90DF0E1F80198049988609DF8080006
:201A4C0004998877039804994860BDF814000499888300980499C86097E818006AA090E817
:201A6C000600049819402240103080E8060004980021C1775548006818B35448049908F059
:201A8C00A1FD70B94F484F49B0F9000000F6FF706FF31F30088006980EF0C0FA6FF0010047
:201AAC008DE0BDF814000099A1F894000499C87F40F08000C87706980EF0B0FABDF914003B
:201ACC007DE04248049908F07DFD70B93D483D49B0F9000000F6FF706FF31F3008800698EB
:201AEC000EF09CFA6FF0010069E0BDF814000099A1F894000499C87F40F08000C8770099A2
:201B0C00002081F896003248007878B13148007860B13149012008702D49002008702F49D4
:201B2C00002008702E490878401C087006980EF075FA2C48006800283FD12648007818B168
:201B4C0019200EF07DF838E027480078002834D10EF068FA06902548007830B12449012057
:201B6C00087006980EF05AFA27E00498806808F093FA20490860B8B121480EF031F91E4AAE
:201B8C001C49136809681D4ADB681268C91AB1FBF2F10EF03FFA1A480EF022F90EF036FA72
:201BAC0006980EF03BFA08E006980EF037FA15480EF058F904210DF05BFCBDF9140007B0ED
:201BCC0090BDC0465C2E00205E2E00204C2E0020E42B0020C02B0020E52B0020E12B002020
:201BEC00C92B0020502E0020E22B0020E32B0020CA2B0020DC2B0020BC2B0020AC060100D6
:201C0C00E82B0020542B0020F1EFFF9F2000000000B5ADF1940D01900020239003F014F9F0
:201C2C000AF094FA012807D10DF0F2FA022803D1239840F0010023907448006800F4400031
:201C4C00800D012809D17248239A0068012100F07F40000E8140114323916E4800780CF037
:201C6C009FF96D490860002002906B480299006888420BD90298694AFF2111540298401CC4
:201C8C0002906548029900688842F3D800200390029036E00298019951F8200000F0FF007A
:201CAC00FF282BD05C490298019A096852F8200000F0FF0081420AD902980199239A51F872
:201CCC002000012100F0FF008140114201D002209AE002980199039A51F82000012100F0FA
:201CEC00FF00814011430391029801994B4A51F820009DF8081000F0FF0011540298401C07
:201D0C0002900298019951F8200000F0FF00FE28C0D1092004F07CFB01984149086004A817
:201D2C000DF0A4FC01208DF828003E48012104AA0EF060F900200290374802990068884281
:201D4C0037D90299239A01208840104205D00299354A042042F8210023E00299039A01200A
:201D6C008840104209D002982C49019A085C52F820102E4802F01EFE07E002992B4801F072
:201D8C00FF0141F4C04102F015FE02984FF0FF3100F0FF000AF022FA0299234A002042F88C
:201DAC0021000298401C02901B48029900688842C7D80DA80DF0F2FB1D480078159000205E
:201DCC0000901D4A1B4810210DAB0EF00FF919A80DF088FC194800681F90002020901848C4
:201DEC00184919AA00230EF0FDF817481649006820F47C5040F400500860144901200860C5
:201E0C00134901200860002025B000BDB43F0050A83F0050DB2F0020C82F0020082D00200F
:201E2C0014200020C42D0020B4280020007FC7670C060100A82D0020D9DF000010060100B1
:201E4C00202B00207D940000003009400C4009400800094000B5ADF1240D009000200890CF
:201E6C000098406801900098806802900198007B012829D1089902984A1C0892007E0DEB8B
:201E8C00810140F00040C860029A08997C48527E4B1C0DEB810108931043C8600298089919
:201EAC004A1C0892807E0DEB810140F00040C860019A7448089992F88D204B1C0DEB8101F6
:201ECC0008931043C8603FE00899029A6C484B1C127E08930DEB81011043C860029A08990C
:201EEC006948527E4B1C0DEB810108931043C8600198007E18B10198007E01280AD10899C2
:201F0C00029A5F484B1C927E08930DEB81011043C86009E0029A08995C48927E4B1C0DEB32
:201F2C00810108931043C860019890F88D00FF280AD0019A0899554892F88D204B1C0DEBDF
:201F4C00810108931043C8600898FE22411C08910DEB8000C260019803A9903003F002F89B
:201F6C000199C1F89C0008B9002087E001984849007B51F8200001283DD102980299019B08
:201F8C000268097ED3F89C00B2F1804F01D1092200E021220AF02CFD02980299019B0268ED
:201FAC00497ED3F89C00B2F1804F01D10A2200E022220AF01DFD02980299019B0268897EFD
:201FCC00D3F89C00B2F1804F01D10C2200E024220AF00EFD02980199019B026891F88D1091
:201FEC00D3F89C00B2F1804F01D10B2200E023220AF0FEFC41E002980299019B0268097E01
:20200C00D3F89C00B2F1804F01D10A2200E022220AF0EEFC02980299019B0268497ED3F808
:20202C009C00B2F1804F01D1092200E021220AF0DFFC02980299019B0268897ED3F89C00E8
:20204C00B2F1804F01D10C2200E024220AF0D0FC019890F88D00FF280FD002980199019B92
:20206C00026891F88D10D3F89C00B2F1804F01D10B2200E023220AF0BBFC012009B000BD7F
:20208C00000480A000200080004000800004C0A04C06010000B5ADF11C0D07F029FC7D489C
:2020AC007D4902F05FFF7A49086079487B4900680CF040FF7A487B490AF01EFF7B480DF04E
:2020CC0039FC7949086000207A4900900420019077484FF47A72002308F0B6FC1F20012151
:2020EC0009F0ECFF01208DF808000020ADF80A0001208DF80C004FF44870ADF80E004FF4D0
:20210C004860ADF810000420ADF812004FF44860ADF81400012140F2053002AAFEF760FA53
:20212C0040F2063002210DF10A02FEF759FA624A4FF442701B21FEF753FA604A40F2073084
:20214C000E21FEF74DFA4FF44470012103AAFEF747FA40F2113002210DF10E02FEF740FA39
:20216C0040F21230022104AAFEF73AFA40F2133002210DF11202FEF733FA4FF445700221FE
:20218C0005AAFEF72DFA4E480268152100200BF07FFBA020ADF80800BDF80810062009F044
:2021AC008DFFBDF80810072009F088FFBDF80810082009F083FFBDF80810092009F07EFF37
:2021CC000020029001208DF80C0000208DF80D0003208DF80E0001208DF80F00042102AAA1
:2021EC004FF4816009F0C2FA4FF48060012103AA09F0BCFA40F2024001210DF10D0209F0BD
:20220C00B5FA40F2034001210DF10E0209F0AEFA40F2064001210DF10F0209F0A7FA4FF03B
:20222C00FF300DF07DFC4FF0FF300DF031FD0CF083FF08F0CDFF0BF07BFA7F2004F000FE11
:20224C00204908701F4800787F2804D10F20052107F086FB03E00A20052107F081FB0BF0C8
:20226C0023FF0BF0BDFB0BF025F806F067FD08F08BFB0BF0EDFE14480BF0EEFF13480BF00D
:20228C00EFFA0348054900680CF054FE07B000BDCC2F0020682F0020F80C00207FEC000025
:2022AC00DD2F0020D02F0020842F0020142F00200C2C00203DEB0000300D00200C0E00207A
:2022CC008C0E00208A2F0020B80F0020100F00202DE9F04F0128ADF1140D40F0F280DFF883
:2022EC001492D9F8DC00012840F0E9800220C9F8DC000DF073FE029001200AF08FF820B18B
:20230C0001210646C9F8DC10D5E00DF07BFE03906E484FF00008C0F8008001200CF0E0FDA9
:20232C00012818BFCDF8008004D1404609F026F90120009066486E4CC0F800801934D4F86F
:20234C00FF0F11200DF000FD00280CBF4646012610200DF0F9FC08B146F002060F200DF04D
:20236C00F3FC08B146F004060B200DF0EDFC30B1584800685849006B0246088890470A208A
:20238C000DF0E2FC0028404618BF01204FF0805B0BF5DC7528B128685049006B0246088800
:2023AC0090474F480127076028688069014646F0200088474B4807600DF0C0FC00F001018A
:2023CC000191400815D248480DF077FC8246BAF1040FF8D0BAF1010F06D1DBF8D8014068FC
:2023EC0002464148032190474049086820F003000860404600F080F82868D4F8FF1F806B3E
:20240C008047019801280ED0BAF1010F06D1DBF8D80140680246344839469047334908685D
:20242C0040F0030008602A480760286840690146304688470B200DF087FC28B128682649D4
:20244C00C06A0246088890470A200DF07DFC28B128682249C06A024608889047204807607B
:20246C000322C9F8DC201F4BC3F800802868406B0146304688470128F8D1042009F0CEFF26
:20248C00124807601A48D4F8FF1F01688909FCD30098012802D1384609F070F80DF048FCA5
:2024AC00082009F0BBFF06460398C9F8DC700DF0A5FD08F06FFC02980DF08CFD02E0042613
:2024CC0000E00126304605B0BDE8F08F0C40094000022243B8010010820101007E010100D1
:2024EC002820086080010443004003402422084014100940500600202DE9F84F82467A487D
:20250C00DFF8D89135380068800880F0D8800BF0DFFE054678480830D0F8008000244FEA8A
:20252C002876761C5FEA98500AD2C5F13E0015F10A0F4FEAE000D8BF08208642B8BF061C06
:20254C00634FD7F87C01C0F304600DF0AFFB83463868C0F304400DF0A9FB06EB0B02009024
:20256C00162A05DA12F10A0FB8BF6FF0090200E01522584B584F02F01F0141F4F8511980A9
:20258C00396811F0030F18BF0124C90828BF44F00204BAF1000F18BF44F00404494691F9A7
:2025AC000730EB1A052B04DA8B79A34208BF888864D0DFF82CE10F2DA5F10F0C25DB0CEB09
:2025CC000513A3F1F00C4FEA2C27072F88BF07273E46062E88BF06265EF82600042303EB54
:2025EC0086037646F3581B1A03F0FF06E00824BFC3F307200644A00824BFC3F3074006444E
:20260C00600828BF06EB136601E0002637465EF827E0E0080EF0FF0324BFCEF3072003441A
:20262C00A00824BFCEF307400344600828BF03EB1E630098B6B2ACEB07277E43801A06F1DF
:20264C00800603EB1623D8BF0120342208F0FF0742437A43B2FBF3F04FF6FF72824238BF72
:20266C00101C802D80B2888005DA15F1800FB8BF6FF07F0500E07F25CD718C71194A1268D1
:20268C001F280A604FF0000208D340F2FF11814206D24008521C8142FBD301E01F20888015
:2026AC00124F11490F38000942EAC00247EA0200C1F8FB0F0026C1F8FF6FBDE8F88F0D4F4A
:2026CC000B4E494608203760891D0870BDE8F88F3C1100506E620840242208407C2F0020EF
:2026EC009C130050082009403500094000E7A48030100940FDFDA400AC3F005000B5ADF120
:20270C00140D01928DF801108DF8000000208DF80800BBE09DF80100082806D101999DF8CA
:20272C000120694805F086FCCAE018208DF80800C6E09DF8010014280BDC64480021152272
:20274C0006F0F8FC01999DF80120604805F072FCB6E018208DF80800B2E09DF80100142869
:20276C000BDC5B480021152206F0E4FC01999DF80120574805F05EFCA2E018208DF8080010
:20278C009EE09DF8010014280BDC52480021152206F0D0FC01999DF801204E4805F04AFC21
:2027AC008EE018208DF808008AE09DF8010014280BDC49480021152206F0BCFC01999DF8F1
:2027CC000120454805F036FC7AE018208DF8080076E09DF8010014280BDC4048002115220A
:2027EC0006F0A8FC01999DF801203C4805F022FC66E018208DF8080062E09DF8010014282D
:20280C000BDC37480021152206F094FC01999DF80120334805F00EFC52E018208DF80800A7
:20282C004EE09DF801000AF03BFA03900398B0B12C482D490068814203D02A4800680BF04D
:20284C00A7FA039801999DF8012005F0F3FB0398244908609DF801002449087030E01320CF
:20286C008DF808002CE09DF80100072806D101999DF801201E4805F0DDFB21E018208DF8D6
:20288C0008001DE002208DF8080019E09DF800000828F7D801A151F82000874621270000CB
:2028AC003F270000672700008F270000B7270000DF270000072800002F280000732800005D
:2028CC009DF8080005B000BDF00E0020BB0D0020D00D00207C0D0020910D0020E50D002061
:2028EC00A60D0020400E00202A0E0020440E0020700F00202DE9F0411C4615468C4208BF89
:20290C00854282BF00230022E5E0002C08BF002D0AD100290EBF00286FF000006FF00001C1
:20292C0000F0E1F8BDE8F0815FF000085FF0000E002C08BF8D429CBF2C1C0025070C47EA2A
:20294C0001470E0CB44208BFBD429EBF5FEA044444EA15445FEA0545070A47EA01670E0A83
:20296C00B44208BFBD429EBF5FEA042444EA15645FEA0525470847EAC1774E08B44208BFDC
:20298C00BD4200F29380870847EA81778E08B44208BFBD427CD8C70847EA4177CE08B44245
:2029AC0008BFBD4266D8070947EA01770E09B44208BFBD4250D8470947EAC1674E09B4425D
:2029CC0008BFBD423AD8870947EA81678E09B44208BFBD4224D8C70947EA4167CE09B442A5
:2029EC0008BFBD420DD8E60146EA5566EF01B14208BFB84201D3C01BB14158EB08085EEB6D
:202A0C000E0EA60146EA95664FEA8517B14208BFB84201D3C01BB14158EB08084EEB0E0EEA
:202A2C00660146EAD5666F01B14208BFB84201D3C01BB14158EB08084EEB0E0E260146EAF4
:202A4C0015762F01B14208BFB84201D3C01BB14158EB08085EEB0E0EE60046EA5576EF00D2
:202A6C00B14208BFB84201D3C01BB14158EB08084EEB0E0EA60046EA9576AF00B14208BF03
:202A8C00B84201D3C01BB14158EB08084EEB0E0E660046EAD5766F00B14208BFB84201D30F
:202AAC00C01BB14158EB08085EEB0E0EA14208BFA84201D3401BA14158EB08085EEB0E0E28
:202ACC00A34208BFAA423EBF2D0A45EA0465240A89D3734642461E4617460B4602463146EA
:202AEC003846BDE8F08170472DE9F84381460DF019F9002100B901216B4E30680028FCD017
:202B0C006C4D01242D1DEF6A346009B10DF010F9DFF89881C7F3072008F1BC0108600DF0E8
:202B2C0001F9002100B9214630680028FCD02F68346009B10DF0FCF8C7F38440C8F8C000EE
:202B4C000DF0F0F80146002001B92046014630680028FCD0ED69346009B10DF0E9F8C5F3F0
:202B6C008120C8F8D000B9F5C061C8F8B81000F0968098F8D80068B9C8F8D410D8F8C000FE
:202B8C00C8F8C800D8F8BC70C8F8C470D8F8D060C8F8CC60D8F8D410D8F8BC60002954BFE9
:202BAC0002206FF00100454605F1C8031A6801EB41014018411000EB917002EBA0021A60ED
:202BCC00D5F8C810C5F8C46000291CDD1E293DDDD5F8CC0030B93429B4BF15391E21C5F844
:202BEC00C81025E02A29BABFD5F8C8000B381E20C5F8C800D5F8C4003F28B4BF401C3F205F
:202C0C00C5F8C4001FE0D5F8CC00032812D011F10B0FC6BFD5F8C8000B30201CC5F8C80050
:202C2C00D5F8C4000028CCBF401E0020C5F8C400032009E011F1150FC6BFD5F8C8001530B4
:202C4C00201CC5F8C8000020C5F8CC00B5F8C400174E30214FF47F4208230090304609F0A9
:202C6C0099FA009404214FF400321123304609F091FAB5F8C80004214FF4F80212230090BD
:202C8C00304609F087FAB5F8CC0020214FF440620A230090304609F07DFABDE8F8830020B6
:202CAC0088F8D800BDE8F88300800C405006002000A00C4000A00C4000B5ADF1140D009072
:202CCC000098406802900098806803906A480068039A406801461068884701900398006882
:202CEC000CF0A6FD0198002800F0A4800298007AFF2840F0AD809DE002982C300DF0A6F8AE
:202D0C000DF064F9B6E002982C300DF09FF80DF05DF9AFE00299D1F8B000401EC1F8B00070
:202D2C000298D0F8B00028B302990398D1F8AC10006809780CF0C6F80299D1F8AC00401CD0
:202D4C00C1F8AC000298D0F8B00002280CD20298D0F8B80040B902980021017203980068A4
:202D6C0005210CF025FA85E00398006801210CF01FFA7FE00298D0F8B800E0B102980221A0
:202D8C00017202990398D1F8A8100068097C01220BF076FA0298D0F8B800012805D90398C6
:202DAC0000680B210CF004FA64E00398006803210CF0FEF95EE002980021017203980068AC
:202DCC0004210CF0F5F955E0039800680CF026FD0299D1F8B41008700299D1F8B400401C6D
:202DEC00C1F8B4000299D1F8B800401EC1F8B8000298D0F8B80080B10298D0F8B8000128E1
:202E0C0005D90398006809210CF0D2F932E00398006801210CF0CCF92CE0029800210172A2
:202E2C000398006804210CF0C3F923E00298FF2101721FE00298007A00283FF464AF401E97
:202E4C003FF468AF401EBFD0FD383FF455AFEDE70298FF2101720198400906D302982C3011
:202E6C000CF0F4FF0DF0B2F804E00398006804210CF09EF905B000BDAC01001080B502AFFC
:202E8C00ADF1180D039302920191ADF8000000208DF8100001990198496840680978407888
:202EAC0001F0FF0100F0FF0001EB0021ADF812108AE03888082803D907208DF81000A1E0DF
:202ECC003888B988C0F10800884201D9B88802E03888C0F1080003990880039A3B884B49D5
:202EEC0002981288C91805F0A5F88BE00198C0680CF060FDADF814003988BDF8140088428D
:202F0C0003DA07208DF810007CE03A88BDF81400B988801A884201DDB88803E03988BDF809
:202F2C001400401A039908800198039A3988C36812880298C91805F07DF863E034483988D2
:202F4C000078884203DA07208DF810005AE030483A88B9880078801A884201DDB88803E0F8
:202F6C002B4839880078401A039908802948039A0368398812880298C91805F05BF841E063
:202F8C003888072803D907208DF810003AE03888B988C0F10700884201D9B88802E0388845
:202FAC00C0F1070003990880039A3B881A4902981288C91805F03EF824E0039800210180E5
:202FCC000A208DF810001DE0BDF8120042F62321401A072802D92D38D2D0EEE701A151F8BB
:202FEC0020008746BF2E0000F92E0000F92E0000F92E0000F92E0000F92E0000F92E000001
:20300C00492F00009DF8100006B080BDF00E0020440E0020400E0020700F002000B5ADF1A4
:20302C004C0D02910190019840680F900198806810900CF0F7FF11900F9890F8D900012842
:20304C0004D111980CF0EAFF0020A5E00F99012081F8D90011980CF0E1FF0F990020C1F83B
:20306C00880002980F990069086102980F994069486102980F99007E087602980F99007B19
:20308C00087302980F990078087002980F99406848600F99002081F8A4000298406909288C
:2030AC0001D2002000E001200F9981F88C001098007B03F0ADF9019806F0B2F810980F991E
:2030CC00C07E81F88D000198FEF7C4FE78B91098007B03F0CBF80CF0A5FF11900F9900203D
:2030EC0081F8D90011980CF099FF002054E003A80CF06AFA01980890109840790B90002287
:20310C00109900920F98254A097903AB1C300CF06DFF03A80CF0FCFA019807901098806811
:20312C0009900F981E4903AA002338300CF05AFF0F98007878B903A80CF0AEFA01208DF80A
:20314C0024000F98002103AA6C300CF053FF15490F98816003E002980F998068886006F00F
:20316C0037FC0F99C1F8A0000F98007B01280BD10F980D49D0F89C000BF0DCFE0F98019971
:20318C00D0F89C000CF0B8F90F98019B074A0421C4300BF0C5F8019813B000BDF55F000040
:2031AC0031C20000C3F0000085B1000021F0000010B5ADF1280D029201910090604805908B
:2031CC00009A00990098527800788978000340EA021040EA111004900098009A0099C078B4
:2031EC0012794979000340EA021040EA11100390059B059903980A88B3F90210C010A0EBD5
:20320C0042004143C812069005980599059A039C039B00880988B2F90420C0EB2310C1EBE3
:20322C0024114143081342439013079006990798401808900898019900EB8000803000125A
:20324C00086008984010A0F57A4006900599069A0698B1F91010921080105043C012414364
:20326C0007910598069A0799B0F90E00504301EB4001079105980799B0F90C00000400EBDD
:20328C00A1000790059A059B0698069C0699B2F90A20B3F908308010A41060434013504346
:2032AC005943491001EBE0018814069005990698C98800F500404143C81306900698002891
:2032CC003BD00498079A40F63541C0F58010A0EB2230414309910998C00F06D10998069927
:2032EC004000B0FBF1F0099005E006980999B1FBF0F0400009900599099A0998B1F9161021
:20330C00D208C0085043400B48430013069005980999B0F91400890848434013079005994D
:20332C00069B0798099AB1F91210C018091802EB211209920299099808600AB010BDC046ED
:20334C00342E00200EB555480078002800F0A4805348008800F07F008DF800009DF800001F
:20336C00002800F096809DF80000FF2800F0918009F094FE4B4908704B48007818B94B4850
:20338C000078022852D147480078C00913D348490878401C087046480078022826D146480C
:2033AC00444900884FF47A72B2FBF0F2500000EBC20008601AE03B480078400816D33F481C
:2033CC0009F097F83E4809F071F83E48007868B13948384900884FF47A72B2FBF0F25000C2
:2033EC0000EBC20008603749002008702E49002008702E480078022818D129480088C009C2
:20340C0014D3314800F04CFB8DF804009DF80400052806D12749002008602449FF200870E7
:20342C0004E09DF8040008B105F088FD21480068F0B11E48007802280CD01C49022008707B
:20344C001B490020087005F0C7F918B19DF8000008F054FF12480088000A03D31549086876
:20346C00401E0860154A0020122103F067FB10E00E48007801280CD00D49002008700B496E
:20348C000120087005F0A8F918B11048007800F0FDFC0249002008700EBDC046062F002066
:2034AC00082F0020112F00200B2F00200A2F0020132F00200C2F0020042F0020B02E002088
:2034CC00B62E0020122F0020BC2E0020102F00202DE9FC415E4C574D574EDFF860815A4F6B
:2034EC0094F8E410481E0B2861D8DFE800F07B2C43062343062343067664042907D00122EE
:20350C000A2945F8212C14BF0220032004E02021012045F8211C024684F8E200002045F807
:20352C00390C0827C5F8FF7FC5F8F37F45F8392CBDE8FC81052914BF09200620002584F8EC
:20354C00E400356070E094F8E1700120383D002FC5F81B0004BF0620002102D00021F160CE
:20356C00032084F8E400032045F8010C31603068800859D294F8E400012503280DD00021B4
:20358C00404660220523009108F004FE94F8E400062814BF0A200720D1E702200090002117
:2035AC0060220523404608F0F5FD0420C7E70CF009FDBDE8FC812249002622480E60012560
:2035CC0005600E2002F052FE02200AF0A9F984F8E45084F8E360BDE8FC81002038600C25D2
:2035EC0078601FE01948006800680146202088472C3D41F61D560F2000214FF4C07207235F
:20360C0045F8010C4046C5F803600225009508F0C1FD404600214FF4C072072309F0C8F93C
:20362C000120386084F8E45004F178000CF0EEFCBDE8FC8139400C4038600C4000A00C400B
:20364C002C500C4004800C4034600C40A00100105006002000B5ADF12C0D01910090019878
:20366C00800FC0F09D80002005F0A6FC4D49002008604E484C4908600120FCF73BFF4C4898
:20368C000CF0C2F84B4940F60A0008804A49002008804A49087820F00F0008704849002076
:2036AC00086048484749007820F00F0040F00100087000988068029002980021418002980E
:2036CC00039002E00398406803900398406830B103984068008840F60A018142F2D135495F
:2036EC00039841600399487B20F00F00487336480CF0F1FA806805900598008840F6030108
:20370C00814226D00598008840F60401814220D00098008CE8B100982030049004980021DB
:20372C0041800498002141600499087B20F00F00087304980D30017821F00F0141F00101FE
:20374C0001701F49049808601E49087820F00F0008700098806806A90BF06AF906A80CF0CB
:20376C003FFA0098806800F050FF0E4800680028FBD00C490020086001200BF0B1FB0128C6
:20378C000AD003980D30017821F00F0141F0010101700E480CF038F8009803498068086077
:2037AC000BB000BD1C1004400010044001010E04190B0000742E0020762E0020802E002035
:2037CC00782E0020812E00204C2E0020B5AA000000B5ADF11C0D0191009002F063F84FF025
:2037EC00FF300AF085FB0290029800282CD10020049003A904AA0DF10E0008F0E1FE18BBFF
:20380C00BDF80E0010281AD13F489DF80C100078884214D104980590059800884FF6FF714C
:20382C00814209D105984088C00B08D3374A0420042108F0B3F802E0049806F001F904985D
:20384C0010B104980AF012FB31480088400840D32F49088820F0010008802E48007818B93C
:20386C002D480078002834D02B48007818B103208DF80C000EE0294800788DF80C002848E3
:20388C0000788DF80D0027490A680DF10E00026089888180244800788DF814002348007850
:2038AC008DF815001848007803A90BF0EFFA80B11F49082008701F48006850B11D48006824
:2038CC00006830B11B480068194A00680146107888470F480088800808D30D49088820F027
:2038EC00020008801449002003F0C6FB08480088C008FFF474AF0649088820F004000880D0
:20390C0008F068FA6BE7C0469C2E0020A82E0020140D0020160D0020170D0020AC2E002047
:20392C00AD2E0020770F0020AE2E0020AF2E0020A42E0020280D0020900E00200EB5009089
:20394C000BF07EFC02900298800829D349480068019028B3474900200860029A01980199EA
:20396C00006910408A69104340F0020088610198414902690868904308600198103090E897
:20398C000C003E4908681A1C904308603C48019906F018FE3B480CF065FA02210BF068FD1C
:2039AC00344800680190029880081DD201990298103106C90023014002EA0300002800D1E5
:2039CC00002911D00198304908600199029B01988A6900691840104388612A480CF042FAED
:2039EC004FF480410BF044FD2248006800283FD126480CF070F90028019039D024480199D6
:203A0C000068C968884207D01E480CF02BFA4FF480510BF02DFD2BE00198806806F03CFBE7
:203A2C001C49086020B11B48006805F003FB1FE0114901980A6800691043086001981030BD
:203A4C0090E80C000D490A68181C1043086012490020086001981149806808600E4800683B
:203A6C000028FBD009480AF017FE0198014908600EBDC046502E0020141004400C10044065
:203A8C00582E0020542B0020542E00204C2E0020BC2B0020DC2B00201C10044000100440A7
:203AAC0000B5ADF1140D00904D49062008700BF00FFB18B90BF016FF00208FE0484900209C
:203ACC0008700120682104F0DBF822208DF8040001A90122372006F0A1F910B940490520FB
:203AEC0008700BF0FFFE3E48007808B1002075E001200C2104F0C4F8022001A901220BF036
:203B0C0035FA002856D09DF8040040084ED30DF10501032007220BF029FA002842D09DF8DD
:203B2C000B008DF804009DF80400000936D29DF806209DF80500009940EA022008809DF8E4
:203B4C0007009DF80820009940EA022048809DF809009DF80A20009940EA02208880214835
:203B6C000099B0F90000B1F9002000995043001208801D480099B0F90000B1F9022000995B
:203B8C0050430012488019480099B0F90000B1F9042000995043001288800EE0104903208B
:203BAC0008700AE00E490420087006E00C490220087002E00A49012008700E490C480978D5
:203BCC00007840EA01108DF8040001220A2001A906F024F90BF086FE0148007805B000BDE1
:203BEC00C52E0020CA2E0020CC2E0020CE2E00209D0E00209C0E002000B5ADF1140DADF8AA
:203C0C0000000020019000208DF80E00BDF80000001DADF80000FFE7BDF8000000F003002F
:203C2C008DF810009DF8100038B19DF81010BDF80000401A001DADF800000BF047FC3E490A
:203C4C000860BDF80000102803DC3C480068029002E03B480068029002980088ADF80C0074
:203C6C00BDF80C00000C09D3BDF80C0080F40040ADF80C0000208DF80E0020E09DF80E0013
:203C8C0090B1019902980A880088801808800199BDF800000988884211DC0198029002980D
:203CAC000088ADF80C001AE0BDF80000BDF80C10884214DD01208DF80E000298019002990A
:203CCC00BDF80C004018029002980088ADF80C00BDF80C000028C3D100200290FFE70298AB
:203CEC0010B3BDF80010BDF80C00401AADF80C00BDF80C0004280FDB0299BDF800004018E5
:203D0C000490BDF80C0004990880BDF80000029940F40040088004E00299088840F400404E
:203D2C0008800298001D0290034800680BF0A9F9029805B000BDC046602E0020642E0020E4
:203D4C00682E002000B5ADF11C0D019100900098406802900098806803900299019891F861
:203D6C008C1000888840ADF8140003980068B0F1804F01D13E4800E03E480490019880684C
:203D8C0080B102983C4A90F88C00049952F8200088600199BDF814008A6804998018401EDB
:203DAC0048600BE00298354A90F88C00049952F82000886002980499A6304860039804995B
:203DCC00006808300860049A01989368018843F6F070491E00EA01101843906003980068CB
:203DEC00B0F1804F01D1264800E0264804900198406880B10298244A90F88C00049952F8B0
:203E0C00200088600199BDF814004A6804998018401E08600BE00298184A90F88C000499E6
:203E2C0052F820008860039804990E30086003980499006808304860049A0198936801880B
:203E4C0043F6F070491E00EA01101843906003990398029B0A694169D3F8A00011430BF065
:203E6C005EF90398006803210BF06EFA07B000BD3004002000050020340601002C060100FA
:203E8C0040040020100500203C06010008B58DF800000BF01DF918B90BF024FD002089E071
:203EAC000120682103F0ECFE08B9002082E0424909200870404901226B2005F0AFFF18B955
:203ECC000BF010FD002075E03B49072008703A4901226C2005F0A2FF18B90BF003FD002082
:203EEC0068E0354901200870334901221D2005F095FF18B90BF0F6FC00205BE02E49402002
:203F0C0008702D490122382005F088FF18B90BF0E9FC00204EE02849C02008702649012256
:203F2C00692005F07BFF18B90BF0DCFC002041E09DF80000204908701F4901221F2005F063
:203F4C006DFF18B90BF0CEFC002033E01A4906200870194901221E2005F060FF18B90BF03C
:203F6C00C1FC002026E0144929200870124901226B2005F053FF18B90BF0B4FC002019E04F
:203F8C000E491C20012205F049FF18B90BF0AAFC00200FE008493A2001220AF0E7FF0BF0F8
:203FAC00A1FC07490020087006480749006808F0F5FB012008BDC046C82E0020C72E00206B
:203FCC00C42E0020D02E00200700068080B502AFADF1200DADF8143004920391ADF80800A7
:203FEC0000208DF81600FF208DF81700039806A905F096FD01285ED101207FE0388838B9E4
:20400C00BDF81400012806D00D208DF8160002E00B208DF816009DF8160000285AD10398C3
:20402C00C0680790049807990078087003983449C06881424ED101208DF817004AE03888C0
:20404C0038B9BDF81400012806D00D208DF8160002E00B208DF816009DF81600002839D14E
:20406C000498007800280FDD0398C0680790049807990078087003982249C068814229D19B
:20408C0002208DF8170025E080208DF8160021E03888009001200190BDF814300399049AE0
:2040AC00BDF8080004F0E0F98DF8160012E00A208DF816000EE0BDF8180042F60211401AB8
:2040CC00E6D048F23F11401A04D0401E96D0801EB5D0ECE79DF81700FF280DD00A48006842
:2040EC0050B109480068006830B107480068006801469DF8170088479DF8160008B080BD30
:20410C00AE0E0020B00E0020A80E002080B502AFADF1200DADF8143004920391ADF8080092
:20412C0000208DF81600FF208DF81700039806A905F0F6FC01285ED101207FE0388838B943
:20414C00BDF81400012806D00D208DF8160002E00B208DF816009DF8160000285AD1039882
:20416C00C0680790049807990078087003983449C06881424ED101208DF817004AE038887F
:20418C0038B9BDF81400012806D00D208DF8160002E00B208DF816009DF81600002839D10D
:2041AC000498007800280FDD0398C0680790049807990078087003982249C068814229D15A
:2041CC0002208DF8170025E080208DF8160021E03888009001200190BDF814300399049A9F
:2041EC00BDF8080004F040F98DF8160012E00A208DF816000EE0BDF8180042F60211401A17
:20420C00E6D048F21F11401A04D0401E96D0401EB5D0ECE79DF81700FF280DD00A48006860
:20422C0050B109480068006830B107480068006801469DF8170088479DF8160008B080BDEE
:20424C00BA0E0020BC0E0020B40E002080B502AFADF1200DADF8143004920391ADF808002D
:20426C0000208DF81600FF208DF81700039806A905F056FC01285ED101207FE0388838B9A2
:20428C00BDF81400012806D00D208DF8160002E00B208DF816009DF8160000285AD1039841
:2042AC00C0680790049807990078087003983449C06881424ED101208DF817004AE038883E
:2042CC0038B9BDF81400012806D00D208DF8160002E00B208DF816009DF81600002839D1CC
:2042EC000498007800280FDD0398C0680790049807990078087003982249C068814229D119
:20430C0002208DF8170025E080208DF8160021E03888009001200190BDF814300399049A5D
:20432C00BDF8080004F0A0F88DF8160012E00A208DF816000EE0BDF8180042F60211401A76
:20434C00E6D048F2FF01401A04D0401E96D0401EB5D0ECE79DF81700FF280DD00A4800684F
:20436C0050B109480068006830B107480068006801469DF8170088479DF8160008B080BDAD
:20438C00C60E0020C80E0020C00E002080B502AFADF1200DADF8143004920391ADF80800C8
:2043AC0000208DF81600FF208DF81700039806A905F0B6FB01285ED101207FE0388838B902
:2043CC00BDF81400012806D00D208DF8160002E00B208DF816009DF8160000285AD1039800
:2043EC00C0680790049807990078087003983449C06881424ED101208DF817004AE03888FD
:20440C0038B9BDF81400012806D00D208DF8160002E00B208DF816009DF81600002839D18A
:20442C000498007800280FDD0398C0680790049807990078087003982249C068814229D1D7
:20444C0002208DF8170025E080208DF8160021E03888009001200190BDF814300399049A1C
:20446C00BDF8080004F000F88DF8160012E00A208DF816000EE0BDF8180042F60211401AD5
:20448C00E6D048F26F11401A04D0401E96D0401EB5D0ECE79DF81700FF280DD00A4800688E
:2044AC0050B109480068006830B107480068006801469DF8170088479DF8160008B080BD6C
:2044CC00D20E0020D40E0020CC0E002000B5ADF1340D00900BF072FD0190019805F078FFB0
:2044EC00029000200390002004900BF063FC8DF820009DF8200018B19DF82000012802D189
:20450C006FF004007FE0029810B96FF004007AE00098406810B90020059012E000984068BD
:20452C00B0F1FF3F03D14FF0FF30059009E00098406805A905F01AFF0790079808B1079846
:20454C0061E0012007900BF035FD05990818069040E008A806F015FF0790079808BB9DF86D
:20456C0024000BA906F08CFBB8B9009882689DF826101346BDF82C000A9A984768B1BDF891
:20458C002C00009988819DF82600009988730A98009908610020079023E00A9903A807F04F
:2045AC006BF8012007900498401C04900598B0F1FF3F0FD0059868B10BF0FCFC0699081A83
:2045CC000C900C9868B105980C99884200D208E00C9805900298059940680BF0E7FC002891
:2045EC00B7D102980399083007F08BFC049848B1029840680BF0D6FC0498401E049004986D
:20460C000028F5D107980DB000BD704700B5ADF13C0D00F019FC3449086840F002000860A8
:20462C0001A80BF06AF831480078079031493048002301AA0BF0D6FC01A80AF0BAFF0020D7
:20464C00ADF81C002C480078099000202C4A00902A48192101AB0BF0C9FC01A80BF04DF8E1
:20466C002848007807902949274801AA00230BF0B9FC01A80AF09DFF0120ADF81C002448C3
:20468C00007809900020244A009022481A2101AB0BF0ACFC21482249002200230BF07EFC5D
:2046AC0020480BF0B1F820480D900D984FF6FF7181831E49012008700D980021C1771C491C
:2046CC00002008701B49002008701B49002008701A49002008701A490020087019490020C6
:2046EC0008600FB000BDC046002009409E060100542B00203DF000009C060100E02D00201A
:20470C0039E100009F060100882B0020B15200009D060100FC2D002035970000E82B00200B
:20472C0071D7000089500000482D0020E12B0020E02B0020E22B0020E32B0020E42B0020D6
:20474C00E52B0020CC2B002080B502AFADF1200DADF8143004920391ADF8080000208DF8F0
:20476C001600FF208DF81700039806A905F0D8F901285CD101207DE0388838B9BDF81400FE
:20478C00022806D00D208DF8160002E00B208DF816009DF81600002858D103990498C96838
:2047AC000088088003983449C06881424ED101208DF817004AE0388838B9BDF81400012831
:2047CC0006D00D208DF8160002E00B208DF816009DF81600002839D10498007800280FDD82
:2047EC000398C0680790049807990078087003982249C068814229D102208DF8170025E079
:20480C0080208DF8160021E03888009001200190BDF814300399049ABDF8080003F024FE49
:20482C008DF8160012E00A208DF816000EE0BDF8180042F60211401AE6D048F27F11401AE0
:20484C0004D0401E98D0401EB5D0ECE79DF81700FF280DD00A48006850B109480068006870
:20486C0030B107480068006801469DF8170088479DF8160008B080BDC02F00200F0F00207D
:20488C00080F00202DE9F041424C474D8046C8F38140401E02D0401E2AD025E028462030DF
:2048AC000168880C20D24FF4804020603A48D0F802204B0AC1F3033703F0800322F08F02B2
:2048CC00134347EA0302C0F80220D0F801300E1266F30303C0F80130026801F0E70722F0AA
:2048EC00E70247EA020102E04FF00041204601602A4E06F108000068C0F3C0070FB94020E5
:20490C00A0624FF4007020640BF072F940F0300084F8C800C8F3815038B3401E03D0401E42
:20492C001ED002211DE001200AF0DAFA07460420394607F06BF904200AF0D2FA8742FAD1A5
:20494C00366826F07F4008F0D3FF15480068036807214FF06022300E98474FF48060206035
:20496C000321042007F052F906E00420012107F04DF90C4808F0BCFF284600680B4947F6CA
:20498C00180700F03F0084F8CB0F094E0F803068BDE8F08140A00C400A600840A83F0050BE
:2049AC00B4010010BD3786006C13005070B00C402C20094000B5ADF1140D019100900198AD
:2049CC0000F0FF008DF80C000198000803D301993E48484001909DF80C103D4850F82100FC
:2049EC000290029A01980099504001400020490E00D301208DF80D000099029888430290ED
:204A0C00019B00983349029A1840014011430291009800F4E020B0F5E02F02D10298400EC3
:204A2C0022D3009810F4E02F15D19DF80D00D8B111E0029820F4E0200290029840F4A020FA
:204A4C00029011E0029820F4E0200290029840F4C020029008E0029800F4E020B0F5A0206C
:204A6C00F0D0B0F58030E4D09DF80C201848029940F822100098C00D09D30198C00D01D3C0
:204A8C00012000E000209DF80C10134A50540098000E18D30BF0C6FA049010489DF80C302E
:204AAC00019A0168012098408143100E04D39DF80C200120904000E00020084A0843106075
:204ACC0004980BF0ABFA05B000BDC046006000A000100840007F077F00200240D020024025
:204AEC0080B502AFADF1200DADF8143004920391ADF8080000208DF81600FF208DF81700C3
:204B0C00039806A905F00CF8012852D1012071E03888A8B9BDF8140001280DD1BDF81800CA
:204B2C004AF6662181420ED10498007803280ADB80208DF8160006E00D208DF8160002E011
:204B4C000B208DF816009DF8160000283ED10398C06807900498079900780870BDF818004E
:204B6C004AF66621814208D103982349C06881422CD101208DF8170028E003981F49C068E7
:204B8C00814223D100208DF817001FE03888009001200190BDF814300399049ABDF80800A5
:204BAC0003F062FC8DF8160010E00A208DF816000CE0BDF8180042F60211401AE6D048F2FA
:204BCC006311401AA4D0401EA2D0EEE79DF81700FF280DD00A48006850B109480068006856
:204BEC0030B107480068006801469DF8170088479DF8160008B080BD070F0020050F0020DD
:204C0C00000F002000B5ADF11C0D0191009000208DF8080000984068049000988068059025
:204C2C000198406828B90198C06810B99DF8080077E00498007801281FD10BF0F3F9039021
:204C4C000498D0F8BC0068B104990198D1F8C010886101980499C1F8C00003980BF0DEF93B
:204C6C0001205EE001980499C1F8BC0001980499C1F8C00003980BF0D1F9022008F068FE8F
:204C8C00049860300BF0BEF84FF0FF310BF08EF9059880680BF07EF90098019900F06EFFB4
:204CAC000690059880680BF071F904980078E0B90698B0F1FF3F09D1049803210172002011
:204CCC008DF80800022008F02BFE22E004987C300BF098F84FF0FF310BF068F90498007A42
:204CEC00B8B901208DF8080013E00698B0F1FF3F0CD104980321017204982C300BF0A6F878
:204D0C000BF064F900208DF8080002E001208DF80800049860300BF075F80BF043F99DF892
:204D2C00080007B000BD704700B5ADF14C0D029101900198406810900198806811900BF066
:204D4C0071F90F90109890F8DC00012804D10F980BF064F900206DE01099012081F8DC00A9
:204D6C000F980BF05BF90298C168019801F014FA08B100205EE002981099007808700298F2
:204D8C0010994068486002981099007AC86003A80AF0F4FB019808901198007B0B90002283
:204DAC00119900921098244A896803AB10300BF01DF903A80AF086FC01980790119800693C
:204DCC00099010981D4903AA00232C300BF00AF903A80AF03BFC01208DF824001098012186
:204DEC0003AA60300BF006F91098007840B91098002103AA7C300BF0FDF8114910984160A2
:204E0C0010980021017210990020C1F8BC0010990020C1F8C0001198406801F0F9FA0198FC
:204E2C0005F000FF1098019B064A0421C83009F077FA019813B000BDC52C0000E97B0000E9
:204E4C00CDE5000051E800002DE9F041444C94F8E700ADF1280D00286FD1394F387B012575
:204E6C000021242284F8E7507E6884F8E6000823C4F80C6101A80BF085F8002604F10C0028
:204E8C00069601ABADF814602E49079632460BF085F82D4904F1300001AB32460BF07EF871
:204EAC002A4904F1540001AB32460BF077F8B868014628468847DFF89C8025487B7B00782A
:204ECC00D8F80410C1F381571BB1032F03D184F8E150032F16D0022F14D0012F26D1032060
:204EEC001D4C009031464FF040521C23204607F051F9009531464FF400720923204607F035
:204F0C0049F913E0022008F023FD032F0CBF4FF47A7142F21071114800685434B1FBF0F160
:204F2C0020460BF077F820460BF070F8D8F80000C00802D2304608F00BFD0AB0BDE8F0811A
:204F4C0058050100334D000075880000BD900000DB2F0020B03F005000A00C40AC06010015
:204F6C005006002000B5ADF11C0D019100903F480AF04EFF4FF0FF310BF018F80020029017
:204F8C0001208DF80C00002004901DE09DF81400FF2816D036489DF814100068884205D9A5
:204FAC009DF81400334951F8200018B100208DF80C0016E09DF81420049901209040084345
:204FCC0004900298401C0290019850B10298019951F8200000F0FF00C0B2FE288DF8140052
:204FEC00D4D19DF80C0010B90020009035E0009800210160009800214160009800218160C3
:20500C00002002901CE09DF81400FF2815D09DF81410184A009842F8210000999DF81430A1
:20502C004A6801209840104348600298019951F820201149009807F0FBFC0298401C029099
:20504C00019850B10298019951F8200000F0FF00C0B2FE288DF81400D5D104480AF0D8FE2B
:20506C000AF0A0FF009807B000BDC046C42D0020C82F0020B4280020007FC76710B5ADF145
:20508C00180D019100900198042862D13248039032480AF020FE029020B102983049C06888
:2050AC00086007E00398C07F400803D303982C49406808602A48006840682A4900780860A8
:2050CC0027480068274940680968007888420FD023480068806958B1214800688069049030
:2050EC002AA20CCA1E48049C00686FF0FF01A047022008F02DFC112001F08AF91A490120E2
:20510C00087017480068007C10B11848007810B90E2001F07DF9124800684068806820B9A6
:20512C000F4800684068C06828B11149002008601148104908600AF073FD104900200860B4
:20514C0010480F49086010480AF05EFB19200AF01DFF06B010BDC046482D00204C2E002079
:20516C00BC2B0020D0210840E22B0020E02B00201C100440001004405100070618100440FD
:20518C00141004400200004061360000000000000000000200B5ADF1240D02920191009086
:2051AC000098806804900098406803904FF0FF30079068E00398027B0021012A4FF000000C
:2051CC0000D1012000B10121039880F8A4100020079060E00399002081F8A40000200790B0
:2051EC0059E0029800788DF818000398007B012805D19DF8181029480843059004E09DF81F
:20520C0018102748084305909DF81800FF2826D003980599D0F89C0003F072F900283AD113
:20522C000498039B02689DF81810D3F89C00B2F1804F01D10B2200E0232207F0D9FB03989E
:20524C000399D0F89C0091F88D1003F075F89DF81800039981F88D00002007901BE0039820
:20526C000399D0F89C0091F88D1003F065F89DF81800039981F88D00002007900BE06FF05C
:20528C000100079007E00198203893D0401EA1D0401EA6D0F3E7079809B000BD00200080FD
:2052AC000004C0A010B5ADF1180D01910090394802900AF0B7FE03900298806910F4602F69
:2052CC0044D002988069400C8DF810009DF81000400803D300208DF810000EE09DF810003F
:2052EC00800803D301208DF8100006E09DF81000C00802D302208DF810009DF81000401DAD
:20530C0040B204F065FF029B9DF8100099690122113082409143996103980AF07FFE9DF858
:20532C001010029800EB8100806890B19DF8101002981AA20CCA00EB8100846802989DF8AA
:20534C0010104068491D09B2A04702E003980AF065FE0298806928B10F480AF083FD002149
:20536C000AF086F80298C07F800810D30298406940B10CA20CCA02984469029840686FF0C5
:20538C000101A0470299C87F20F00200C87706B010BDC046482D0020882B002000000000F4
:2053AC0000000008000000000000008008B50020442102F065FC08B9002076E03B491F20CA
:2053CC00022209F0D3FD18B90AF08CFA00206CE036483649354A0088098800F0FF00C1F3DF
:2053EC00072141EA0020108030480088782803D00AF078FA002058E02C49102008802B49C6
:20540C000222022004F00AFD18B90AF06BFA00204BE026490220022209F0A8FD18B90AF0A6
:20542C0061FA002041E021482049204A0088098800F0FF00C1F3072141EA002010801B4866
:20544C000088B0F5805F03D00AF04CFA00202CE016490020088015490222022004F0DEFC7C
:20546C0018B90AF03FFA00201FE010490220022209F07CFD18B90AF035FA002015E00B488A
:20548C000A490A4A0088098800F0FF00C1F3072141EA002010800548008818B10AF022FAE6
:2054AC00002002E00AF01EFA012008BDE62B002000B5ADF1140D8DF800005DE00F2005212A
:2054CC0004F04EFA4FF4417001A9FCF747F99DF804008DF80C009DF805008DF80D009DF8C8
:2054EC0006008DF80E0000208DF8100000208DF80F009DF809008DF813009DF808008DF846
:20550C0012009DF807008DF81100082103AA0020FDF7F4F840E0234809F060FD10B9214852
:20552C000AF016FA002009F023F935E01D4809F055FD10B91B480AF00BFA1B4800680A213A
:20554C00002207F095FA184800680F21002207F08FFA154800681521002207F089FA1BE06B
:20556C0009F0F6FA18E009F0F3FA0F4800680A21012207F07DFA0FE09DF80000401E9DD08E
:20558C00401EC8D0801EEBD0401EE9D0401ECDD0401E01D0401EE6D09DF800000349087002
:2055AC0005B000BD0C2C0020CC2F0020840E002000B5ADF11C0D00900098406801900098D3
:2055CC00806803900AF02EFD05900198D0F8880018B905980AF022FD62E005980AF01EFD26
:2055EC000398006809F09EFF03980068032109F09FFE03990398019B0A694169D3F8A000EE
:20560C00114309F0F5FE03980068012109F0A8FE0398006801210AF013FA009806F096FC2E
:20562C000198D0F888000199406807F007FF0198D0F88800007C042804D00198D0F88800E8
:20564C000321017403990398019B0A694169D3F8A000114309F0B4FE03980068B0F1804FD8
:20566C0001D1104800E01048049001990498D1F888208368116843F6F0701840A1EB10117F
:20568C00491E11600198D0F88800029001990020C1F88800019802998068024600989047DD
:2056AC0007B000BD30040020000500202DE9FC4191EA03084CBF4FF000484FF000084FEA06
:2056CC00C32545EA52554FEAC2264FEA43077F0D11BF45F0004500210020BDE8FC815FF4D0
:2056EC00E06E1EF1FF0E774555D04FEAC12343EA50534FEAC0224FEA4104640D11BF43F059
:20570C00004300210020BDE8FC81744543D0E419A3FB0501A3FB06E7A2FB06631EEB030EBF
:20572C0057F1000751F10001A2FB05631EEB060E57F1000751F10001FF1851F10001C019E4
:20574C0051F100014CBF4FF4806E4FF4007E10EB0E0051F1000148BF641C01D4400049418B
:20576C005FF44077FF37E41BDEBF00210020BDE8FC8117F58067BC420DD24FEAD02040EABB
:20578C0041504FEA41014FEA113141EA045141EA0801BDE8FC810020FF21C900C91D0905A3
:2057AC0051EA0801BDE8FC8181F000412DE9FC414FEA01244FEA41052D0E04D1002C18BF82
:2057CC000020BDE8FC8144F00044FF2D5ED04FEA9404002948BF64424FEA00224FEA40032B
:2057EC001B0E05D1002A14BF0020081CBDE8FC8142F00042FF2B4AD04FEA9202002848BF87
:20580C0052425E1B41BF171C221C3C1C764248BF2B1C192E47BF44FA06F73A444FF0000853
:20582C0003E0C6F11C0704FA07F8002A04BF0020BDE8FC8146BF524201270027A3F10103F3
:20584C005200FBD512F080040DD002F0200548EA0508803228BF5B1C02F0400458EA0408CD
:20586C0008BF22F480729B1CDCBF0020BDE8FC81FF2B0ED222F0FF024FEA42024FEA522074
:20588C0040EAC35040EAC770BDE8FC8108464FEAD0774FEAC777FF204FEAC0503843BDE86F
:2058AC00FC81FEE70EB52C482C4907F007FB2C49002008702B494FF6FF70088007F00CFC19
:2058CC002949087000202A4900900120019027480022002305F0B8F8002025490090022064
:2058EC00019024480022002305F0AEF80020204900900420019020480022002305F0A4F8B3
:20590C001E49042008701E481022002103F012FC1C480021102203F00DFC1B49002008601F
:20592C001A49002008701A4900200870194907200870194900200870114A0220102106F0C6
:20594C0005F8104A0320102106F000F80E4A0420042105F0FBFF0EBD9C2E0020A02E00206F
:20596C00A42E00201C0D0020DC2F00209C2C0020B5FD0000C02C0020E42C0020A52E0020EC
:20598C00D42E0020E42E0020A82E0020AC2E0020AD2E0020AE2E0020AF2E002000B5ADF170
:2059AC004C0D03930292019100903548007820B9FEF72CFE324901200870019818B101983A
:2059CC000099486001E0002058E0029818B102980099886001E0002050E00AF023FB0490E6
:2059EC0028480078002804DC26490878401C087004E004980AF012FB00203FE004980AF08C
:205A0C000DFB039820B905A809F07AFC05A803900398009900680860039800994068C8609A
:205A2C0003980099007A087403980099C06848610398006918B10398009900698861009840
:205A4C0000217822203003F075FB0AA809F019FE01208DF84000009800210AAA38300AF055
:205A6C00C9FA0AA809F0D1FD009810900098064900220AAB70300AF091FA009813B000BDAB
:205A8C00F70C0020C82B0020A9FD000000B5ADF11C0D019100903148314907F04BFA3148D8
:205AAC000AF0ECF94FF0FF3102F08AF92E48007801284AD1012007F04FFD2D482B49006830
:205ACC00B1FBF0F00AF05AFA02A805F077FA8DF81800002007F040FD9DF8180010B302A8C5
:205AEC0004A905AAFDF764FB0498C0F307408DF80A000498C0F307208DF80900049800F036
:205B0C00FF008DF808000598C0F307408DF80D000598C0F307208DF80C00059800F0FF0030
:205B2C008DF80B000020062102AAFAF781FA11490F480E4A0B8801684FF47A705843801A03
:205B4C00B0FBF1F00AF01AFAB0E709480A490068B1FBF0F00AF012FAA8E7C046442F002042
:205B6C00482F0020E02900204C2F002080380100AC0601004E2F002040420F0000B5ADF1D1
:205B8C00140D0191009000984068029000988068039002990198C1F8A800019802990068A0
:205BAC00C1F8AC00019802994068C1F8B000019802998068C1F8B40001980299C068C1F891
:205BCC00B8000298D0F8B00028B302990398D1F8A8100068097C002208F052FB029801214D
:205BEC0001720298D0F8AC2012F8011B0398029B0068C3F8AC2009F065F90398006809F058
:205C0C0053F910B14FF0FF302AE003980068032109F0CEFA23E002990398D1F8A8100068E9
:205C2C00097C012208F02CFB0298022101720398006809F039F910B14FF0FF3010E002987A
:205C4C00D0F8B800022805D203980068032109F0AFFA04E0039800680B2109F0A9FA00201F
:205C6C0005B000BD08B58DF800009DF80000012825D13349012005F0A3FF31480078022861
:205C8C0009D10AF079F82F4908702E4A0020012102F034F91AE02B4A0020012102F02EF920
:205CAC00294800680A21002206F0E2FE264800680F21002206F0DCFE08F0B4F906E09DF8C4
:205CCC00000018B91F49002005F07AFF1C480078012834D11B480078400806D31A48006821
:205CEC000A21012206F0C4FE05E0174800680A21002206F0BDFE13480078800806D312485A
:205D0C0000680F21012206F0B3FE05E00E4800680F21002206F0ACFE0A480078C00808D313
:205D2C000948006806F07EFD4FF4FA6001F06CFC01E008F077F9034800780009FFD208BD8C
:205D4C00D82F0020D92F0020CC2F00207CB50446084604F005F9344E02461821304608F0A1
:205D6C00F3F809F0D9F840F2FF32002380B22C210090304606F00EFA09F042FF1C2102469A
:205D8C00304608F0E1F809F0B9F802461421304608F0DAF809F078FA02461021304608F0F7
:205DAC00D3F8204603F0CEFF02460C21304608F0CBF8204609F050FA1C4D400040F020009E
:205DCC002870204609F054FA40F010002870204608F03EFE02462821304608F0B5F82046EE
:205DEC0009F05EFA400040F06000E870204609F063FAC00040F0800005F8080C204609F082
:205E0C0067FA800040F47C40A5F89300204608F0B1F802460821304608F096F84FF480003E
:205E2C00A5F2091108607CBD00A00C4049A10C4080B502AFADF1280D05938DF81020039148
:205E4C00029000208DF81900029828B1039818B1059808B1B86808B9022052E000208DF8DF
:205E6C00180046E09DF81810029800EB81000790079800884FF6FF71814235D00798807843
:205E8C00002831D039880598039A05F0FFFD0890089848B307988078400810D338790090AB
:205EAC00B8680190089B07989DF810200088012101F000FB9DF8191008438DF81900079842
:205ECC008078800810D338790090B8680190089B07989DF810200088022101F0EBFA9DF844
:205EEC00191008438DF819009DF81800401C8DF8180005489DF8181000788842B2DC9DF86F
:205F0C0019000AB080BDC046DC2F00200EB58DF8000059E009F030FF400902D22E49FF20D8
:205F2C0008802D480088FF2831D001200DF1020104F0D4FEBDF8020010F07F0F07D1BDF8EE
:205F4C00020025490880002001F0AAF919E0BDF8020021490880022001F0A2F909F0B8F890
:205F6C0078B11E48006841F28831B1FBF0F00AF005F806F09FF9BDF80210174A41EA0020AE
:205F8C001080154A0120022100F0D8FD05E0124801780222012007F09BFD002000211222FC
:205FAC0007F096FD17E0022001A904F097FE9DF804200B494FF47A705043088008480188D1
:205FCC00084804F069FA06E09DF80000401EA1D0401EE8D0FFE70EBD082F0020AC060100F3
:205FEC00042F0020542C002000B5ADF1140D009000984068019000988068029002980068B9
:20600C00012108F027FE039002980399006809F017FD0398400823D302980068012109F001
:20602C009FF90198D0F8880018B10098FFF7C0FA44E00298006809F075FA0298006803210E
:20604C0009F076F90299019B02980A694169D3F8A000114309F0CCF9009805F077FF2DE051
:20606C0001980299D0F8A000496908F0DFF858B102980068022109F05BF901980299D0F880
:20608C00A000496909F0B4F901980299D0F8A000096908F0CBF888B102980068012109F0DD
:2060AC0047F901980299D0F8A000096909F0A0F90198383009F0DCFE09F088FF05B000BD2E
:2060CC0008B50020772101F0DBFD08B9002062E0D0206946012208F049FF18B909F002FC89
:2060EC00002058E09DF80000582803D009F0FAFB002050E0F5206946012208F037FF18B930
:20610C0009F0F0FB002046E09DF8000018B109F0E9FB00203FE055208DF800006946012203
:20612C00F42003F07BFE18B909F0DCFB002032E0F4206946012208F019FF18B909F0D2FB73
:20614C00002028E09DF80000552803D009F0CAFB002020E0B6208DF8000069460122E0201B
:20616C0003F05CFE18B909F0BDFB002013E0F4206946012208F0FAFE18B909F0B3FB0020C3
:20618C0009E09DF8000018B109F0ACFB002002E009F0A8FB012008BD00B5ADF1240D019172
:2061AC00009000200890009840680290009880680390019840B90398007D8DF810000398CC
:2061CC00407D8DF8110007E0019800788DF81000019840788DF811009DF81000FF2803D04D
:2061EC009DF81100FF2802D14FF0FF303AE008999DF810201C484B1C089310430DEB8101D2
:20620C004861194808999DF811204B1C104308930DEB810148610898FE220DEB80014A61A5
:20622C00401C0890029805A99830FEF79BFE0299C1F8A4000298D0F8A40010B94FF0FF308B
:20624C0010E002989DF81010D0F8A4000D2206F0CFFB02989DF81110D0F8A4000E2206F0B6
:20626C00C7FB002009B000BD002000842DE9F843044609F0D7FE81462D48021992F8ED10CF
:20628C00491ECFB2002F82F8ED704BD12B4D05EB84052E78698836F07F0788461AD1F10901
:2062AC0011D24FF08054D4F8B801806901464046884704F5DC742068406B014640468847BA
:2062CC000228F8D121E000EB8800D0F80011002088471AE04FF08054D4F8B801006A014640
:2062EC0040468847D4F8B801806A014640468847D4F8B801006B01464046884701210D4A2D
:20630C000D48116001688908FCD306F03F003F2801D0FFF7ABFF687800F03F003F2801D08E
:20632C00FFF7A4FF484609F079FEBDE8F883C0465006002028200860282008405401010088
:20634C0000B5ADF11C0D04928DF80D108DF80C0000208DF8140041E09DF80D0004281BD158
:20636C009DF80D200498244908F0B0FAA0B1049821490268084602600821FF200091214BEE
:20638C001F4901901D4802911B4900680022FFF74FFD8DF814002AE018208DF8140026E056
:2063AC009DF80D00012804D104981749007808701DE018208DF8140019E09DF80D000128B3
:2063CC0004D1049811490078087010E018208DF814000CE002208DF8140008E09DF80C0005
:2063EC000028B9D0401EDBD0401EE6D0F2E79DF8140007B000BDC046B40F0020B02F0020E5
:20640C002D8B000060080020C60E0020C80E00202DE9F041064609F005FE2D4D8046A919B5
:20642C0091F8ED00421C002881F8ED204AD1294C04EB8604277807F03F003F2801D0FFF7C2
:20644C00E7FF607800F03F003F2801D0FFF7E0FF668837F07F001AD1F80911D24FF08054C0
:20646C00D4F8B801406901463046884704F5DC742068406B0146304688470128F8D121E05B
:20648C0005EB8605D5F80011012088471AE04FF08054D4F8B801C069014630468847D4F894
:2064AC00B801406A014630468847D4F8B801C06A0146304688470121074A08481160016809
:2064CC008908FCD3404609F0A9FDBDE8F081C0465006002054010100282008602820084003
:2064EC0000B5ADF11C0D01910090FBF7D3FD4FF0FF3007F013FD02900298002834D1002042
:20650C00049003A904AA0DF10E0006F07BF8F8B9BDF80E00102808D120489DF80C100078F6
:20652C00884202D1049808F0EDFD049880B1049807F0B2FC0CE01A48006807F091FF059054
:20654C00059828B1059807F0B1FB059807F036FC1348006809F00EFD0028ECD003F06AFFAC
:20656C00FCF7F0FE08F014FF0E480088C008BED30C49088820F0040008800B480078022876
:20658C0002D10A4809F0E4F9074800780228AED10F20012103F0E4F9A9E7C046DD2F0020A1
:2065AC00842F0020882F0020840E00200C2C002000B5ADF1140D019100902948294906F0AC
:2065CC00F5FC294809F066FC4FF0FF3101F0F8FB2648007801283AD1012004F005FA254804
:2065EC0023490068B1FBF0F009F0C8FC0DF10A0002A900F011F9002004F0F6F9002003A9F6
:20660C0004F032F9BDF80E10BDF80A00401A00DA4042072808DCBDF80C10BDF80800401A0C
:20662C0000DA4042072804DD0020042102AAFFF787FE11490F480B880D4A01684FF47A7045
:20664C005843801AB0FBF1F009F098FCC0E709480A490068B1FBF0F009F090FCB8E7C04677
:20666C005C2F0020602F0020802A0020642F002038320400AC060100662F002040420F00D0
:20668C0000B5ADF1140D009009F098FC01F05EF90290029810B96FF002004FE008F016FF83
:2066AC0003900020019001980B2840D2019A2449900000EBC200085A18BB0098019B204A94
:2066CC008188980000EBC3001152019B1D4A0299980000EBC30011500098019B1A4A816836
:2066EC00980000EBC30011509DF80400009908730298009940680861039808F0C2FC002085
:20670C001CE00099019B0E4A8988980000EBC300105A884205D1039808F0B3FC6FF00200E0
:20672C000CE00198401C019001980B28BED304F07BFF039808F0A5FC6FF0030005B000BD08
:20674C0030280020342800203828002000B5ADF1140D0191009000984068039000988068D0
