:20000000504000204D91000001CA011001CA011001CA011001CA011001CA011001CA01102A
:1C00200001CA011001CA011001CA011001CA011001CA011001CA01103FCA011082
:20003C0030B52E4CADF1140D28BB04F120050020294609F043F9207E012802D9401F14D0E0
:20005C004AE0012803D10BF0B3FC002844D0207E617E06F09FF900283ED0207FA27E294608
:20007C000AF0F0FA0BF052FE36E0E069A27E294605F012FD30E0012821D002282CD10220D0
:20009C0002A909F01BF97E21E1619DF8095065769DF808002076052814BF02200420A07653
:2000BC00A07E04F11C058DF8080029680DF1090302AA01201960052108F048FF0CE0012010
:2000DC00694609F0FBF89DF800100DF10100A176006804F11C05286005B030BDE4210020E1
:0400FC0008F0FABA54
:200100003C000000000000000000000034010000000000000000000001000000000000006D
:1C01200000000000000000000000000001000000000000000800000000000000BA
:20013C00340000000000000000000000680100000000000000000000010000000000000005
:14015C00010000000000000000000000080000000000000086
:2001700030000000000000000000000098010000040000000000000001000000FFFFFFFFA5
:10019000FF00000001000000080000000000000057
:2001A0002C0000000000000000000000C4010000040000000000000001000000FFFFFFFF4D
:0C01C000FFFFFFFF08000000000000002F
:2001CC0034050000E401000099A1011095A70110A5C2011009B2011045B80110000000000B
:0801EC00000000002F000000DC
:2001F400280000000000000000000000140200000000000000000000FFFFFFFF00000000B1
:080214000800000000000000DA
:20021C00300500003002000069C201106DC101101FC2011095BA011000000000000000008E
:04023C002D00000091
:20024000300500005402000075C20110A9B601109DBF011049B601100000000000000000DE
:040260002E0000006C
:200264002400000000000000000000008002000000000000000000000000000008000000CC
:040284000000000076
:20028800240000000000000000000000A40200000000000000000000000000000800000084
:0402A8000000000052
:2002AC00240000000000000000000000C8020000000000000100000000000000080000003B
:0402CC00000000002E
:2002D00000000000C82300200400000000000000000000002000000070010000300000003E
:2002F0001C020000D02300200400000000000000000000000C000000300400001800000061
:2003100040020000D8230020040000000000000000000000240000004804000018000000E4
:2003300000000000E023002004000000000000000000000010000000A00100002C000000A9
:20035000CC010000E8230020040000000000000000000000200000006402000024000000E7
:20037000FFFFFFFFF023002004000000000000000000000028000000880200002400000064
:20039000FFFFFFFFF8230020040000000000000000000000580000003C0100003400000049
:2003B000FFFFFFFF002400200400000000000000000000001000000060040000180000005D
:2003D000FFFFFFFF082400200400000000000000000000001C000000AC02000024000000D3
:2003F000FFFFFFFF1024002004000000000000000000000038000000F40100002800000044
:20041000FFFFFFFF1824002004000000000000000000000054000000000100003C000000DF
:1804300018000000000000000000000040040000080000000000000050
:1804480018000000000000000000000058040000080000000000000020
:18046000180000000000000000000000700400000800000000000000F0
:0804780001000000D4D70000D0
:040480000068704759
:040484000100000073
:0404880000000C0064
:04048C0000000D005F
:040490003200000036
:040494000100000063
:0404980044230020D9
:04049C00000200005A
:0404A0000000000058
:0404A40001CA011078
:0404A8000000000050
:0404AC00000000004C
:0404B0000800000040
:0404B4000000210023
:0404B8007821002087
:0404BC00010000003B
:0404C0005C23002099
:0404C400080000002C
:0404C8000000000030
:0404CC00000000002C
:0404D0000000000028
:0404D4000000000024
:0404D8000000000020
:0404DC00010000001B
:0404E0004422002092
:0404E400060000000E
:0404E800010000000F
:0404EC00E0200020EC
:0404F0000000000008
:0404F4000000000004
:0404F80000020000FE
:0404FC0000000000FC
:02050000704742
:020502002900CE
:020504000100F4
:020506002500CE
:020508002D00C4
:02050A002E00C1
:02050C002F00BE
:02050E000100EA
:0105100001E9
:080514000300000040D70000C5
:08051C000000000000000000D7
:0405240000000100D2
:0405280000000300CC
:04052C0087C401106F
:04053000380500008A
:040534003805000086
:0405380000000000BF
:04053C00900000002B
:040540009000000027
:0405440000000000B3
:040548005C23002010
:04054C007DBA000074
:040550002000000087
:04055400C8D4000007
:0405580024D40000A7
:04055C000DC30110BA
:04056000475E0000F2
:040564001767000015
:0405680099C801101D
:04056C009BC8011017
:040570000000000087
:04057400FFD30000B1
:040578000CD30000A0
:04057C0024D3000084
:04058000F4D20000B1
:0205840008006D
:0205860009006A
:02058800010070
:02058A0000006F
:01058C00016D
:040590000000000067
:040594000000000063
:04059800000000005F
:04059C00000000005B
:0405A000E5BE0000B4
:0405A400E19E0000D4
:0405A80021AE000080
:0405AC0041A8000062
:0405B000EFA30000B5
:0405B40071A800002A
:0405B800A575000025
:0405BC0059BC000026
:0405C000DD7F0000DB
:0405C40011C8011049
:0405C80021C8011035
:0405CC000800000023
:0405D0002400000003
:0405D400180000000B
:0405D80028000000F7
:0405DC0020000000FB
:0405E0003C000000DB
:0405E4000C00000007
:0405E80034000000DB
:2005EC002DE9F04F0820ADF17C0DDFF8FCB2ADF840000120ADF84200DBF80000014610A807
:20060C008847C84C9DF8440060700026A6701298E0614FF6FF70A08209F0ECFBB046C64D5C
:20062C002070324633460120CDF800802946019004F1A800159007F0D7FD0220CDF8008053
:20064C00324633462946019004F1CC00149007F0CBFD0420CDF8008032463346294601901F
:20066C0004F1F000139007F0BFFD04F14809042010223146E070484606F00EF804F1580AEF
:20068C0010225046314606F007F804F120073E6004F10B052E700720A072102126724A462B
:2006AC006672022009F0C2FB03201021524609F0BDFB04203A46014609F0B8FBCDF8609095
:2006CC0004F13E001E90CDF864A015981C974FF00309169005F12D00159005F17C00179032
:2006EC0005F121001A9005F15D001B9027351D9509E0A078062818BF072804D16078A18A14
:20070C00132208F041FF08200A21ADF838004FF0FF35ADF83A10DBF800700F950EA83946B2
:20072C008847002840F062813046082102900925ADF82810DBF80070ADF82A500AA83946D4
:20074C008847DDF830A00028CDF808A040F04E81BDF82C106078102940F03A819DF82E10C5
:20076C00884240F0358155462A884FF6FF73A91C934200F0258151460F78A23F00F0098110
:20078C002E3F40F025818978B046002900F0D680891E00F0AB80491E01297DD9891E4CD038
:2007AC00491E23D0491E03D0083900F0E480E6E013980BF08DFB02984778002F40F0DF80F9
:2007CC00C188E182018921834089608314980BF0C1F9002840F0D380A76A002F00F0CF80FC
:2007EC003B68E08A218B628B9847F1E0A8880AF0C4F815984146062205F04EFFE682268302
:20080C006683A879607314980BF062FB13980BF05FFB4FF001084FF6FF706779A0824FB9E5
:20082C00A879082814BF04200520A07040460AF0D1FFA4E084F80290A1E06F7837BB291DAD
:20084C000A6815980260898881800627A7706889A082E889E082288A2083688A94F83E10AE
:20086C006083E8780129207308D11F2008F06EFE4FF47A714143149809F04CFAE8786A8900
:20088C002D1D0423294607F081FF7BE0687831286FD12671042023E06F78002F69D1A878F3
:2008AC00678AA178032812D02079657927B9012814BF6671267106E0054304D01698394625
:2008CC0009F028FAA1780729E4D1062008E0062908D02779002F08BF84F8029052D00220F6
:2008EC00A0704FE00720FBE7481900206B786F1C002B3ED1ED78A178E279ADB9022918D029
:20090C00072916D0062902D16079012811D103290FD016980BF01EF958B901200AF05AFF7F
:20092C0007E0C04620050020179B414608F086FA38703F78EFB922E0E1B700006F78C7B9C0
:20094C00189A0220102109F08DFA199A4846102109F088FAED1C29681A98AF88016001250F
:20096C0087802946A2791B9B6078A57008F066FA40B10820B4E7A88805210BF07BF9B8F1BD
:20098C00010F25D1676A1FB33F680FB3A078B8471EE0687913281BD12889012808D1A07B4E
:2009AC00022805D113980BF093FA0AF043FB0FE0052008F0CBFD0146139809F0ABF907E076
:2009CC000888C00B04D31C9A0420014609F04AFA029FDBF800004FB10821ADF82010ADF864
:2009EC002290CDF824A0014608A88847208A6779217942082DD320F0010057EA0105208282
:200A0C0027D02E4800786FB9227A617A8DF80C201D9F8DF80D103B680DF10E052B60BA88B6
:200A2C00AA8001E08DF80C90E17A8DF81510A27A8DF8142003A90BF017F948B10820676AFB
:200A4C00A0702FB13D681DB13868014608208847208A810807D320F002001E99208230465B
:200A6C0006F0D8F8208AC108FFF44DAE20F00400A77B20827F1E03D07F1E3FF43AAE42E61B
:200A8C00A078B4F84050B4F84230B4F84420B4F8461006287FF437AEADF81850ADF81A3044
:200AAC00ADF81C201498ADF81E100BF011FA01200DF1160106F0AEF825E6C046210500209B
:200ACC002DE9F04FADF1740D06F028FED64C04F1200004F1640105F035F8DE49E0600BF065
:200AEC00FFF84FF008080127DFF86CB3ADF86080DBF80000ADF86270014618A888479DF84C
:200B0C00640060701A98A06004F12C000BF074F80026042504F1800A4FF47A72D5492061BF
:200B2C00334600965046019507F05EFB1F20394609F020FA4FF44870ADF81A008DF820707E
:200B4C00B146ADF81E908DF81C702946ADF816104FF44860ADF8180008AAADF81400394662
:200B6C0040F2053000F060FD40F2063002210DF11E0200F059FD4FF442701B2104F1460258
:200B8C0000F052FDCDF86CA004F1380240F207300E2100F049FD4FF44470394607AA00F025
:200BAC0043FD40F2113002210DF11A0200F03CFD40F21230022106AA00F036FD40F2133031
:200BCC0002210DF1160200F02FFD4FF44570022105AA00F029FDBE4D3046152105F14702DE
:200BEC000AF0BCFE0620A02109F0C4F90720A02109F0C0F94046A02109F0BCF90920A0211F
:200C0C0009F0B8F9CDF8109003268DF80F7038468DF80E9004218DF80D6004AA8DF80C0095
:200C2C004FF4816008F042FF4FF480600DF10F02394608F03BFF40F202400DF10E02394667
:200C4C0008F034FF40F203400DF10D02394608F02DFF40F2064003AA394608F027FF4FF037
:200C6C00FF300BF0F3F84FF0FF300BF0ECF80AF06BFE05F111023846112102F063FB022078
:200C8C0005212A4602F05EFB05202A46014602F059FB05F134023046132102F053FB6A1DA8
:200CAC0004200C2102F04EFB05F12207062012213A4602F047FB09F0AFFA7F2004F0BAFA87
:200CCC00A0707F2814BF0A200F20052107F0AEFF08F09CFB09F006FD09F0ECFC06F07EFD7E
:200CEC0007F0CAFF09F016FD0AF024FA0AF042FD04F1140009F024F904F1180009F053FE55
:200D0C005449E0680AF0ECFF5D464FF0050ACB460A21ADF85A104FF0FF37ADF8588028683F
:200D2C001797014616A88847002840F015812868CDF808B00927ADF848800146ADF84A70E7
:200D4C0012A88847149E0028029640F0F780BDF84C0010280CD160789DF84E10884207D162
:200D6C0030460178B02903D1017908300AF0BAFA0298002800F0E2800321ADF84210ADF897
:200D8C00408028681196014610A88847D6E020690AF000FA071C00F0D1803E78781C761E0D
:200DAC0035D0761E40F0C1800078B978401E2AD0401E24D0801E1ED0401E18D0401E12D0B8
:200DCC00401E0CD0401F06D0401E40F0AE8008460AF068FBA9E00846FFF72AF9A5E008466E
:200DEC0004F036FBA1E0084605F08EF99DE0084605F056FB99E0084603F0ACFD95E0084640
:200E0C0005F01CF891E0084605F08AFA8DE00678701E5FD0401E21D0801E012844D9801E0C
:200E2C0004D0801E28D07FE0040900201B980AF091FE10B91B980BF049F8E0680A214A46B9
:200E4C0008F0DCFEE0680F214A4608F0D7FE15214A4625E099B70000481900201B980AF096
:200E6C0079FE10B91B980BF031F848460AF09AFC5AE0C046F5B900000AF04EF80AF03AF8D7
:200E8C0009F08CFF09F040FE08F028FF0AF020F808F034F905F04AFE0AF054FC0A21012260
:200EAC00E06808F0ABFE3FE00AF036F80AF022F809F074FF09F028FE08F010FF0AF008F856
:200ECC0008F01CF905F032FE0AF03CFC2CE0C04600D200000F20514607F0A8FE4FF4417067
:200EEC000EA902F0FBF89DF839308DF831308DF834908DF833909DF83D108DF837109DF892
:200F0C003A208DF832209DF83C309DF838008DF836309DF83B308DF8300041460CAA48465B
:200F2C008DF8353002F00EFA2670ADF82880ADF82AA028680B9701460AA8884720690BF0F1
:200F4C00BFF800283FF423AF04F094FE06F0C0FA02F010FB0AF03EFDA088C108FFF4D8AECF
:200F6C0020F004002178A08002297FF4D1AE1B980AF0ACFF207802287FF4CAAE0F20012125
:200F8C0007F054FEC4E67047D74A2DE9F04F0126ADF1140D02F141010490D148C1F8CF6F66
:200FAC000768002FFCD0D148C02344380360CD4B029003F108000068800804D25868000CA8
:200FCC0040F0F00000E07220D94FDA4C0193002587F84C02A4F1DC081846C1F8FF5FD0F8E9
:200FEC000CA058F8040CC0F304600AF0FEFD00EB2A70401C162805DA10F10A0FB8BF6FF0DF
:20100C00090000E0152000F01F0040F4F850A7F864021068800828BF4AF0406AC6494FEA03
:20102C00DA604FEA9A6580F0010000F00100086085F0010000F001008860504606F0B2F9E2
:20104C000022044615460AF03FFE00B935462A46BA4D2B68002BFCD0DFF8E49209F10809F9
:20106C00C9F810402E600AB10AF034FE0AF0C2FA80B20090B24840F2FF3200232C2107F0A2
:20108C0025FF0AF01FFD04460AF01EFE4FF0000B00B9B3462B68002BFCD0C9F81440BBF163
:2010AC00000F2E6001D00AF015FE0AF029F904460AF00AFE4FF0000B00B9B3462B68002B87
:2010CC00FCD0C9F80C40BBF1000F2E6001D00AF001FE0AF06BFA04460AF0F6FD4FF0000B38
:2010EC0000B9B3462B68002BFCD0C9F80840BBF1000F2E6001D00AF0EDFD049805F0DAFE38
:20110C0004460AF0E1FD4FF0000B00B9B3462B68002BFCD0C9F80440BBF1000F2E6001D0FC
:20112C000AF0D8FD049908460AF028FA844C4000403440F0200084F8090108460AF02AFA07
:20114C0040F0100084F80901084609F083FF03900AF0BAFD4FF0000B00B9B3462B68002BF6
:20116C00FCD00398C9F82000BBF1000F2E6001D00AF0B0FD049908460AF024FA400040F0E7
:20118C00600084F80C0108460AF028FAC00040F0800084F8010108460AF038FA800040F4D4
:2011AC007C40A4F89C01084609F06EFE03900AF08BFD4FF0000B00B9B3462B68002BFCD0E0
:2011CC000398C9F80000BBF1000F2E6001D00AF081FD4FF480002060D8F8580040F20F2148
:2011EC006FF31F40814215D9D8F80000D8F80030C0F30365C3F3034005B16D1E072805D048
:20120C0006280EBF0720801C00F00F0045EA001007F8080CCAF38140401E02D0401E28D0AF
:20122C0024E0D8F8D000810C20D24FF480412160D7F80210420AC0F3033502F0800221F05D
:20124C008F010A4345EA0201C7F80210D7F80120031263F30302C7F80120396800F0E705E5
:20126C0021F0E70145EA0100386002E04FF0004020604FF4007020640AF01CFC40F0300017
:20128C00334F84F8C800CAF3815088B3401E03D0401E20D002211FE030460AF085F80546DA
:2012AC000420294607F076FC04200AF07DF88542FAD10198056825F07F4009F043FA384673
:2012CC0014300068036807214FF06022280E98474FF4806020600321042007F05BFC0EE0C6
:2012EC0094022243A83F00500000094044600C400420314607F04EFC124809F023FAD8F85B
:20130C00B0001149114B47F6180500F03F0084F8CB0F3A460D8018681068C168022088475D
:20132C00402102980B4C016005B02660BDE8F08F0A600840981300500000204300800C40B3
:20134C0000A00C40BD37860070B00C402C200940A0010010940460422DE9FF47A24C0F4690
:20136C000546F80B80F01E81B80880F0A380B80F63D2E07A002848D1380948D30025012672
:20138C0065706079667208B1984805709849216198492A4604F14C000AF091FDA0790128EE
:2013AC001AD1E079C0B9944E306870B10AF0E0FA61693368401A000BE061226A8018B0EB2B
:2013CC00C31F28BF256208D2206204F1CC004FF000510AF05FFA2DE0A67104F1380040F62A
:2013EC000901018094F8451001F0F00141F0010184F84510658794F8441001F0F00184F865
:20140C004410E5637D4E306014E0380910D2B80BC0F0E180A66A46B1706830B17568F068E9
:20142C00B6F9101078A20CCAA84727F40057D2E00020E07227F00807CDE0714904F14C008E
:20144C0000220AF03CFDE86840F6C411814216D1042009F0A9FF90B1606980B1A06970B9F4
:20146C000AF086FA6169A061814226BF401A401E401A000BE860E86800F58D70E860E0792B
:20148C0058B10220ADF80000684609F023FE0020E071BDF80860A4F89C60012060702079F8
:2014AC000026401C2071192026720AF073FB27F0005790E004F1300ADAF80060002E69D02E
:2014CC00B06840F603031A4606F10C0C2025521C02E040686D1EEDB268B165B101888B4251
:2014EC0018BF8A42F5D1DCF800102CC818312CC129C881E829000025326A35627368DBB127
:20150C0096F8243042F002024FF0000990465B1E07D05B1E03D09B1E06D13DA002E03EA0C0
:20152C0000E03FA090E800037268F068B6F910104B4694464246E047B4F93600401C6FF3A9
:20154C001F30E08650460AF0CDF8F068B0F98C10B4F9362091421DD1217801291AD090F8DF
:20156C008E3093B9036883B1E1680968B1F1FF3F10D0244909686830B3FBF1F10AF09CFDA3
:20158C00F06868300AF094FD04E080F88E50284606F056FEDAF8000027F0020708B147F0F0
:2015AC00020718E00AF080FDE66A356A0AF078FDA8080ED26EB1306AA8433062706840B1BA
:2015CC007168F068B6F9106000232A468C463146E04727F4804727B104F1CC0039460AF0B8
:2015EC0059F90090BDE8FF87D814002002620840417500006DAF0000203200200010044082
:20160C008D360000CCD70000000000002000000000000000000000100000000000000040E8
:20162C0000000000000000202DE9F8430C4603461546DFF894C2A24EDFF888E2A4499F4805
:20164C00A24A0027A3F20138B8F11A0F1CD8DFE818F0290125011F011B00FC00F700E000AA
:20166C00CF00C800C100B900B100AA001B001B00A000930085007A006D001B001B001B00CC
:20168C001B0051001B002600282B06DA022C04D12988184608F06EFCD0E002270BE1012CF8
:2016AC0040F00281C178012900F0F08002792978017182B9002900F0FE804078012800F077
:2016CC00D680042800F0D380062800F0D080052800F0CD80EFE02978002940F0EC80417873
:2016EC00032900F0CF80072900F0CC80052940F0E280C7E0012C40F0D7802878012840F0F3
:20170C00D38006F1F0000AF025FA68B93446384604F13E0105F07EFA071C40F0CC8004F11C
:20172C00CC000AF0D5FBC6E01627C4E0022C40F0BB8029880A29C0F2B780B1F5486F00F3CA
:20174C00B380704616E0022C40F0AE802988B1F5FA7F80F2A98070460180ACE0022C40F086
:20176C00A38029880629C0F29F80B1F5486F00F39B806046801CEFE7022C40F095802988E2
:20178C000629C0F29180B1F5486F00F38D806046E2E7012C40F088802878022880F28480DA
:2017AC0002F10C010CE0012C7ED1287804287BDA0B3105E0012C77D12878082874DA0A31A5
:2017CC00087078E0062C6FD1296810460160AE88868070E0012C67D12878042864DA09313E
:2017EC00EEE7012C60D1287804285DDC0831E7E7202C59DA06F1870839461F22404604F05F
:20180C004BFF29462246404604F04EF9F47139460FE0202C48DA06F1680839461F224046EC
:20182C0004F03AFF29462246404604F03DF9B471012170782246434607F000FB07463AE06F
:20184C00022C31D12988113086E7012C2CD1017901291BD0C2782978C17062B900292AD0EA
:20186C004078012803D0042818BF052823D1012009F0B0FF1FE02978E9B94178022918BFBE
:20188C00052918D100780AF0FDF814E0122712E0042C09D129681F3001600CE0102C03D158
:2018AC00573004E0102C01D0182704E047302946102204F0F9F83846BDE8F88321050020A0
:2018CC0020050020640500206005002052050020200500202DE9F04F0128ADF1140D40F080
:2018EC00F280DFF81492D9F8DC00012840F0E9800220C9F8DC000AF0CFFB0290012007F051
:20190C0051FB20B101210646C9F8DC10D5E00AF0BFFB03906E484FF00008C0F80080012031
:20192C0009F042FD012818BFCDF8008004D1404606F030FE0120009066486E4CC0F800804E
:20194C001934D4F8FF0F11200AF0D6F900280CBF4646012610200AF0CFF908B146F00206CB
:20196C000F200AF0C9F908B146F004060B200AF0C3F930B1584800685849006B02460888C9
:20198C0090470A200AF0B8F90028404618BF01204FF0805B0BF5DC7528B128685049006B11
:2019AC000246088890474F480127076028688069014646F0200088474B4807600AF096F9DE
:2019CC0000F001010191400815D248480AF0FFF88246BAF1040FF8D0BAF1010F06D1DBF814
:2019EC00D801406802464148032190474049086820F003000860404600F080F82868D4F8D0
:201A0C00FF1F806B8047019801280ED0BAF1010F06D1DBF8D801406802463448394690474A
:201A2C003349086840F0030008602A480760286840690146304688470B200AF05DF928B121
:201A4C0028682649C06A0246088890470A200AF053F928B128682249C06A02460888904785
:201A6C00204807600322C9F8DC201F4BC3F800802868406B0146304688470128F8D1042027
:201A8C0007F090FA124807601A48D4F8FF1F01688909FCD30098012802D1384606F07AFD63
:201AAC000AF018F9082007F07DFA06460398C9F8DC700AF0E9FA06F0D3F902980AF0E0FA78
:201ACC0002E0042600E00126304605B0BDE8F08F0C40094000022243B80100108AD2000077
:201AEC0086D200002820086080010443004003402422084014100940301A00202DE9F84FC5
:201B0C0082467A48DFF8D89135380068800880F0D78009F07BF8054678480830D0F80080D4
:201B2C0000244FEA2876761C5FEA98500AD2C5F13E0015F10A0F4FEAE000D8BF082086424C
:201B4C00B8BF061C634FD7F87C01C0F304600AF04CF883463868C0F304400AF046F806EB04
:201B6C000B020090162A05DA12F10A0FB8BF6FF0090200E01522584B584F02F01F0141F4F8
:201B8C00F8511980396811F0030F18BF0124C90828BF44F00204BAF1000F18BF44F00404E8
:201BAC00494691F90730EB1A052B04DA8B79A34208BF888863D0DFF82CE10F2DA5F10F03FB
:201BCC0025DB03EB03134FEA232CBCF1070F88BF4FF0070C6746062F88BF06275EF827003E
:201BEC00042606EB87067746BE59361A06F0FF07E00824BFC6F307200744A00824BFC6F3D7
:201C0C0007400744600828BF07EB166701E00027BC465EF82CE0E0080EF0FF0624BFCEF36D
:201C2C0007200644A00824BFCEF307400644600828BF06EB1E660098A3EB0C23BFB25F431E
:201C4C008037801A06EB1726D8BF0120342208F0FF0742437A43B2FBF6F04FF6FF7282429E
:201C6C0038BF101C802D80B2888005DA15F1800FB8BF6FF07F0500E07F25CD718C711A4A5D
:201C8C0012681F280A604FF0000208D340F2FF11814206D24008521C8142FBD301E01F20AD
:201CAC008880134F11490F38000942EAC00247EA0200C1F8FB0F0026C1F8FF6FBDE8F88FA7
:201CCC000D4F0C4E494608203760891D0870BDE8F88FC0463C1100506E6208402422084061
:201CEC00243200209C130050082009403500094000E7A48030100940FDFDA400AC3F005007
:201D0C00754A2DE9F84F074621F00040884682420AD9724981422DD955A20CCA4146384632
:201D2C0000F0ABFCBDE8F88F6D4A0FF24C1982420AD8C0F3130057EA000601D1080815D23B
:201D4C0038460B460246EBE74DA20CCA384604F062FA98BF0FF2301905D94DA20CCA384639
:201D6C0004F016FA06D85F492220086099E80300BDE8F88F48A696E80C004146384600F006
:201D8C007CFC05464FF4002202EB0532120D140596E80C0000F06CFC0B4602464146384633
:201DAC0000F066FC504B803505F0FF056A0003EBC20595E88001561C03EBC6030CCB00F06F
:201DCC0057FC4A4D89468246A542CCBF484E494E4B4652464146384601F05CFE30A20090FC
:201DEC000CCA8B464946504601F054FE2EA20CCA00F043FC4B46524601F04CFE2CA20CCAEB
:201E0C0000F03BFC4B46524601F044FE36192AA20CCA00F032FC4B46524601F03BFE28A207
:201E2C000CCA00F02AFC024600980B46594601F031FE0B4602464146384600F01EFCA5422B
:201E4C000BDCB4F1804F05D10B46024600F015FC1DA207E03346002205E03346002201F0F9
:201E6C0019FE1BA20CCA01F015FEBDE8F88FC046000000000000F03F000000000000000047
:201E8C000000000000009040000000000000F07F0000000000CC90C0000000000000B842E1
:201EAC00745C870380D8553F0004F788ABB2833FA6A004D7086BAC3F75C582FFBDBFCE3F6B
:201ECC00EF39FAFE422EE63F000000000000E07F0000000000007001000090400000903CD5
:201EEC000000F07F28240020D8C00000000030C00000707E0000F03F2DE9F0411C46154652
:201F0C008C4208BF854282BF00230022E5E0002C08BF002D0AD100290EBF00286FF0000096
:201F2C006FF0000100F0E1F8BDE8F0815FF000085FF0000E002C08BF8D429CBF2C1C002518
:201F4C00070C47EA01470E0CB44208BFBD429EBF5FEA044444EA15445FEA0545070A47EAC9
:201F6C0001670E0AB44208BFBD429EBF5FEA042444EA15645FEA0525470847EAC1774E0823
:201F8C00B44208BFBD4200F29380870847EA81778E08B44208BFBD427CD8C70847EA41775E
:201FAC00CE08B44208BFBD4266D8070947EA01770E09B44208BFBD4250D8470947EAC167E8
:201FCC004E09B44208BFBD423AD8870947EA81678E09B44208BFBD4224D8C70947EA41672F
:201FEC00CE09B44208BFBD420DD8E60146EA5566EF01B14208BFB84201D3C01BB14158EB03
:20200C0008085EEB0E0EA60146EA95664FEA8517B14208BFB84201D3C01BB14158EB0808F0
:20202C004EEB0E0E660146EAD5666F01B14208BFB84201D3C01BB14158EB08084EEB0E0E00
:20204C00260146EA15762F01B14208BFB84201D3C01BB14158EB08085EEB0E0EE60046EA3F
:20206C005576EF00B14208BFB84201D3C01BB14158EB08084EEB0E0EA60046EA9576AF000D
:20208C00B14208BFB84201D3C01BB14158EB08084EEB0E0E660046EAD5766F00B14208BF2D
:2020AC00B84201D3C01BB14158EB08085EEB0E0EA14208BFA84201D3401BA14158EB0808C9
:2020CC005EEB0E0EA34208BFAA423EBF2D0A45EA0465240A89D3734642461E4617460B464E
:2020EC00024631463846BDE8F08170472DE9FE4F724C04F12406306815460F46009009F0B9
:20210C00D3FF01903846B0F1FF3F05F001070CD1A06A20B9B4F93600401C00B202E0A06A59
:20212C00B0F91000002184F8A510A16A821000EB527222F00702801AC20002EB4012A018CE
:20214C0000F59C78414500F083800098804549D000284FF003073FD04FF0000904F1A80B0B
:20216C00CA46006880451ED1584609F043F800980768C0F800A00198009709F091FFA8088D
:20218C000ED297F8240040F0040087F82400684609F0A8FA014606F10C0008F023F801E042
:2021AC004FF001098327B9F1010F03D00098006800900EE0009991F8240040F0040081F822
:2021CC002400684609F08EFA014606F10C0008F009F800980028C4D1832F24D0019809F0D0
:2021EC005FFF20E004F1A80009F004F8A8083ABF606A006800206062019809F051FF0C3602
:20220C00009991F8240040F0040081F82400684609F068FA0146304607F0E4FF009808B1AA
:20222C00A808EDD28327207A60B9254904F1CC002161022109F02EFB607801281CBF21488B
:20224C00206138E004F1CC00022109F023FB32E0A80803D3606A00900023636298F8241040
:20226C000120B840084388F8240009F011FF0446002F14BF1448154808F02CFF019809F087
:20228C000FFFA80813D3009888B10C36014691F8240040F0040081F82400684609F022FAF3
:2022AC000146304607F09EFF00980028EED1204609F0EAFE83273846BDE8FE8FD814002095
:2022CC00651300000D55000001000204010001042DE9F04F8346ADF1840D01F0BFF806F020
:2022EC0089FD4FF00009012805D109F03BF9022808BF4FF0010960490868C0F381500128D8
:20230C0006D151F80C1C0120090E884040EA09095A495B485B4D09780068C0F346002860D5
:20232C0006F068FD2C46012807D109F01BF9022803D12068401C206000E0206838B1FF22E2
:20234C0004F1400107467F1E01F8012BFBD1DBF80010002601F0FF02FE2A1BD08C46DE465C
:20236C00324601270CF0FF01884204D907FA01F319EA030F01D002207AE00CF0FF015EF865
:20238C0004CF61181E4381F84020521C0CF0FF01FE29E9D1092002F07FF8C4F804B001A8B5
:2023AC0000212422082309F067FE4FF0010804F1240001AA8DF81C80414609F059FE236892
:2023CC002BB300279435BA4608FA07F019EA000F17D1064204BF07F0FF0141F4C04104D024
:2023EC00E01990F840005BF82010274802F06AFEF8B24FF0FF3108F0F3FF2368C5F800A0D9
:20240C0001E0042028607F1C2D1D9F42DCD30AA800213022082309F027FE1C4E3078002509
:20242C0010210AAB12901A4A009504F1080009F017FE16A828220823294609F00DFE716885
:20244C0004F1600016AA1C9112491D952B4609F0FFFD114A52F80D0C414620F4F85040F466
:20246C00005042F80D0C0D4BC2F8FF1F2846196021B0BDE8F08FC046B43F005031320020D5
:20248C0080120840902E0020007FC76754D7000009B40000819000000D30094008000940FB
:2024AC002DE9F843814609F00FFC002100B901216B4E30680028FCD06C4D01242D1DEF6A32
:2024CC00346009B109F006FCDFF89881C7F3072008F1BC01086009F0F7FB002100B921468C
:2024EC0030680028FCD02F68346009B109F0F2FBC7F38440C8F8C00009F0E6FB014600203A
:20250C0001B92046014630680028FCD0ED69346009B109F0DFFBC5F38120C8F8D000B9F5AE
:20252C00C061C8F8B81000F0968098F8D80068B9C8F8D410D8F8C000C8F8C800D8F8BC709F
:20254C00C8F8C470D8F8D060C8F8CC60D8F8D410D8F8BC60002954BF02206FF001004546A6
:20256C0005F1C8031A6801EB41014018411000EB917002EBA0021A60D5F8C810C5F8C460BA
:20258C0000291CDD1E293DDDD5F8CC0030B93429B4BF15391E21C5F8C81025E02A29BABF67
:2025AC00D5F8C8000B381E20C5F8C800D5F8C4003F28B4BF401C3F20C5F8C4001FE0D5F801
:2025CC00CC00032812D011F10B0FC6BFD5F8C8000B30201CC5F8C800D5F8C4000028CCBFA0
:2025EC00401E0020C5F8C400032009E011F1150FC6BFD5F8C8001530201CC5F8C80000205E
:20260C00C5F8CC00B5F8C400174E30214FF47F4208230090304606F059FC009404214FF482
:20262C0000321123304606F051FCB5F8C80004214FF4F80212230090304606F047FCB5F877
:20264C00CC0020214FF440620A230090304606F03DFCBDE8F883002088F8D800BDE8F88362
:20266C0000800C40301A002000A00C4000A00C402DE9FC4F83F0004301E02DE9FC4F1F03C5
:20268C00FF0847EAD2574FEA42284FEA43095FEA595906D147EA080A1CBF00210020BDE8CF
:2026AC00FC8F57F000575FF4E06E1EF1FF0EF14505D14FF00000190D0905BDE8FC8F002B4E
:2026CC0005D55FF0000AD8F100086AEB07070C03E40844EAD0544FEA40254FEA4106760D99
:2026EC0008D144EA050A19BF00210020191C101CBDE8FC8F44F00054764504D10020090DC0
:20270C000905BDE8FC8F002904D55FF0000A6D426AEB0404B6EB090E08D5A2463C4657466C
:20272C00AA464546D046CEF1000E4E46BEF1360F5CBF4FF0000B23E0BEF1000F04BF4FF07F
:20274C00000B1AE0CEF1390ABAF120092EBF08FA09FB07FA0AFB4BEA080BDEF1200A07FA57
:20276C000AFA38BFBA4647FA0EF72DBF28FA0EF8AEF1200E4AFA0EF8D04415EB08057C4103
:20278C0054EA050A02BF00210020BDE8FC8F002C58BF4FF0000A06D55FF0010A5FF0000E90
:2027AC006D426EEB0404A6F101066D006441FAD515F4806E11D005F480794BEA090B15F561
:2027CC00806554F1000428BF761C0BD205F400795BEA090B08BF25F4006525F4E0656D008E
:2027EC0044EB0404B61CDEBF00210020BDE8FC8F5FF4E06E1EF1FF0E76450AD34FF0000022
:20280C0013F00043FF21C900C91D09051943BDE8FC8F270547EA1530210B41EA065141EA82
:20282C00CA71BDE8FC8F70472DE9FC471E4692460D46814609F038FC5D4C0AAF40F6F8718D
:20284C00B4F93630B4F934200095D21A1140082902DB09F025FC41E0B4F93410491C6FF385
:20286C001F31A186B4F9348009F01AFC4046811000EB517121F00701401AC10001EB401130
:20288C00651809F1680008F0B5FC05F59C7585F812A00098A8606E60C5F80C90A5F8108076
:2028AC0097E80C0046A696E8030005F1180700261040194087E8030004F1240085F82460A4
:2028CC000768002F58D1294607F08CFC48B9B4F9340000F6FF706FF31F30A0866FF00108B1
:2028EC0063E0A9F88C8009F0DFFB89F88E60A17A41B1617831B10121E172A672E671217954
:20290C00491C217109F0CCFBA06A00284DD1607870BB207A012848D009F0C6FB0646607AE6
:20292C00F8B9A86806F0F4F9234A2249E3681268086040B9304609F0B3FB04F1CC000421E6
:20294C0008F0A8FF31E0D8680968091A04F1A800B1FBF2F109F0B0FB04F1A80009F0A8FBDE
:20296C0020E0304609F09CFB1449012008701CE0192009F00FF918E009F096FB06462946DC
:20298C0004F1240007F02EFC002818BFA9F88C8008D1B4F934006FF0010800F6FF706FF35C
:2029AC001F30A086304609F07BFB4046BDE8FC87D814002020320020CCD700001C32002074
:2029CC00F1EFFF9F200000002DE9F84F0D4683462868DBF80440DBF80880002800F0AF808B
:2029EC0009F062FBD4F8881021B109F059FB03202874A4E001212974C4F8885009F050FB18
:202A0C0094F8A40038B194F88D204E49D4F89C00114307F0B3FB6F6809F046FB04F1D8067C
:202A2C008146307850B917F0704F02D1042007F0C9FD022007F0C6FD01203070484609F074
:202A4C002FFBD8F80090D9F8040040F00200C9F80400DBF80830DBF804C0D5F800E0196844
:202A6C009CF88C201FFA8EF0B1F1804F00FA02F01FFA80FA14BF344E344E3548AA6832B932
:202A8C009CF88C108F00C2590CF1A60108E09CF88C108F000AEB0201C21952F8082C491E4D
:202AAC00B2607160196801F10808C6F80080B2684FEA0E1143F6F07E10390EEA01010A43BD
:202ACC00B2601E68B6F1804F14BF224A224A6D68002D04BFC05903F10E0504D0C01950F857
:202AEC00100C55446D1E90601560C2F80480906801439160DCF8A0005F69426819691268D8
:202B0C0047EA01009062706A40F003007062D9F8140040F00100C9F81400207828B9616879
:202B2C006C34204609F090FA10B10120BDE8F88F584601F025F92046002109F085FA002026
:202B4C00BDE8F88F00000680000500203004002054D3000010050020400400202DE9FC412B
:202B6C005D4C564D564EDFF85C81594F94F8E410481E0B2800F29F80DFE800F0772C430630
:202B8C002343062343067260042907D001220A2945F8212C14BF0220032004E0202101203D
:202BAC0045F8211C024684F8E200002045F8390C0827C5F8FF7FC5F8F37F45F8392CBDE867
:202BCC00FC81052914BF09200620002584F8E40035606CE094F8E1700120383D002FC5F857
:202BEC001B0004BF0620002102D00021F160032084F8E400032045F8010C316030688008BF
:202C0C0055D294F8E400012503280DD00021404660220523009106F059F994F8E40006281B
:202C2C0014BF0A200720D1E702200090002160220523404606F04AF90420C7E7224900260D
:202C4C0022480E60012505600E2001F051FB022007F0A0FC84F8E45084F8E360BDE8FC8154
:202C6C00002038600C2578601FE01A48006800680146202088472C3D41F61D560F2000219D
:202C8C004FF4C072072345F8010C4046C5F803600225009506F01AF9404600214FF4C072B8
:202CAC00072306F0F3FA0120386084F8E45004F1780009F0FDF9BDE8FC81C04639400C4049
:202CCC0038600C4000A00C402C500C4004800C4034600C40A0010010301A0020B0B5456873
:202CEC0084685148297BADF1180D01291AD001462F7E227E637E4D4837F0010741EA020260
:202D0C0040EA030001904A48009218BF011CA27E1143029195F88D200323FF2A13D0014617
:202D2C0010460DE0A17E627E237E41F00041024343F00043029195F88D0000933D4901921E
:202D4C00014304230391FE2105F190004DF82310694602F0F7FEC5F89C00002808BF00204D
:202D6C005FD0287B344951F8200001282BD02068B0F1804F14BF22220A22217ED5F89C0028
:202D8C0007F06AFE2068B0F1804F14BF21220922617ED5F89C0007F05FFE2068B0F1804FFB
:202DAC0014BF24220C22A17ED5F89C0007F054FE95F88D10FF2933D02068B0F1804F14BFCF
:202DCC0023220B2228E02068B0F1804F14BF21220922217ED5F89C0007F03EFE2068B0F1D0
:202DEC00804F14BF22220A22617ED5F89C0007F033FE2068B0F1804F14BF24220C22A17EE7
:202E0C00D5F89C0007F028FE2068B0F1804F14BF23220B2295F88D10D5F89C0007F01CFE3F
:202E2C00012006B0B0BDC046000480A0004000800004C0A0002000803CD300002DE9F04FF0
:202E4C0004466668A7680D46ADF1440D09F02CF996F8DC10012903D109F022F900208AE0C9
:202E6C004FF0010B86F8DCB009F01AF9E868D4F8048028B9A06890F814A090F8159003E010
:202E8C0090F800A090F80190BAF1FF0FE6D0B9F1FF0FE3D0394941EA0A000D90FE220F92F6
:202EAC0041EA090108F198000E910DA902F04AFEC8F8A400D8F8A4000028CFD051460D224C
:202ECC0007F0CAFDD8F8A40049460E2207F0C4FD2878307068687060287A0021302208231D
:202EEC00F06001A809F0C0F806943A7B099200250095234AB96806F1100001AB09F0B0F896
:202F0C0001A828220823294609F0A6F8396907911C49059406F12C0001AA2B4609F098F881
:202F2C0001A824220823294609F0A6F806F160008DF81CB0594601AA09F09AF8307838B94F
:202F4C0006F17C00294601AA09F092F80E4870603572C6F8BC50C6F8C050786801F09CFA89
:202F6C00204605F08FFF094A06F1C8000421234607F0B0FE204611B0BDE8F08F0020008428
:202F8C00993C000093800000FBBD000091BB00002DE9F04306467768B5680C46ADF1340D77
:202FAC0009F082F897F8D9102D1D012903D109F077F8002084E04FF0010887F8D98009F0CD
:202FCC006FF84FF00009C7F888902069386160697861207E3876207B387320783870606801
:202FEC0087F8A490786060694946092828BF414687F88C10287A01F04FFA304605F0C8F821
:20300C00E87D87F88D003046FFF768FE50B9287A01F06EF909F048F887F8D99009F040F80C
:20302C004E464CE001A849463022082309F01CF806966878CDF80090234A0990297801ABDE
:20304C0007F11C0009F00CF801A828220823494609F002F80596696807911C4907F138001A
:20306C0001AA4B4608F0F4FF387878B901A849462422082309F000F807F16C008DF81C801D
:20308C00494601AA08F0F4FF114800E0A068B86003F0B2FF397BC7F8A000012908D1D7F81D
:2030AC009C000C4908F01CFED7F89C0000B18660094A07F1C4000421334607F00BFE3046DC
:2030CC000DB0BDE8F083C046BD550000518400000BBE0000419C000065BD00004C4B2DE9AD
:2030EC00F04F0C46283BD97AADF12C0D86460591587B0A90997A0491987809909A7993F8E8
:20310C000C9093F805A0597A588B0391B3F846800890197A188B02915E8A0790D979D88A88
:20312C000191DF7806901979988A0091196AAEF5407C0025BCF11D0F10D8DFE80CF0635C75
:20314C0059575553514E4A474543403E3C0F3835322F2D272422200F1D1B1A18BEF1280FA3
:20316C00A8BF02254FDA704606F0F0F923E0DDF82890CA46CDF824A0099805901DE00898FB
:20318C00079007980690DDF8188005E03833186820609888A08036E040460AE0B3F84400E5
:2031AC0009E0B3F8420004E0B3F8400001E093F83E00064614E0208025E005980490049802
:2031CC00039001E03233E2E7039802900298009008E0019A03F1870110E003F168010DE0B1
:2031EC003046E8E7009F0DE02C33D0E721600AE003F1580101E003F148011022204602F07C
:20320C0053FC00E0277028460BB0BDE8F08FC046480500202DE9FF410646880FC0F0828031
:20322C00454C464D41484FF00008611D1C350F78C5F8008045F81C0C27B13D4880F8008041
:20324C00202181703E4A94F84470C44640F60A0104F13800226194F84530A4F83AC007F0DF
:20326C00F007018003F0F003C4F83CC0B26884F8447043F0010384F84530171DA2F802C02A
:20328C0000E01F1D3B6813B11A889142F9D138607A7A02F0F0027A72626A92681288C91FBC
:2032AC0091421ED0491C91421BD006F118010B88CBB196F8243096F82520C6F81CC003F0BD
:2032CC00F00302F0F00286F8243042F0010286F82520E163417BA6F81AC001F0F001417333
:2032EC0001E0C4F81480B068694607F003FF684608F020FCB068FDF746FE28680028FCD03B
:20330C00C5F80080012008F04FF8012807D0787A00F0F00040F001007872064B2361B0682A
:20332C0045F81C0C0090BDE8FF81C04601010E0400620840C9890000D814002000100440F1
:20334C00651300002DE9F0470C469046DFF8F890414D3F4F3D493F4AD9F8003008284FF07A
:20336C000006ADF1180D69D8DFE800F05F5B4C4844403A1105C0072C59D14046828805F1BB
:20338C0008018A8087798F710068086057E003940420ADF80A004FF0080AADF808A002A855
:2033AC009847D8B904980746C0B1696805F1170088420BD005214846ADF802106A68ADF8D2
:2033CC0000A00068019201466846884738464146224602F069FB6F602C7030E013262EE0FD
:2033EC00142C24DC01F11505294601E0142C1EDC0D460BE0142C1ADC3D4606E0142C16DCDC
:20340C003D4603E0142C12DC1546153528463146152203F041F928464146224602F044FB90
:20342C000DE0142C03DC1546DEE7082C01D0182605E0404642686A394A60A5E70226304685
:20344C0006B0BDE8F087C04648190020C91700209F17002075170020501700202DE9F041B7
:20346C00434C94F8E700ADF1280D00286CD1384F387B01250021242284F8E750082384F8E5
:20348C00E60001A808F0DCFD002604F10C00069601ABADF814602F490796324608F0CCFDEA
:2034AC002D4904F1300001AB324608F0C5FD2B4904F1540001AB324608F0BEFDB86801468C
:2034CC0028468847DFF89C8025487B7B0078D8F80410C1F381571BB1032F03D184F8E150E6
:2034EC00032F16D0022F14D0012F26D103201E4C009031464FF040521C23204605F0E6FC8B
:20350C00009531464FF400720923204605F0DEFC13E0022007F056F8032F0CBF4FF47A71F8
:20352C0042F21071114800685434B1FBF0F1204608F0C2FD204608F0BBFDD8F80000C00829
:20354C0002D2304607F03EF80AB0BDE8F081C0469CD60000A33800006D5F0000296500006B
:20356C0031320020B03F005000A00C40CCD70000301A00202DE9F0413E4F3878002876D092
:20358C003D4C208910F07F0F00F07F086DD006F053FA3A4E21783578A0700DB902293AD18E
:2035AC002279C30917D2400824D304F1140006F017F904F11A0006F0D7F8E578E088002D9B
:2035CC0008BF217816D00021E17021784FF47A7292FBF0F009E0521CD0B20228207109D184
:2035EC00E0884FF47A72B2FBF0F002B2500000EBC200E0600025022935700CD12089C00966
:20360C0009D304F1200000F0C7F9052822D008B104F0CAFB2178E66816B901291BD124E09C
:20362C00022904F1140509D0022020700026267100F0C8FE10B1404600F096FF2089000AC8
:20364C0002D3E068401EE060002012212A4603F0F9F90AE0E560002020710126267000F06E
:20366C00B1FE10B1607800F0D5FD00203870BDE8F081C0462E320020942000202F3200207B
:20368C00F8B508F00BF83F4E3D4F0446A00823D3B96A09B33D4600208B690A6AA86204EA93
:2036AC000300104340F0020006F1080208628B6910689843106001F1180090E80C0030682E
:2036CC001A1C9043306005F1300006F08BFD022105F1CC0008F0DEF8B86AA10816D200F14A
:2036EC0018020CCA002122400B40002B08BF002A0CD08269016A1440F86207F1CC020C43EF
:20370C0004624FF48041104608F0C4F8B86A002834D107F12404256885B3F868E96888427A
:20372C0026D1A86805F0F4FA17490860E0B906F10801A8690A6810430860326805F1180349
:20374C0093E80300081C1043306000233361A86846F80C0C06F1100000680028FAD02046F4
:20376C0007F0C0FFBD62F8BD086804F069FDF8BD07F1CC004FF4805108F08CF8F8BDC04625
:20378C00D81400200C100440203200202DE9F0430646ADF11C0D08F04BFC06F09BFE4FF0D6
:2037AC0000090546CDF8089008F0DCFA30F0010002D00298A84202D16FF0040068E07068B1
:2037CC004C4658B1B0F1FF3F05D001A906F06AFE30B107465BE04FF0FF3000E020460190D8
:2037EC0008F022FC0199012701EB000802E013463DE001936868019908F026FC00282FD05A
:20380C0003A804F0A0FDE0B99DF81000694606F019FC90B9B268BDF800009DF81210134640
:20382C00059A984748B1BDF800009DF81210B081059BB1734F46336112E0059902A806F04B
:20384C00E7FB0198641CB0F1FF3FD3D00028D1D008F0EAFBB8EB000302D001989842C8D2B4
:20386C00029E07F069FD05F1080146B1334653F80C2C002ABBD10A6843F80C2C0E6008F04C
:20388C002CF824B1686808F0CBFB641EFAD1384607B0BDE8F0837047F0B5ADF1340DFFF7CA
:2038AC00DDFD344908682822082340F00200086001A8002108F0D0FB2F4FB978354C0791D1
:2038CC002E49002301AA04F1CC0008F0C1FB00213022082301A808F0C7FB38780026192111
:2038EC00ADF81C60264A099001AB009604F14C0008F0B6FB2822082301A8314608F0ACFB32
:20390C00F97807911F4904F5807001AA334608F09FFB01A831463022082308F0A5FB012530
:20392C007878ADF81C501A2101AB0990164A009604F1680008F094FB1449324604F1A800AE
:20394C00134608F079FB1248206105F053FA3146012808BF291C84F8A560A67126726672C5
:20396C00A672E672E57161714FF6FF70A4F89C000DB0F0BD00200940C2D7000005B5000091
:20398C006DAF0000E14D0000F5850000CDB400000D550000D8140020FEB53D4C05460621BA
:2039AC00601C017008F00CF818B908F0B7F90020FEBD002601206821667002F0F3FC2220F5
:2039CC00694601228DF80000372006F043FE08B90520607008F0A2F96078002818BF301C8A
:2039EC0054D101200C2102F0DDFC02206946012207F089FF00283CD09DF80000400836D3F0
:203A0C0003200DF10101072207F07DFF68B39DF80700000927D29DF802709DF801009DF8F0
:203A2C0004609DF803109DF806309DF8052040EA072041EA062142EA032200B2288009B2E0
:203A4C00698012B2AA80B4F90830584300122880B4F90A00414308126880B4F90C004243CE
:203A6C001012A88007E0032004E0042002E0022000E00120607011208DF800006946012281
:203A8C000A2006F0E7FD08F049F96078FEBDC046B02100202DE9FC4191EA03084CBF4FF02F
:203AAC0000484FF000084FEAC32545EA52554FEAC2264FEA43077F0D11BF45F000450021D9
:203ACC000020BDE8FC815FF4E06E1EF1FF0E774555D04FEAC12343EA50534FEAC0224FEAB9
:203AEC004104640D11BF43F0004300210020BDE8FC81744543D0E419A3FB0501A3FB06E763
:203B0C00A2FB06631EEB030E57F1000751F10001A2FB05631EEB060E57F1000751F1000133
:203B2C00FF1851F10001C01951F100014CBF4FF4806E4FF4007E10EB0E0051F1000148BFB3
:203B4C00641C01D4400049415FF44077FF37E41BDEBF00210020BDE8FC8117F58067BC420A
:203B6C000DD24FEAD02040EA41504FEA41014FEA113141EA045141EA0801BDE8FC8100208A
:203B8C00FF21C900C91D090551EA0801BDE8FC8181F000412DE9FC414FEA01244FEA4105F4
:203BAC002D0E04D1002C18BF0020BDE8FC8144F00044FF2D5ED04FEA9404002948BF64422B
:203BCC004FEA00224FEA40031B0E05D1002A14BF0020081CBDE8FC8142F00042FF2B4AD0E8
:203BEC004FEA9202002848BF52425E1B41BF171C221C3C1C764248BF2B1C192E47BF44FA56
:203C0C0006F73A444FF0000803E0C6F11C0704FA07F8002A04BF0020BDE8FC8146BF524254
:203C2C0001270027A3F101035200FBD512F080040DD002F0200548EA0508803228BF5B1CA6
:203C4C0002F0400458EA040808BF22F480729B1CDCBF0020BDE8FC81FF2B0ED222F0FF0254
:203C6C004FEA42024FEA522040EAC35040EAC770BDE8FC8108464FEAD0774FEAC777FF20EC
:203C8C004FEAC0503843BDE8FC81704798B53A49826844680968106849688847374B012207
:203CAC009A6160B1217AFF2909D0FF21400921725CD204201860022008F0D1F856E0207AD7
:203CCC00002853D0401E1DD0401E02D0FD3851D049E05968D4F8B4000170D4F8B800D4F891
:203CEC00B410401E491CC4F8B800D4F8B870C4F8B41017B3012F88BF092202201A6008F049
:203D0C00AEF898BDD4F8B000401EC4F8B000D4F8B070A7B9D4F8B8707FB10220D4F8A81040
:203D2C002072097C012F4FEA410141F0010143F8041C94BF03220B22E0E7042210E0D4F8D9
:203D4C00AC0000785860D4F8AC00022F00F10100C4F8AC00D1D2D4F8B870002FCDD10522ED
:203D6C0000202072C9E7FF20207298BD04F12C0008F052F998BDC046AC01001004280040E7
:203D8C002DE9F04706467468B56808F08DF9D4F88810002964D008F083F92968486820F081
:203DAC00020048602968486A20F003004862D4F8A0006F6941682A69096847EA0200C1F870
:203DCC0004052968486920F00100486128684FF00108C0F82080304606F090FFD4F8880053
:203DEC00D0F8049008F060F904F1D8078246387850B119F0704F02D1042006F0CBFB022020
:203E0C0006F0C8FB00203870504608F049F9D4F88810087C042803D003200874D4F888105B
:203E2C00D4F8A00043682A6968691B68474610438740DF622868B0F1804F14BF0A480B4818
:203E4C00026808689204A0EB9250401E0860A06800230246C4F8883030469047BDE8F08763
:203E6C0008F01EF9BDE8F0870805002038040020F8B53A4BC578047944EA05242501B3F96D
:203E8C000270447990F800C045EA24151C88EE10A6EB4406C4EB251464432513B3F9044003
:203EAC0077436C43A41304EBE724877804EB840580352E12457845EA0C20B3F90A500E60E4
:203ECC00000140EA271E6010A0F57A40811049434C136C43B3F9085045436D1005EBE4059A
:203EEC004FF4004404EBA544DD886543EF1331D09C46BCF90E40BCF91030BCF90C50164EF8
:203F0C00C91260434B4340F63544290403EB400301EBA30104FB1E65081304FB1050C10F20
:203F2C0019BFB0FBF7F040004000B0FBF7F0BCF91410BCF91650BCF91240C30886085B4307
:203F4C0071435B0B49136B4301EB2331641800EB24101060F8BDC046000050C3E0310020E7
:203F6C00F8B5374C0646A078002867D0B4F93600B4F93410884206D0B6F98C1031A20CCADA
:203F8C00304601F0FBF808F08FF8E178002946D0491EC9B20029E17041D108F081F80025A0
:203FAC00A5706078B0B108F07FF80746207940B1401EC0B2207120B904F1CC00082107F046
:203FCC0069FC384608F06CF806F130004FF0FF3108F03AF806F1300008F01AF806F1680046
:203FEC0008F012F804F1CC0008F00AF804F14C0008F002F804F5807008F002F804F168008D
:20400C0007F0FAFF04F1A80007F0FEFF2570E560307C012812D10E2000F06AF9F8BD08F053
:20402C003FF8E068864204BF0020E06006F1300007F0EEFF06F1680007F0E6FFF8BDC04609
:20404C00D814002002000000000000702DE9FE430AAF3C8806460D4699469046284602A995
:20406C0006F094FD01464B4642460129304608BF012058D0BDF80810DFF8B08042F6021679
:20408C00FF27891B4FF000063AD048F2FF20091A26D0491E11D0491E30D1002C2CD1022B83
:2040AC0028D11078062819DAE86811880180E96844468C422BD102272BE0ECB9062B19DA46
:2040CC00107810280ADCE86811464A4601F0ECFC1748E96888421AD101271AE0802616E0FB
:2040EC0054B9102B06DCE86811464A4601F0DCFC37460EE00D260AE00B2608E00A2606E0D3
:20410C00009401210191294604F0F2F80646FF2F08D04046001D006820B1006810B1014660
:20412C00384688473046BDE8FE83C046901D0020981D002032482DE9F04F08214FF00108A2
:20414C00ADF11C0DADF810100068ADF81280014604A888472B4C069961609DF81400207056
:20416C004FF0FF3104F10C0001F014FB2648274D066827484FF47A77B5FBF6F9B0FBF6FA96
:20418C0038E0404606F0E2FD484607F031FF02A805F0AEFA8346002006F0D8FDBBF1000F35
:2041AC001CD002A801A96A46FFF762FE9DF805308DF809309DF804208DF808209DF8060024
:2041CC008DF80A009DF802108DF80D109DF801308DF80C309DF800208DF80B2000200621C8
:2041EC0002AA02F093FA60887843401BB0FBF6F007F0FEFE60780128C3D05046F8E7C046F7
:20420C0048190020700F0020CCD700008038010040420F00F8B5064607F0D2FB00284FD081
:20422C000120682102F0BEF800284BD02F4D09202C1D0122207021466B2006F00BFA002827
:20424C003ED007202871214601226C2006F002FA002835D001271D2021462F713A4606F06D
:20426C00F9F900282CD04020287121463A46382006F0F0F920B3C020287121463A46692049
:20428C0006F0E8F9E0B12E711F2021463A4606F0E1F9A8B10620287121463A461E2006F0E2
:2042AC00D9F968B12920287121463A466B2006F0D1F928B1E91C1C203A4606F0CBF918B9CE
:2042CC0007F02CFD0020F8BD3A2021463A4607F01AFB07F023FD002129706869024905F0AE
:2042EC004DFF3846F8BDC04607000680B02100202DE9F843044607F0D7FE81462D480219F1
:20430C0092F8ED10491ECFB2002F82F8ED704BD12B4D05EB84052E78698836F07F078846FE
:20432C001AD1F10911D24FF08054D4F8B801806901464046884704F5DC742068406B0146C9
:20434C00404688470228F8D121E000EB8800D0F80011002088471AE04FF08054D4F8B8013B
:20436C00006A014640468847D4F8B801806A014640468847D4F8B801006B01464046884794
:20438C0001210D4A0D48116001688908FCD306F03F003F2801D0FFF7ABFF687800F03F00ED
:2043AC003F2801D0FFF7A4FF484607F079FEBDE8F883C046301A0020282008602820084054
:2043CC005CD20000F8B5334D2F49686905F0D6FEFF20A87000242C7068216C70012001F0F6
:2043EC00E1FF002808BF271C4CD02C4680200122211D20716B2006F02DF907F08FFC2349EA
:20440C0023480D68B0FBF5F007F0F2FD03F0FAFC261D071C36D0022004F0E2FB07F0D0FA31
:20442C0060B304F0AFFE58B301200C2101F0BAFF30B30F203070314601220A2006F00AF94A
:20444C0042F21070B0FBF5F007F0D2FD04F10E011020032207F057FA04F10E0140B1087830
:20446C008030208148788030608188788030A08101220B203146227106F0ECF807F04EFC4A
:20448C0005F004F83846F8BD07000080CCD70000A0860100B02100202DE9F041064607F020
:2044AC0003FE2D4D8046A91991F8ED00421C002881F8ED204AD1294C04EB8604277807F0CC
:2044CC003F003F2801D0FFF7E7FF607800F03F003F2801D0FFF7E0FF668837F07F001AD1EA
:2044EC00F80911D24FF08054D4F8B801406901463046884704F5DC742068406B01463046C6
:20450C0088470128F8D121E005EB8605D5F80011012088471AE04FF08054D4F8B801C069C9
:20452C00014630468847D4F8B801406A014630468847D4F8B801C06A0146304688470121CB
:20454C00074A0848116001688908FCD3404607F0A7FDBDE8F081C046301A00205CD200009F
:20456C002820086028200840BCB5074607F028FA00285BD02F4C207840BB3FB307F020FAB4
:20458C0010B30120682101F00DFFF8B10920211D207101226B2006F05DF8251DA0B13F2019
:2045AC002870294601226C2006F054F80021217050B1E11C1C20012206F04CF820B13A2083
:2045CC002946012207F09FF907F0A8FBF8B2277048B30120682101F0E5FE48B32078211D89
:2045EC00012280F0FF0020716C2006F033F807F095FB247807F0E4F9C4F38014B0B104F048
:20460C00C1FDA8B101200C2101F0CCFE80B1002C0CBF00201120694601228DF800000A2074
:20462C0006F018F802E004F031FFBCBD07F076FBBCBDC046B02100202D482DE9F047082126
:20464C004FF00108ADF1180DADF808100068ADF80A80014602A88847264C049961609DF8CA
:20466C000C0020704FF0FF3104F10C0001F092F82148224D066822484FF47A77B5FBF6F924
:20468C00B0FBF6FA2FE0404604F0E0FE484607F0AFFC0DF1060001A902F074F8002004F0BC
:2046AC00D5FE0020694605F045FFBDF80210BDF80600401AB8BF4042082808DABDF8001067
:2046CC00BDF80400401AB8BF4042082804DB01AA0020042102F07CF960887843401BB0FBB3
:2046EC00F6F007F085FC60780128CCD05046F8E74819002024120020CCD700003832040056
:20470C0040420F002DE9FF410AAF3F880C4605469846164602A9204606F038FA0146434646
:20472C0032460129284608BF012049D0BDF80860DFF8948042F60211FF25761A2DD048F21E
:20474C006310361A012E26D81FBB012B1FD1BDF808104AF666200026884202D1117803295C
:20476C0013DA1178E2681170BDF80810884205D0E1684046884217D1354617E0E1684046BE
:20478C00401C884210D1012510E080260CE00D260AE00B2608E00A2606E0009701210191C7
:2047AC00214603F0A5FD0646FF2D08D04046001D006820B1006810B10146284688473046A2
:2047CC000090BDE8FF81C046901F00202C482DE9F04F08210122ADF1140DADF80010006852
:2047EC00ADF80220014668468847264C029961609DF8040020704FF0FF3104F1140000F0C3
:20480C00C9FF214843F698254FF47A7704F10C0A04F10E0B04F1100106681C480391B5FBFC
:20482C00F6F8B0FBF6F926E006F042F9404607F0DFFB5046594604F021F80399002005F063
:20484C00E9FD218AA089401AB8BF4042142806DC618AE089401AB8BF4042222804DB002031
:20486C000421524602F006F860887843401BB0FBF6F007F0BDFB60780128D5D04846F8E72E
:20488C0048190020B40C0020CCD7000040420F002DE9F8430D46064668687468D6F8089075
:2048AC00002710B9E868002850D02078012814D107F0FAFBD4F8BC1049B1D4F8C0108D61B6
:2048CC00C4F8C05007F0ECFB0120BDE8F883C4F8BC50C4F8C05007F0E3FB022005F072FEF1
:2048EC0004F160084FF0FF31404607F0ADFBD9F8080007F079FB3046294601F079FB0546E2
:20490C00D9F8080007F06CFB207888B9B5F1FF3F08D004F17C004FF0FF3107F095FB207ABE
:20492C0048B110E003202072022005F033FE0AE0B5F1FF3F01D0012705E00320207204F12F
:20494C002C0007F069FB404607F06AFB3846BDE8F88370471CB52D4C401E02D0401E44D0A1
:20496C001CBD07F0EDF9400931D32089FF2831D00120694605F026F9BDF8000010F07F0F30
:20498C0018D0BDF800002081022002F03DFC07F017F8A8B11E48006841F28831B1FBF0F0DB
:2049AC0007F026FB04F0FEFEBDF8001041EA0020208105E0BDF800002081002002F024FCC5
:2049CC0004F108020120022102F03CF807E0FF20083420800120FF21022206F0EBFB00201F
:2049EC001222014606F0E6FB1CBD02200DF1020105F0E8F89DF802104FF47A70484381B2F6
:204A0C0004F12800E18003F09BFD1CBD94200020CCD700002DE9FE430AAF3C8805460E46BE
:204A2C0099469046304602A906F0B0F84B4642462946012808BF012048D0BDF80800DFF8B1
:204A4C00908042F60215FF27401B4FF0000529D048F23F11401A2DD0401E11D0801E1FD17F
:204A6C00E4B9012B18D1107840B1F1680870F1684446601C88421DD102271DE0802519E053
:204A8C0064B9012B08D11078F1680870F16844468C420FD101270FE00D250BE00B2509E0B1
:204AAC000A2507E00094084601243146019403F01FFC0546FF2F08D04046001D006820B186
:204ACC00006810B10146384688472846BDE8FE83DC1B00202DE9FE430AAF3C8805460E46EF
:204AEC0099469046304602A906F050F84B4642462946012808BF012048D0BDF80800DFF851
:204B0C00908042F60215FF27401B4FF0000529D048F21F11401A2DD0401E11D0401E1FD11E
:204B2C00E4B9012B18D1107840B1F1680870F1684446601C88421DD102271DE0802519E092
:204B4C0064B9012B08D11078F1680870F16844468C420FD101270FE00D250BE00B2509E0F0
:204B6C000A2507E00094084601243146019403F0BFFB0546FF2F08D04046001D006820B126
:204B8C00006810B10146384688472846BDE8FE83701C00202DE9FE430AAF3C8805460E4699
:204BAC0099469046304602A905F0F0FF4B4642462946012808BF012048D0BDF80800DFF8EA
:204BCC00908042F60215FF27401B4FF0000529D048F2FF01401A2DD0401E11D0401E1FD18E
:204BEC00E4B9012B18D1107840B1F1680870F1684446601C88421DD102271DE0802519E0D2
:204C0C0064B9012B08D11078F1680870F16844468C420FD101270FE00D250BE00B2509E02F
:204C2C000A2507E00094084601243146019403F05FFB0546FF2F08D04046001D006820B1C5
:204C4C00006810B10146384688472846BDE8FE83001D00202DE9FE430AAF3C8805460E4647
:204C6C0099469046304602A905F090FF4B4642462946012808BF012048D0BDF80800DFF889
:204C8C00908042F60215FF27401B4FF0000529D048F27F11401A2DD0401E10D0401E1FD13E
:204CAC00E4B9012B18D1107838B1F1680870F16844468C421ED102271EE080251AE06CB969
:204CCC00022B09D1F06811880180F1684446601C88420FD101270FE00D250BE00B2509E0F9
:204CEC000A2507E00094084601243146019403F0FFFA0546FF2F08D04046001D006820B166
:204D0C00006810B10146384688472846BDE8FE833C1B00202DE9FE430AAF3C8805460E464C
:204D2C0099469046304602A905F030FF4B4642462946012808BF012048D0BDF80800DFF828
:204D4C00908042F60215FF27401B4FF0000529D048F26F11401A2DD0401E11D0401E1FD18C
:204D6C00E4B9012B18D1107840B1F1680870F1684446601C88421DD102271DE0802519E050
:204D8C0064B9012B08D11078F1680870F16844468C420FD101270FE00D250BE00B2509E0AE
:204DAC000A2507E00094084601243146019403F09FFA0546FF2F08D04046001D006820B105
:204DCC00006810B10146384688472846BDE8FE83201E00202DE9F04107F066F9DFF8A08084
:204DEC000646D8F8A00010F4602F28D0400CC4B2600807D2A00803D2E00828BF022402E009
:204E0C00012400E00024651D68B203F041FCD8F8A01004F111020120904081433046C8F81E
:204E2C00A01007F03DF908EB8400D0F88C704FB1D8F8880013A20CCA2946B84702E03046A5
:204E4C0007F02EF9D8F8A00020B108F58070002106F020FD98F8A50080080FD3D8F898704F
:204E6C0037B1D8F8880009A20CCA6FF00101B84798F8A50000F0FD0088F8A500BDE8F081A8
:204E8C00D814002000000000000000080000000000000080F8B506F017FF06F027FF044653
:204EAC0004F00C000C2845D0E0081ED205F058FE234E376805460120014606F0D8F9316857
:204ECC006943884211D21F4C8220B0FBF7F0291A204607F0F1F8204607F0EAF80120FCF7F2
:204EEC00F9FC204606F086F925E0200922D21648610939BF016821F00101016841F00101DC
:204F0C0002460160D2F898004FF0805440F00300C2F89800D4F8B80180690146202088471E
:204F2C00D4F8B801094C806B2168804701202060206800E030BF06F0CDFE02F031F9F8BDC6
:204F4C00CCD700003C1A00208C2108402C2009402DE9F0412A4D044628781F4690460E466B
:204F6C00ADF1300D012803D0FEF796FC012028705EB1B8F1000F666007D0C4F8088007F06F
:204F8C0093F8697819B107F08BF8002034E0491CC9B2697007F084F8012527B91A4807C8BE
:204FAC006F4687E80700386820607868E060397A782204F118002174002101F06DFB03A866
:204FCC0000212422082307F057F804F130008DF82450002103AA07F04BF803A800212422B5
:204FEC00082307F02DF804F1680006490994002203AB07F021F820460CB0BDE8F081C046F7
:20500C00DA14002041AB0000BCD60000F8B52C4C04F1180004F1100100F094FD0028606057
:20502C0008BF002048D004F12406304606F0BEFC002584F8245021486063314684F830506C
:20504C00284605F0D7FA2F46E06000B10127002831D0AB208DF8000006F08CFD68460121BA
:20506C0005F0A0FB2F4600B9012706F07BFD1FB102F0CEFC00B12F46CFB104F0C7F80028C3
:20508C0008BF2F1C15D004F1440000E0083007683FB1017922789142F8D141796278914246
:2050AC00F4D1A06000682C4600B101242746012F01D002F07FFC3846F8BDC04600093D0015
:2050CC00241F0020F8B50D46EEB2290824BF27494D40274BB400DFF89CC0195900EA0502F4
:2050EC000CEA020200F4E02C85EA0107BCF5E02F00EA070721EA0001C7F3006742EA01021F
:20510C0001D1510E14D300F4E0210F4310D002F4E027B7F5A02707D0B7F5803704BF22F4C1
:20512C00003242F4A02203E022F4803242F4C0221A51114CC10D04D3C5F38052A4F1D00119
:20514C008A55000E10D306F0AFFF290E03D201220021B24002E00122B240114623689343DE
:20516C001943216006F09CFFF8BDC046006000A000100840007F077FD02002402DE9F8431A
:20518C00984617468946044606F082FF274DB5F934604B4642463946F61A04D4B5F93660BE
:2051AC009E4204DA0CE0B5F936609E4205DAB5F93660B5F93470BE4202DC06F065FF31E057
:2051CC009E1003EB567626F007069B1BDE0006EB4316AD1905F59C752E1D96F82030243507
:2051EC0013F0070F18D1124B3568AB4202D03568A565336004F1500383E8060006F044FFBC
:20520C0004F130004FF0FF3106F01EFF04F1600797E80300BDE8F88306F036FF287810F012
:20522C00070FFBD102200021BDE8F883D8140020698A000038B52C4C05460020690820704D
:20524C0009D300F0E3FB002808BF207803D0207840F001002070A90809D302F03DF8002809
:20526C0008BF207803D0207840F002002070290909D300F097FD002808BF207803D0207812
:20528C0040F008002070E90809D303F00FFC002808BF207803D0207840F004002070690947
:2052AC0009D302F0AFFD002808BF207803D0207840F010002070A90909D304F067F800289D
:2052CC0008BF207803D0207840F020002070E90909D306F0BBFB002808BF207803D02078AC
:2052EC0040F04000207038BD303200202B482DE9F8430D469C4608AF91466968BC883E88C9
:20530C004B78027809784FF0000842F6232701EB0321C91B674628D0491E052917D9891F34
:20532C000CD0263933D1072E2ED8C6F10701A14298BF8CB23618083631461FE0B24223DBBC
:20534C00921BA242D8BF94B23C8040680BE0E86806F068FB80B2B04216DB801BA042D8BFB2
:20536C0084B23C80E868311809E0082E0CD8C6F10801A14298BF8CB231180F313C80484688
:20538C00224600F091FB06E04FF0070803E040464FF00A0838804046BDE8F883501700204A
:2053AC002DE9F04F09AFADF11C0D924606903C880493D7F80880059197F80490039430B1BC
:2053CC00081C04D0181C18BFB8F1000F01D1022038E01E4801780026354630E0069C04EBD9
:2053EC008504B4F800B04FF6FF70584523D0A7780FB303990498059A05F066FF0290D0B153
:20540C0078080AD3CDF80090CDF80480029B01215846524601F0C0F80643A07880080AD321
:20542C00CDF80090CDF804802088029B5246022101F0B2F80643054801786D1CEDB2A94205
:20544C00CCDC304607B0BDE8F08FC0462005002070B5294E294D012806D038BB3146002061
:20546C00491C05F027FE21E03146012005F022FE34462078022811D0621C0020012102F024
:20548C008DFF28680A21002204F0B8FB28680F21002204F0B3FB05F095FC07E006F050FCBD
:2054AC00621C60700121002002F078FF3146087801281FD1344628686178490834BF00228E
:2054CC0001220A2104F09AFB28686178890834BF002201220F2104F091FB61782868C908CD
:2054EC0002D205F06FFC70BD03F070FF4FF4FA6002F0D2FF70BDC046B82300201009002016
:20550C00042998B545D1294C606A40B994F8A500400838BFE06804D3D4F8880000E0C068CC
:20552C00E060001D01681B4A0978116000681168007888422CD1022005F044F81120FEF7A9
:20554C00ABFF01202072E168087C091D10B1A079012804D00E20FEF79FFFE168091D086878
:20556C000D49083007680FB947681FB10020C8610A4F0F600A4A40F2FF700B4B10600027E8
:20558C002361084A8F6119204A6106F029FD98BDFEE798BDD02108400010044051000706BF
:2055AC0000000460020000407D720000D8140020B0B501468B681C68E26948682262520842
:2055CC0024D2D0F8A01049680A685D69D2F80415294206D01C68616A21F002016162C2F864
:2055EC000455D2F8042519690A4231D01A68516A21F001015162D0F8A01049681A69096864
:20560C003830C1F8042506F007FDB0BD1C68626922F001026261D0F88870B7B9626822F09A
:20562C00020262601C68626A22F003026262D0F8A0005F6944681A69236847EA0200C3F895
:20564C000405084605F05AFBB0BD0846FEF798FBB0BDFEE7F8B5446886680846203804F126
:20566C000C043AD0401E34D0401E2FD120781578012814BF1D491E49FF2D41EA050109D11F
:20568C0094F88110FF2903D0D4F8900002F0B0FEFF2515E0D4F8900001F0E8FE98B93068B5
:2056AC00B0F1804F14BF23220B22D4F89000294605F0D2F9D4F8900094F8811002F098FE9D
:2056CC0084F8815010E04FF0FF30F8BD6FF00100F8BD002084F89800F8BD2178002001297D
:2056EC0008BF012084F898000020F8BD0004C0A000200080F0B520480127F84201D003F096
:20570C0053FB204D204F214EBD4206D203CD0478A4003459401CA047F6E71D48002800D013
:20572C008047164D164FBD4202D210CDA047FAE7F0BD03251BE0416808300A1C2A400BD139
:20574C001A1C2A40AB4305D0046804300C600431043BF9D1131C05D0047801300C70013131
:20576C00013BF9D1021C2A4001D0A84304300368002BE0D17047C046FFFFFFFF000000009F
:20578C00000000009CE2000024E3000094E2000059C501102DE9F0470F46064606F07CFC77
:2057AC00EFF311898246202080F31188D6F80880474533D01D481E4B0468002F05D49C6921
:2057CC000125BD4004EBC70401E0E4180025307D01281AD1304606F0FFFB306C06F070FCB9
:2057EC0018B1F1685868884358601869864204D02046314606F0ECFB04E020685C613146C1
:20580C0006F070FB586828435860B760F5603464002F44BF002058610120188189F311885A
:20582C00504606F02DFC4046BDE8F087E8050000000100201B4838B50468B4F1FF3F08BF91
:20584C00002406F0DBF80025174818490560012008601749086003F061F81648006820B1D1
:20586C00154800682046FBF78FFB144814490560144C0A686FF35B4244EA02000860124993
:20588C000868C0F30130012806D10A680F48104040F400320A6008600D4908680028FCD19C
:2058AC0038BDC0461C130050840460425C600C400822044380012843000120438C2108407A
:2058CC00482003400000390104000940FFFFFCFC0C006842F0B50446234DA7682868ADF142
:2058EC002C0D67BB0C2000F0D9FC071C1ED0684600212422082306F0A3FB002306976A46FB
:20590C006168ADF810301948059306F05DFB386078B908210C22ADF82410286AADF8262010
:20592C00014609A88847384605F06AF86FF0030018E0E06878602069B860A7600AE08047EC
:20594C000646386805F056FC2069B86068680146304688473868616806F0AEFB386806F06D
:20596C00A7FB00200BB0F0BD28190020C9BD00002DE9F843244C0646E06890460D46B0429A
:20598C0018BF03203AD102F059FE071C35D406F08BFB81461A4807F00F0145EA012525F06B
:2059AC0003010843C4F8840005F094FB00F0FF0001281AD1680B0FD384F8A470114B94F8F8
:2059CC00A550186807F10C020121914045F0040584F8A55088431860C4F8886004EB870041
:2059EC00C0F878800126267004E0384602F050FE6FF00107484606F053FB3846BDE8F883B5
:205A0C000100030608100440D814002010B50020442100F0C7FC002808BF002440D0214C7B
:205A2C001F200222214605F06EFF002835D021880806000C40EA2120782815D1102020807D
:205A4C0021460220024604F005FE30B302202146024605F058FF00B321880806000C40EAD2
:205A6C002120B0F5805F01D0208016E00020208021460220024604F0EDFD70B102202146D5
:205A8C00024605F040FF40B121880806000C50EA2120208008BF012400D0002406F03EF9A2
:205AAC00204610BD14320020002A4AD05FEA000C8B071CD1830722D1102A08D370B4103A29
:205ACC0078C978C0103AFBD270BC103238D0042A2CD3082A05D30C2A24BF08C908C008C9FA
:205AEC0008C008C908C092072AD0920F22E00B780370491C401C521E22D08B07F7D1C307C6
:205B0C0014D18307D8D0121F12D308C903801B0C4380001D121FF8D20AE008C903701B0AA3
:205B2C0043701B0A83701B0AC370001D121FF4D2121D05D00B780370491C401C521EF9D12D
:205B4C00604670472DE9F843234E0F4604464FF0FF3106F12405284606F076FAA946002009
:205B6C000CE0FF2909D032688A4204D906EB8101D1F894500DB1002425E0401C1FB117F8A7
:205B8C002010FE29EDD1002020604FF0010860600546A06011E0FF290ED01078636808FAA5
:205BAC0000F0184306EB810360600A491268C3F89440204604F0C8FA6D1C27B107EB850207
:205BCC001178FE29E7D1484606F02AFA2046BDE8F883C046007FC767902E0020B0B5244CBD
:205BEC002178E0888A0832BF0020401C80B24908E08017D3A188491C8FB2062FA78013DBB3
:205C0C00062811DB04F10805284605F0A3FF60B3284606F05DF90020A080E080607840F0E2
:205C2C0001001DE00027A78003280ADA38431CD10834204605F08EFFB8B1204606F048F96B
:205C4C00B0BD97B904F10805284605F083FF60B1284606F03DF90020E080607840F002005F
:205C6C0002496070086806F0DBF9B0BD0C090020A4220020B0B5244C6078410807D320F05B
:205C8C00010060700A20014602F0D0FF60781D4D810807D320F0020029786070062901D1CC
:205CAC0002F0FAFA2078A178884228D000200121224603F02BFB2878022802D1207805F092
:205CCC0071FDA7782078B90808D3810806D22978062903D002F0E0FAA778207810F0030F5E
:205CEC000DD067B904F10805284605F033FF28B9284606F0EBF80020E080A0802078A07094
:205D0C00B0BDC04604090020A42200202DE9F8432020EFF3118780F31188214CA068012143
:205D2C0006F04EF94FF001094FF0000865692168A4F81C906A1A2168A4F81E80461B401AE9
:205D4C00904227D387F3118840464519361A4846294606F031F9B042F7D92021EFF311878A
:205D6C0081F31188E18B012903D14046294606F023F9B0F1FF3F06D0A169801B814238BF85
:205D8C00081C411901E0A069291806F011F9A4F820902560A4F81C8087F31188BDE8F88312
:205DAC00780100201CB50020772100F0FBFA002808BF00243FD0D0206946012205F0A3FD57
:205DCC00002835D09DF80000582831D1F5206946012205F098FD00282AD09DF8000038BB58
:205DEC0055208DF8000069460122F42004F032FCF0B1F4206946012205F085FDC0B19DF891
:205E0C000000552814D1B6208DF8000069460122E02004F01FFC58B1F4206946012205F0F4
:205E2C0072FD28B19DF80000002808BF012400D0002405F073FF20461CBDFEE71CB5234CA6
:205E4C00401E02D0401E31D01CBD05F079FFC00824D32078FF2823D00120694604F082FBAF
:205E6C009DF80010207869B9A0B104F1080006F02FF8002004F03CFD00200222014605F07F
:205E8C00CDFC07E030B9012004F032FD04F1080006F01CF89DF8000020701CBDFF20207065
:205EAC000120FF21024605F0B9FC1CBD0220694604F058FB9DF800104FF47A70484381B222
:205ECC0004F10800618002F03BFB1CBDD022002030B5224C207EADF1140D012802D9401FB2
:205EEC0020D024E0012803D105F06AFD051C0DD0207E617E00F056FA051C07D0207FA27ED7
:205F0C00694605F000FD054605F008FF012D0ED0A27EFF230020824209DD411C00F80D30E3
:205F2C00C8B2F8E7E169A27E6846FFF7BDFDA27E211D684605F05CF8211D60B1A27E084622
:205F4C006946FFF7B1FDA17E00206A4603F006F86069401C606105B030BDC046E42100204F
:205F6C002DE9984306F0A0F81F4CDFF87880814604F1E000007850B94446A0680146022044
:205F8C0088470746102003F00DF82FB320E001F081FE002820460FD1144909683222B2FB22
:205FAC00F1F101B9012100F13004204606F084F8204606F07DF80FE044460022A16880F82D
:205FCC00E020022088470746102002F0EBFF1FB1A068014603208847484606F061F8BDE8D8
:205FEC009883C0469CD60000301A0020CCD7000080B54268C2F8A8100868C2F8AC0048681E
:20600C00C2F8B000D2F8B0708868C2F8B400C8681949C2F8B80097B9D2F8A800007C400040
:20602C0040F0010041F8040C022010720B68DB0917D2D2F8B820022A17D30B2216E0D2F851
:20604C00A800007C0123400041F8040CD2F8AC001372431CC2F8AC30007848600868C0091A
:20606C0002D34FF0FF3080BD022003220A6005F0F6FE002080BDC0460428004070B51F4C9B
:20608C00A568064605F0FEFA4FF47A71401B4843050C04F0BBFD2169401A48BF404240F63A
:2060AC00B831AD19A94211D306280FDAA268E1688A420BD8206848B1891A114A51438A0C94
:2060CC0002EB1141884288BF011C08E00D49486840080ED208687D2100F0FF004143C829BF
:2060EC0005D3B1F57A6F88BF4FF47A6103E0C82101E04FF4FA61084670BDC046F8310020B3
:20610C0040420F00AC3F00501CB5204C401E02D0401E2ED01CBD05F013FE00091DD360782E
:20612C00FF281DD00120694603F0F0FE9DF8000030B19DF80000012817D10121617007E098
:20614C00002006226070014605F050FB4FF0FF3104F10C00FFF71EFB07E0FF20641C2070FF
:20616C000120FF21024605F041FB002004F0EEFD1CBD0220694603F0C9FE9DF800202146DA
:20618C004FF47A70891C504308801CBD700F002010B5994201D1904233D050EA020404D132
:2061AC0041EA03046400002C2BD050EA410401D19C4226E04C006415641C07D15C006415EF
:2061CC00641C03D1DC0FB4EBD1741AE0002B0CD4002916D4994214D190EA020401D4904291
:2061EC000FE0002A0DD101240BE0002909DC8B4207D190EA020401D4824202E0002800D1E5
:20620C000124EFF3008454BF44F0005424F0005484F3008810BD10B58B4201D1824233D0ED
:20622C0052EA000404D143EA01046400002C2BD052EA430401D18C4226E05C006415641C02
:20624C0007D14C006415641C03D1CC0FB4EBD3741AE000290CD4002B16D48B4214D192EA3A
:20626C00000401D482420FE000280DD101240BE0002B09DC994207D192EA000401D4904286
:20628C0002E0002A00D10124EFF3008454BF44F0005424F0005484F3008810BDF8B5001DF1
:2062AC0084B214F0030002D0241A241DA4B205F043F801461948102C47680160C8BF876854
:2062CC00388800221646C30BDD0319D126B984420ADD3A46012617E01388C3189BB29C4211
:2062EC00138011DC174618469FB1001B80B20428B4BF3C88385344F400443C803F1D08E050
:20630C0080F40040002680B2C71938880028DAD10027084605F0E1FA3846F8BD3019002011
:20632C001CB51F4C401E02D0401E2BD01CBD05F007FD40081AD36078FF281AD001206946CC
:20634C0004F0F8F89DF8000038B900200422014605F070FA4FF0FF3100E0012104F10C0069
:20636C00FFF718FA9DF80000607007E0FF20641C20700120FF21024605F05CFA002003F0A7
:20638C0065F81CBD0220694604F0D4F89DF8002021464FF47A70891C504308801CBDC04642
:2063AC00241200202DE9F8438046894618481B4C164A016804F11400B2FBF1F105F044FE36
:2063CC0000284946404608BF00201CD0144A114D117027682978814212D02870384605F084
:2063EC00DEFC261D304605F075FB28783146012804BF09482061002004F024F807462760C0
:20640C00002007B10120BDE8F883C04620A10700CCD700002C320020F0D700004831002008
:20642C002D3200201D4A70B5D3680C46834218BF03202DD192F8A500C1080AD392F8A410E8
:20644C00A14206D100F0FB0082F8A500002682F8A46005F029FE0646204602F019F90D48A1
:20646C00210201F47F41084304F034FE0A4A0546106804F10C030121994088431060304600
:20648C0005F00EFE05F0FF05012D0CBF8120022070BDC0460100080408100440D814002092
:2064AC001CB51D4C401E02D0401E28D01CBD05F047FC80081AD36078FF281AD001206946D1
:2064CC0003F0A8FF9DF8000038B900200422014605F098F94FF0FF3100E0012104F1140003
:2064EC00FFF758F99DF8000060701CBDFF20641C20700120FF21024605F084F91CBD0220E6
:20650C00694603F087FF9DF8002021464FF47A70891C504308801CBDB40C00201CB5042090
:20652C0004F042FF022818D0032816D016480068C0F38150032814BF41F288324FF47A7293
:20654C001248144C016854342046B2FBF1F105F0B3FD204605F0ACFD1CBD03200C4C009002
:20656C0000214FF040521C23204602F0AFFC012000214FF4007209230090204602F0A6FC2E
:20658C00022004F007F81CBDB43F0050CCD7000000A00C40301A00202DE9F0430E46914651
:2065AC001D4607AF80461B214FF6FF72ADF11C0D03AB04F057FC059038B300210091BDF85B
:2065CC000C100191FF2402947C6802460DF1120340462946A047041C12D16889ADF8100084
:2065EC00700805D340464A4604A904F013FE05E03B7840464A4604A905F042FB041C05D0F5
:20660C0004A81B2104F06EFE00E01524204607B0BDE8F083F8B506AF38881E4614460F46A3
:20662C00002818BF0B2030D10846694604F0AEFA012803D1002101203180F8BDBDF8000030
:20664C004AF601410025401A15D0401E0BD0401E03D028460A25308016E002203080F86869
:20666C000088208010E005203080F868016821600079207108E0FFF72BFC04480278328050
:20668C00F9682046FFF710FA2846F8BD981D0020002213460A46194671B510F0030F0BD0F2
:2066AC00002A82BF00F8011BB2F1010210F0030FF6D1002A08BF71BD11F0FF0141EA012163
:2066CC00042A18D341EA0141082A0FD30E46102A08D30C460D46B2F10F0312F00F0272C00C
:2066EC00103BFCD812F0080F18BF42C012F0040F18BF40F8041B12F0020F18BF20F8021B1B
:20670C0012F0010F18BF017071BD7047FEB51A4D0026144668B1401E08D0401E28D10129C4
:20672C0024D1174D6D1C2078287022E001291DD1F9E706291AD1104605F10C070622394621
:20674C0004F056FC394688B12068A288086008278A80FF230097094801932B46029098683B
